:0400000086EF3FF058
:107F0C00136A126A0001B8EF3FF001500302F3CF7D
:107F1C0005F0F4CF06F001500402F350062602508F
:107F2C000302F350062605C001F006C002F0120051
:107F3C0001C0A9FF03C0A8FFA69EA69CA684000EA4
:107F4C00F2BE010E046EF29E550EA76EAA0EA76E1F
:107F5C00A682A6B2FED704A002D0F28E01D0F29E69
:107F6C00A6941200000E116E000E106E10C007F0D9
:107F7C0011C008F0000E096E400E0A6E410E0B6E19
:107F8C00D9EC3FF0104A112A115004E1080E105C94
:107F9C00D8A0ECD710C001F011C002F0160E036E81
:107FAC009EEC3FF0FFD707C001F008C002F0000EB6
:107FBC00046E030E036E8BEC3FF0000E01240C6E6E
:107FCC00000E02200D6E090E0E6E000E0F6E0CC010
:107FDC0001F00DC002F00E50D96EDA6ADF50036E5C
:107FEC009EEC3FF00E2A0C4A0D2A0F2A020E0F644B
:047FFC00EED71200AA
:020000040020DA
:08000000FFFFFFFFFFFFFFFF00
:020000040030CA
:0E00000000051F1FFF8385FF0FC00FE00F409C
:00000001FF
