:100000000C942A000C9447000C9447000C94470071
:100010000C9447000C9447000C9447000C94470044
:100020000C9447000C948B0D0C9447000C944700E3
:100030000C9447000C9447000C9447000C94470024
:100040000C9447000C9447000C9447000C94470014
:100050000C94470011241FBECFE5D8E0DEBFCDBF12
:1000600010E0A0E6B0E0E4E9F3E302C005900D92F1
:10007000AC3BB107D9F722E0ACEBB0E001C01D9278
:10008000AE3EB207E1F70E94DC140C94C8190C9440
:1000900000008F929F92AF92BF92FF920F931F9397
:1000A000CF93DF9300D000D000D0CDB7DEB7209142
:1000B0006000309161004091620050916300609156
:1000C00064007091650080916600909167000E94C5
:1000D0008517462F572FBC0140935401509355016B
:1000E000609356017093570180E090E0A0E7B2E47E
:1000F0008093580190935901A0935A01B0935B01EA
:1001000080E090E0A0E8BFE380935C0190935D0104
:10011000A0935E01B0935F018091580190915901C5
:10012000A0915A01B0915B0189839A83AB83BC8310
:1001300020915C0130915D0140915E0150915F0121
:10014000BC01CD010E948517462F572FBC0140935B
:10015000640150936501609366017093670180911B
:100160005C0190915D01A0915E01B0915F01898376
:100170009A83AB83BC8320E030E040E752E4BC01CB
:10018000CD010E94E41820E030E04AE754E469839E
:100190007A838B839C8369817A818B819C810E9485
:1001A000E41869837A838B839C8369817A818B814C
:1001B0009C810E94FE17462F572FBC01409360017F
:1001C00050936101609362017093630110E000E05D
:1001D00084E1F82EC8010E941D12882309F483C00F
:1001E000F09ED001F19EB00D1124AD5ABE4FBE83DA
:1001F000AD8355968D919D910D90BC91A02D8983D5
:100200009A83AB83BC832091540130915501409176
:100210005601509157018090640190906501A09023
:100220006601B0906701BC01CD010E948517A50150
:10023000940169837A838B839C8369817A818B8122
:100240009C810E948517462F572FBC01ED81FE81AE
:10025000418F528F638F748F818D928DA38DB48D5A
:1002600089839A83AB83BC8320E030E040E85FE37E
:10027000BC01CD010E94DF1887FD2AC0AD81BE817F
:1002800059968D919D910D90BC91A02D89839A8353
:10029000AB83BC83BC01CD010E94FE1769837A83C6
:1002A0008B839C83A981BA81CD01B0E0A0E08983D2
:1002B0009A83AB83BC83BC01CD010E942D18462FCD
:1002C000572FBC01ED81FE81458F568F678F70A33C
:1002D000F09EF001F19EF00D1124ED5AFE4F11A297
:1002E00012A213A214A20F5F1F4F0231110509F0D1
:1002F00071CF1092E0021092DF0226960FB6F894AA
:10030000DEBF0FBECDBFDF91CF911F910F91FF9048
:10031000BF90AF909F908F900895CF93DF9300D0C0
:1003200000D0CDB7DEB780913701811116C084E1CE
:1003300090E00E947C080E94A91269837A838B83D3
:100340009C8369817A818B819C810F900F900F90A3
:100350000F90DF91CF910C9401080F900F900F90A8
:100360000F90DF91CF91089581110BC00E948311EE
:1003700081E08093C0000E9449000E9411140C94F7
:10038000F60F8130D1F71092C000F7CF0F931F9373
:10039000CF93DF93CDB7DEB72A970FB6F894DEBFC1
:1003A0000FBECDBF8091C0001816CCF4813031F55E
:1003B0000E944B11882399F01092C1008091460150
:1003C00090914701892BB1F483E08093C000109293
:1003D000BC001092BD001092BE001092BF002A9681
:1003E0000FB6F894DEBF0FBECDBFDF91CF911F9146
:1003F0000F9108958091C0008F5FE7CF823041F464
:100400000E948611882359F38091C0008F5F33C00A
:100410009091390190FF14C04091BC005091BD00F3
:100420006091BE007091BF004F5F5F4F6F4F7F4F75
:100430004093BC005093BD006093BE007093BF001A
:10044000833059F58091C10082313CF4082E000CB4
:10045000990B0E941D12882389F08091C10082317E
:10046000C1F40E944E12813179F463E080E991E099
:100470000E94FA0F87E08093C000B1CF8091C10045
:100480008F5F8093C100DECF81E10E94371186E04B
:10049000F2CF0E94371184E0EECF843009F003C11F
:1004A0000E944B11882309F49ACF2091C10029831F
:1004B000022F022E000C110BA4E12A02C00111240C
:1004C0008D5A9E4F9E838D83FC0110A617A2218D0D
:1004D000328D438D548D81A192A1A3A1B4A18983B2
:1004E0009A83AB83BC83BC01CD010E941417462FB5
:1004F000572FBC01ED81FE8141A352A363A374A3D6
:1005000081A192A1A3A1B4A189839A83AB83BC8367
:10051000258D368D478D50A1BC01CD010E94DF187D
:1005200087FDBCC0AD81BE8191968D919D910D904E
:10053000BC91A02D89839A83AB83BC83ED81FE811E
:10054000258D368D478D50A1BC01CD010E9413171A
:10055000462F572FBC0149835A836B837C8320E04D
:1005600030E040E85FE369817A818B819C810E9461
:10057000DF1887FD1CC020E030E040E85FE36981C0
:100580007A818B819C810E941317462F572FBC01C3
:1005900049835A836B837C83AD81BE8197968D910D
:1005A0009C919897019698969C938E93979784E147
:1005B000809FF001819FF00D1124ED5AFE4F89813B
:1005C0009A81AB81BC8181A392A3A3A3B4A3A09180
:1005D000DF02B091E002BA87A9878091640190910F
:1005E0006501A0916601B09167018D839E83AF8301
:1005F000B887BC01CD010E94F7176D837E838F837E
:1006000098878D819E810197A985BA858A179B0756
:10061000C1F420E030E0A90169817A818B819C815D
:100620000E94DF1818166CF484E1809FF001819F0E
:10063000F00D1124ED5AFE4F87A190A5019690A7C9
:1006400087A384E1809FF001819FF00D1124ED5A72
:10065000FE4FFE83ED83858D968DA78DB0A1898396
:100660009A83AB83BC8307A110A5BC01CD010E9476
:10067000FE17462F572F400F511FED81FE8150A7C7
:1006800047A327A130A585A196A1820F931F96A30A
:1006900085A387A190A50E940714B6CE19821A825D
:1006A0001B821C8294CF853061F40E947D148823C4
:1006B00009F495CE8091C1008F5F8093C10083E0E3
:1006C000DACE863059F40E944B11882309F487CE84
:1006D00063E080E991E00E94FA0F96CE873009F03E
:1006E0007ECE0E944B11882309F479CE409160019F
:1006F0005091610160916201709163018091BC0031
:100700009091BD00A091BE00B091BF0084179507E5
:10071000A607B70708F463CE1092BC001092BD0084
:100720001092BE001092BF001092C10083E080932F
:10073000C0002091DF023091E0022F5F3F4F3E83E7
:100740002D833093E0022093DF0280916401909129
:100750006501A0916601B091670189839A83AB839B
:10076000BC83BC01CD010E94F71769837A838B8318
:100770009C83AD81BE81E981FA81AE17BF0709F084
:100780002ECE1092E0021092DF0229CEE3ECF0E0D0
:10079000818381E080830895DF92EF92FF920F932F
:1007A0001F93CF93DF93CDB7DEB72A970FB6F89498
:1007B000DEBF0FBECDBF8091C200811112C00E946A
:1007C0000D0A882309F440C18091C4008F5F8331F2
:1007D0001CF48093C40002C01092C40081E0809396
:1007E000C30080E00E94210A81E00E94210A82E089
:1007F0000E94020A811162C082E00E940D0A8823D1
:1008000009F45CC08091C200811155C00091C40000
:1008100002310CF046C1E02E002E000CFF0824E14E
:100820000202800111240D5A1E4FD80155968D9158
:100830009D910D90BC91A02D8F839887A987BA8731
:1008400020E030E0A901BC01CD010E948017811198
:1008500008C18AE999E9A9E9BEE3F801858B968B7D
:10086000A78BB08F84E18E9D80018F9D100D112488
:100870000D5A1E4FD80155968D919D910D90BC91AA
:10088000A02D8F839887A987BA8720E030E040E4C5
:1008900051E4BC01CD010E94DF1887FD09C080E052
:1008A00090E0A0E4B1E4F801858B968BA78BB08F24
:1008B00081E08093C30082E00E94210A83E00E94CD
:1008C000020A811160C083E00E940D0A882309F4A6
:1008D0005AC08091C200811153C0F090C400F1E170
:1008E000FF150CF40AC12F2D84E128028001112488
:1008F0000D5A1E4FD80155968D919D910D90BC912A
:10090000A02D8F839887A987BA8720918F00309177
:1009100090004091910050919200BC01CD010E9445
:100920001317462F572FBC01F801458B568B678B49
:10093000708FF110CAC08091680190916901A091F7
:100940006A01B0916B018F839887A987BA872AE9DA
:1009500039E949E95EE3BC01CD010E94801787FFB8
:100960000CC08AE999E9A9E9BEE3809368019093F4
:100970006901A0936A01B0936B0181E08093C30089
:1009800083E00E94210A84E00E940D0A8823A9F0D6
:1009900084E00E94210A8091C400823174F4909115
:1009A000C20021E0911120E02093C2009111BAC051
:1009B0000E941A0980E00E941D0982E00E94020A3A
:1009C000813009F4B3C0F12C8091C300813069F506
:1009D00080913701823039F50091C40002310CF06A
:1009E0000BC1002E000C110BC80101960E947C085F
:1009F00084E1809FF001819FF00D1124ED5AFE4F9C
:100A000085899689A789B08D8F839887A987BA87AA
:100A100020E030E0A901BC01CD010E9480178111C6
:100A2000E4C00E94DE061092C3008F2D2A960FB6F6
:100A3000F894DEBF0FBECDBFDF91CF911F910F9114
:100A4000FF90EF90DF90089581E00E940D0A8823C7
:100A500009F4C7CE8091C400815087FFBACE82E1ED
:100A6000B8CED80155968D919D910D90BC91A02D39
:100A70008F839887A987BA8720918F003091900043
:100A80004091910050919200BC01CD010E94141739
:100A9000462F572FBC01F801458B568B678B708F03
:100AA000E1CE8091D0028F5F8093D002843014F029
:100AB0001092D002E091D0020E2E000CFF0BE355F5
:100AC000FF4F80818093D102F3CE85899689A789D3
:100AD000B08D8F839887A987BA872AE939E949E9D0
:100AE0005EE3BC01CD010E94801787FF46CFF8016D
:100AF000158A168A178A108E40CF8091D0028150B5
:100B00008093D00287FF03C083E08093D002E091FE
:100B1000D0020E2E000CFF0BE355FF4F8081809317
:100B2000D1022BCF81E08093C30045CF82E00E94A9
:100B30000D0A882309F447CF83E00E94020A81301E
:100B400009F041CF83E00E940D0A882309F43BCFCE
:100B500082E00E94210A83E00E94210A10E000E066
:100B600081E0E82E80E0F82E94E1D92ED09EF001AD
:100B7000D19EF00D1124ED5AFE4F458956896789A3
:100B8000708DC701F4E0EF0EF11C0E94AC190F5FED
:100B90001F4F0231110551F76091D00280E090E0C3
:100BA0000E949B190E94EA128093D6021092C20002
:100BB00081E00E941D0986E0E7EAF0E0DE0111967F
:100BC00001900D928A95E1F72981286029833A8165
:100BD0004B815C816D817E8184E00E948E0980E082
:100BE0000E943A06FF24F394EFCE6F8178858985C1
:100BF0009A850E94010817CF0E94D7068091D102E2
:100C0000082E000C990B0E9476080DCFC498089509
:100C1000C49A0895C3980895C39A0895C2980895F0
:100C2000C29A0895C1980895C19A0895C0980895E8
:100C3000C09A0895CF93DF931092E5021092E602D6
:100C40001092E2021092E3021092E4028FEF8ABB4C
:100C5000C8E6D0E0E881F9810995249680E0CC3798
:100C6000D807C1F7BC9ABB9ABA9AB99AB89ADF91D9
:100C7000CF9108958093C9001092C8001092C700C8
:100C80001092C6000895EF92FF920F931F93CF9397
:100C9000DF93E091C500E150E7FDE4E024E0E202EB
:100CA000F0011124E859FF4F0190F081E02D0995E2
:100CB000E091C500E3300CF059C08091C90081116A
:100CC00008C00E2E000CFF0BEE51FD4F80818BBB38
:100CD0001CC08091C7009091C80001969093C800F5
:100CE0008093C7008436910558F09091C600109209
:100CF000C8001092C70081E0911180E08093C60087
:100D00008091C6008823E9F21BBA2091C50081E0DA
:100D100090E07C0102C0EE0CFF1C2A95E2F708E689
:100D200010E0D0E0C0E0C7010C2E02C09595879579
:100D30000A94E2F7D80180FF20C01296ED91FC9151
:100D4000099521960C5F1F4FC530D10561F7809141
:100D5000C50091E0980F843099F09093C500DF9121
:100D6000CF911F910F91FF90EF900895E3500E2EB9
:100D7000000CFF0BEB51FD4FA9CFED91FC91E0CFA3
:100D80001092C500ECCF462F67FD40E0042E000C0A
:100D9000550B70E060E00C94511962E085EE92E032
:100DA0000C94C30663E082EE92E00C94C3068CE5DB
:100DB0008093E60286E18093E50208958FE38093B5
:100DC000E40281E78093E3028093E202089581E7E1
:100DD0008093E4028093E3028093E202089581E726
:100DE0008093E40288E38093E3028EE38093E2023F
:100DF000089584E58093E6028CE58093E5028FE315
:100E00008093E40280E38093E30288E38093E2022C
:100E100008953F924F925F926F927F928F929F922E
:100E2000AF92BF92CF92DF92EF92FF920F931F93F8
:100E3000CF93DF93CDB7DEB72E970FB6F894DEBF12
:100E40000FBECDBF5C01862EF22EE32ED42EC52E12
:100E5000362E412C512C20E8622E3FE3932E3A94FB
:100E60008FEF38128AC02F2D3E2D4D2D5C2D4B86D5
:100E70005C866D869E866B857C858D859E850E94B1
:100E80008017181674F020E030E040E85FE36B85CF
:100E90007C858D859E850E941317F62EE72ED82E11
:100EA000C92E682DC5010E94C306912C612C512CBE
:100EB00080E8482E9FE3392E891494F1262D352D94
:100EC000442D532DFB86EC86DD86CE866B857C8596
:100ED0008D859E850E94801787FF6FC098140CF047
:100EE0005EC020E030E040E251E46B857C858D857A
:100EF0009E850E94E4186B877C878D879E876B8513
:100F00007C858D859E850E94F7178B01911003C00B
:100F10008FE3F5018183F501818180688183792CDC
:100F20004AE0BE016F5F7F4FC8010E94581980E000
:100F3000972D981BE1E0F0E0EC0FFD1FE80FF11D8D
:100F400087FDFA95E081E1114CC02E960FB6F8941A
:100F5000DEBF0FBECDBFDF91CF911F910F91FF90EC
:100F6000EF90DF90CF90BF90AF909F908F907F9049
:100F70006F905F904F903F90089520E030E040E206
:100F800051E44B865C866D869E866B857C858D855F
:100F90009E850E94E4182B01682E992E60CFFB8657
:100FA000EC86DD86CE866B857C858D859E850E9450
:100FB000F7178B0177247A94790C20E030E040E237
:100FC00051E46B865C864D863E866B857C858D857F
:100FD0009E850E94E418662E572E482E392E939433
:100FE0006BCFD501A90FB11D97FDBA950E2E000C40
:100FF000FF0BE359FF4F9C912081922B9C938F5FB5
:1010000097CF9B01AC0163E082EE92E00C9409075C
:101010009B01AC0162E085EE92E00C940907CF924F
:10102000DF92EF92FF921F93CF93DF93CDB7DEB79E
:101030002A970FB6F894DEBF0FBECDBF7C01162FE6
:10104000CA01462F21E030E05AE04150C0F5821736
:10105000930714F0C90101974AE09E012F5F3F4FAB
:101060006901B9010E945819412F17FD40E0042E73
:10107000000C550B70E060E0C7010E945119F601A9
:1010800001900020E9F7EC198EEF8E0F90E0282FE9
:10109000291BF601E90FF11D97FDFA95E081E11199
:1010A00015C02A960FB6F894DEBF0FBECDBFDF91F4
:1010B000CF911F91FF90EF90DF90CF900895B901ED
:1010C000569F9001579F300D1124BFCFD701A20F1B
:1010D000B11D27FDBA950E2E000CFF0BE359FF4FF3
:1010E0002C913081232B2C939F5FD1CFAC0163E0F7
:1010F00082EE92E00C940F08AC0162E085EE92E083
:101100000C940F0884E190E00E947C0880E48093B6
:10111000E4028093E3028093E202089585E190E087
:101120000E947C0889E78093E40280E58093E302D3
:101130008093E20208950F931F93CF93811125C0EE
:101140000E94CD060E94EF060E94161000E911E0F1
:10115000B8010E94EB16C62F0E941610B8010E941B
:10116000EB16892B61F4C093CB0082E08093CA0018
:101170000E941114CF911F910F910C94F60FCF5F25
:10118000C2318CF31092CB00F0CF813089F71092EE
:10119000CA00EECF8091CA00181694F40E944B1139
:1011A000882371F08091CA00813071F48091CB0066
:1011B0008F5F823134F48093CB0082E08093CA0049
:1011C00008951092CB00F9CF823051F48091CB007A
:1011D0000E9459128823A1F38091CA008F5FEECF3D
:1011E0008330A9F40E944B11882351F38091CB00E6
:1011F000082E000C990B0E941D129091CA008823A2
:1012000021F09F5F9093CA0008959250FBCF8430E5
:1012100049F40E944B11882399F286E090E00E94E5
:101220000714DACF853061F60E947D14882341F2DD
:1012300081E0C4CF8093CE00089581110FC00E9439
:10124000EF0681E08093CF000E9456121092CD00ED
:101250001092CC000E9411140C94F60F8130D1F73B
:101260001092CF00F7CF8091CF0018165CF4813038
:1012700051F40E944B11882329F08091CF008F5F99
:101280008093CF000895823071F48091CE00082EB3
:10129000000C990B0E941D128823A1F38091CE00AF
:1012A0000E945912E8CF8330B9F40E944B11882371
:1012B00049F381E090E00E9407148091CF008F5F96
:1012C0008093CF008091CC009091CD0001969093B7
:1012D000CD008093CC0008958430A1F60E947D1447
:1012E000882381F28091CF008150CACF83B3829549
:1012F0008170089583B385FB882780F9089583B3AF
:1013000086FB882780F9089583B3881F8827881F64
:10131000089580B382FB882780F90895CF93DF93E7
:1013200000D000D000D0CDB7DEB729833A834B83FD
:101330005C836D837E8390E1899FD0011124A2524A
:10134000BF4F86E0FE01319601900D928A95E1F73C
:1013500026960FB6F894DEBF0FBECDBFDF91CF91BA
:1013600008951F93CF93DF9300D000D000D0CDB766
:10137000DEB7A498A598A698A7988A98AC9AAD9A33
:10138000AE9AAF9A929A86E799E09093D6008093AE
:10139000D5008AE799E09093E6008093E5008FE717
:1013A00099E09093F6008093F50084E899E090939B
:1013B00006018093050189E899E0909316018093D6
:1013C000150186E0FE013196DF011D928A95E9F74D
:1013D00089818160898310E029813A814B815C8118
:1013E0006D817E81812F0E948E091F5F1530A1F7CC
:1013F00026960FB6F894DEBF0FBECDBFDF91CF911A
:101400001F91089590E1899FF0011124EC51FF4F45
:10141000808182FB882780F9089590E1899FF001FF
:101420001124EC51FF4F808186958170089590E1E1
:10143000899FF0011124EC51FF4F808182608083ED
:10144000089590E1899FF0011124EC51FF4F8081B4
:101450008D7F8083089590E1899FF0011124EB52E4
:10146000FF4F0280F381E02D0994EF92FF920F93DA
:101470001F93CF93DF9394E0E92EF12C8AE18A95B4
:10148000F1F700C0870184E0000F111F8A95E1F792
:10149000E801CB52DF4F8C81811113C0E881F981C3
:1014A0000995811103C08C818F5F8C8381E0E81ADC
:1014B000F10820F7DF91CF911F910F91FF90EF90EE
:1014C00008958C818130A9F48D818F5F8D83813067
:1014D00069F71D82E881F9810995882319F08C81CB
:1014E0008150E3CFF801EC51FF4F80818160808310
:1014F000DACF8C81823031F4E881F981099581302D
:10150000A9F6D1CF8C81833089F68D818F5F8D8351
:10151000813061F61D82E881F98109958130F9F603
:10152000F801EC51FF4F80818E7F80831C82BECFFB
:10153000BF92CF92DF92EF92FF920F931F93CF93C0
:10154000DF9350E040E031E075E0B72EE4E0CE2ECE
:10155000F7E0DF2EA6E0FA2EB8E0EB2E23E0C9E09C
:10156000DAE012E00BE0CA0164E0880F991F6A9587
:10157000E1F7FC01EB52FF4F668161113CC06685CB
:10158000662369F0E685F0E0E053FF4F608161304B
:1015900031F4FC01EC51FF4F608163FF2CC0DC0192
:1015A000AC51BF4F6C91762F717060FF24C0FC016D
:1015B000E252FF4F608160FF59C16C9162606C9391
:1015C0006081FC01EB52FF4F61FF4EC1E682DC01FE
:1015D000AC51BF4F6C9160616C93FC01EB52FF4FBB
:1015E0006685662341F0E685F0E0E053FF4F3083E7
:1015F0006C9168606C93FC01EB52FF4F6681683020
:1016000060F066816B3048F4DC01AC51BF4F6C91E7
:1016100060FD03C0108617822683FC01EB52FF4F4A
:101620006681683071F4678170856F5F7F4F708766
:101630006783A285B3856A177B0718F01086178227
:10164000C683DC01AB52BF4F16966C91169769307A
:1016500059F4FC01EC51FF4F608161FD05C06081D0
:10166000626060831696DC93FC01EB52FF4F66814B
:101670006A3071F4678170856F5F7F4F7087678311
:10168000A485B5856A177B0718F010861782C68374
:10169000DC01AB52BF4F16966C911697663059F429
:1016A000FC01EC51FF4F608160FD05C0608162600C
:1016B000608316962C93FC01EB52FF4F66816730D6
:1016C00039F4DC01AC51BF4F6C9162606C931683AE
:1016D000FC01EB52FF4F66816430A1F56781708594
:1016E0006F5F7F4F70876783DC01AC51BF4F6C9198
:1016F00060FD0EC0678170856333710548F4108604
:1017000017826C9162606C936C916B7F6C932683F3
:10171000FC01EB52FF4F678170856333710590F0D8
:1017200010861782DC01AC51BF4F6C9162606C93E4
:101730006C9164606C93DC01A252BF4F6C9161FDAF
:10174000B5C03683FC01EB52FF4F6681653099F5D9
:10175000678170856F5F7F4F70876783DC01AC5155
:10176000BF4F6C9160FD0EC067817085633371055A
:1017700048F4108617826C9162606C936C916B7F59
:101780006C932683DC01AB52BF4F17966D917C9111
:1017900018976436710578F018961C921E92179768
:1017A000FC01EC51FF4F6081626060836081646086
:1017B000608316961C93FC01EB52FF4F66816130EB
:1017C00031F4DC01AC51BF4F6C9160FF2683DC012A
:1017D000AB52BF4F16966C911697623059F4FC01CC
:1017E000EC51FF4F608160FD05C060816D7F6083BB
:1017F00016960C93FC01EB52FF4F6681633031F477
:10180000DC01AC51BF4F6C9161FF0683FC01EB52D0
:10181000FF4F66816B30C1F46685662359F0E6851B
:10182000F0E0E053FF4F1082FC01EC51FF4F60816C
:10183000677F6083FC01EB52FF4F1682FC01EC5185
:10184000FF4F80818F7E80834F5F5F4F4530510512
:1018500009F089CEDF91CF911F910F91FF90EF900A
:10186000DF90CF90BF9008957683B1CE608162FF04
:1018700005C0FC01EB52FF4FF682A9CE608163FFE9
:1018800005C0FC01EB52FF4FD682A1CE608164FF00
:1018900005C0FC01EB52FF4FC68299CE608165FF07
:1018A00096CEFC01EB52FF4FB68291CED6834ACF43
:1018B0000E94350A0C94980A90E080E0FC0124E034
:1018C000EE0FFF1F2A95E1F7EC51FF4F208120FD1D
:1018D00006C001968530910589F781E0089580E082
:1018E0000895E4EEF0E080818D7F8083E4EFF0E006
:1018F00080818D7F8083E4E0F1E080818D7F808333
:10190000E4E1F1E080818D7F8083E4E2F1E0808199
:101910008D7F808308950C94710C90E080E0FC0131
:1019200024E0EE0FFF1F2A95E1F7EC51FF4F2081D5
:1019300024FD06C001968530910589F781E0089560
:1019400080E0089580B38295817091E08927EBE271
:10195000F1E081838083089590912801911110C056
:1019600080B391E082958170892720912C012817FE
:1019700021F080932C019093280180912B010895F0
:101980009130D9F78091390180FFF7CF80912701FD
:1019900021E0280F833119F020932701EECF109218
:1019A000270180B320912C0182958F708927817047
:1019B000281302C020932B0110922801DECF86B39A
:1019C00090E0880F892F881F990BE9E2F1E081836D
:1019D0008083089580912601811112C086B390E022
:1019E000880F892F881F990B20912A01281729F029
:1019F00080932A0181E08093260180912901089536
:101A00008130D9F78091390180FFF7CF809125018E
:101A100091E0980F833119F090932501EECF109249
:101A2000250186B390912A01881F8827881F891372
:101A300002C09093290110922601DFCF80B3881F46
:101A40008827881F089581E0089581E00895CF9345
:101A5000DF9300D000D000D0CDB7DEB786E0E7EA54
:101A6000F0E0DE01119601900D928A95E1F729814F
:101A70002360298389E1382F8A831B828FE0582FC6
:101A80008C831D8281E08E8340E060E071E080E025
:101A90000E948E0929813A814B815C816D817E8112
:101AA00081E00E948E0986E0E7EAF0E0DE0111960F
:101AB00001900D928A95E1F72981206229833A816C
:101AC0004B815C816D817E8182E00E948E0929813B
:101AD0003A814B815C816D817E8183E00E948E0919
:101AE00086E0E7EAF0E0DE01119601900D928A951A
:101AF000E1F7298128603A814B815C816D817E818B
:101B000084E026960FB6F894DEBF0FBECDBFDF91FE
:101B1000CF910C948E091F920F920FB60F92112441
:101B20002F933F934F935F936F937F938F939F93E5
:101B3000AF93BF93EF93FF938091400191E0980F93
:101B40008B3009F19093400180913F018F5F80932A
:101B50003F01843139F480914401816080934401D4
:101B600010923F01FF91EF91BF91AF919F918F91A3
:101B70007F916F915F914F913F912F910F900FBE89
:101B80000F901F9018951092400181E00E9428103C
:101B9000DBCFCF93DF9300D000D000D0CDB7DEB73E
:101BA0000E94EA0C90912D0191110DC081111CC071
:101BB0008091530181608093530181E080932D01D6
:101BC00010922E0111C0913079F48091420180FF72
:101BD000F7CF80912E01811107C00E94F9068091F4
:101BE0002E018F5F80932E0180912F0181110CC0F7
:101BF0008091530181FB992790F981FF16C0909342
:101C00002F011092300111C0813079F4809142018E
:101C100081FFF7CF80913001811107C00E948E08AB
:101C2000809130018F5F8093300180913E0181115E
:101C300060C080917C0091E0980F873009F456C015
:101C400090937C008091530190917C0021E030E0E2
:101C500001C0220F9A95EAF7822349F0809342014E
:101C600010923D0110923C0181E080933E019091E1
:101C7000530180917D00981709F496C0809153011B
:101C800080937D00882309F45EC00E94F60F0E94B5
:101C9000111481E00E949B0882E0809338019398A0
:101CA00085E0E2EEF2E0A2E3B1E001900D928A95C8
:101CB000E1F70E948B0C86E0E7EAF0E0DE01119686
:101CC00001900D928A95E1F7298121603A814B813B
:101CD0005C816D817E8184E026960FB6F894DEBF2C
:101CE0000FBECDBFDF91CF910C948E0910927C0076
:101CF000A9CF813009F0BBCF80915301082E000C91
:101D0000990B20917C0002C0959587952A95E2F762
:101D100080FF16C08091390180FFA9CF80913C01DE
:101D200090913D010196803D27E0920728F4909321
:101D30003D0180933C019BCF10923D0110923C01EC
:101D400010923E0194CF10923801809143018A7F16
:101D50008160809343018091E7028E7F8093E70248
:101D6000939A109237018FEF809331011092950072
:101D7000109296001092970010929800109299007D
:101D800010929A0010922D0110922E0110922F01A4
:101D90001092300126960FB6F894DEBF0FBECDBF6D
:101DA000DF91CF910C94270D26960FB6F894DEBFE5
:101DB0000FBECDBFDF91CF91089586EF85BB08950B
:101DC00085EF85BB089584EF85BB089588EF85BBBB
:101DD000089580EF85BB089583EF85BB089582EF5A
:101DE00085BB08958EEF85BB0895FEEF82E0E2EF9C
:101DF00073EF60EF58EF44EF35EF26EFF5BBAFE040
:101E0000BEE01197F1F700C0000092B3982792BB93
:101E1000E5BBAFE0BEE01197F1F700C0000092B360
:101E2000982792BB75BBAFE0BEE01197F1F700C0F9
:101E3000000092B3982792BB65BBAFE0BEE011975C
:101E4000F1F700C0000092B3982792BB55BBAFE0FA
:101E5000BEE01197F1F700C0000092B3982792BB43
:101E600045BBAFE0BEE01197F1F700C0000092B3B0
:101E7000982792BB35BBAFE0BEE01197F1F700C0E9
:101E8000000092B3982792BB25BBAFE0BEE011974C
:101E9000F1F700C0000092B3982792BBAFCF2EEFAE
:101EA00032EF43EF50EF68EF74EFE5EFF6EF82E3C8
:101EB00090E025BBAFE0BEE01197F1F700C0000055
:101EC00035BBAFE0BEE01197F1F700C0000045BBA5
:101ED000AFE0BEE01197F1F700C0000055BBAFE0E6
:101EE000BEE01197F1F700C0000065BBAFE0BEE0B7
:101EF0001197F1F700C0000075BBAFE0BEE011978D
:101F0000F1F700C00000E5BBAFE0BEE01197F1F7CC
:101F100000C00000F5BBAFE0BEE01197F1F700C0D4
:101F20000000019731F6000085B3856F85BBBFEFD8
:101F300083ED90E3B15080409040E1F700C0000095
:101F4000B6CF26EF35EF44EF58EF60EF73EFE2EFD7
:101F5000FEEF82E390E025BBAFE0BEE01197F1F722
:101F600000C0000035BBAFE0BEE01197F1F700C044
:101F7000000045BBAFE0BEE01197F1F700C00000E4
:101F800055BBAFE0BEE01197F1F700C0000065BBA4
:101F9000AFE0BEE01197F1F700C0000075BBAFE005
:101FA000BEE01197F1F700C00000E5BBAFE0BEE076
:101FB0001197F1F700C00000F5BBAFE0BEE011974C
:101FC000F1F700C00000019731F6000085B3856F7E
:101FD00085BBBFEF83ED90E3B15080409040E1F7C7
:101FE00000C00000B6CF80914D01089581E080933C
:101FF0004D0108959C01892BB1F081E037FD8FEFF1
:1020000080934C0130934B0120934A011092490177
:1020100010924801633021F4109251011092500146
:1020200060934D01089510924D01089580914601ED
:10203000909147010895E6E4F1E081E0868380EB2A
:102040009DE1958384831382128282E087830895C1
:1020500090917E00890F883064F010927E00E091AC
:102060007E00EE0FFF0BE158FF4F0190F081E02D55
:10207000099487FD03C080937E00F1CF87E0FBCFFA
:1020800080914D01833009F060C080914A019091A8
:102090004B01892B81F180914C010E9428102091E5
:1020A0004C018091480190914901820F911D27FDBB
:1020B0009A959093490180934801879909C080912E
:1020C00050019091510101969093510180935001DC
:1020D000209148013091490180914A0190914B0132
:1020E00028173907D9F4109247011092460110922F
:1020F0004B0110924A0180915001909151018897B3
:10210000D8F0809153018D7F809353018091E70235
:1021100081608093E70281E080934D0180914D01C1
:10212000813049F485B3856F85BB10924B011092C5
:102130004A0110924D01089580915301826080936D
:1021400053018091E7028E7FE4CF80914D01823070
:1021500009F050C080914A0190914B01892BF1F216
:1021600080914C010E94281020914C0180914801DF
:1021700090914901820F911D27FD9A9590934901F5
:102180008093480120914C01809146019091470134
:10219000820F911D27FD9A959093470180934601E8
:1021A000879B1BC0209148013091490180914A01D1
:1021B00090914B012817390709F0B0CF10924B01CD
:1021C00010924A018091E7028E7F8093E70280910E
:1021D00053018260809353019ECF10924B01109265
:1021E0004A018091E70281608093E7028091530168
:1021F0008D7FF0CF80914D01843009F08FCF809199
:102200004A0190914B01892B09F485CF80914C01B3
:102210000E94281020914C01809148019091490121
:10222000820F911D27FD9A95909349018093480153
:1022300020914C018091460190914701820F911DA0
:1022400027FD9A959093470180934601209148017C
:102250003091490180914A0190914B01281739072B
:1022600009F05CCF10924B0110924A0154CF1F939A
:10227000209146013091470160E971E0182F160363
:10228000A001179F500D112464E0CA01821B930B1B
:102290001F910C94FA0F90914D0181E0911180E013
:1022A0000895C1E000E911E0D4E0EE24E394F12CBC
:1022B00080914E0190914F01009789F4C0934C0199
:1022C00010934B0100934A0110924901109248016A
:1022D000D0934D01F0924F01E0924E01E9CF01976A
:1022E00039F70E944B11882319F32FEF83ED90E308
:1022F000215080409040E1F700C0000010924F0153
:1023000010924E01D5CF109245010895CF93C09100
:102310004501C1111BC0879915C081E080934C0114
:1023200020E233E030934B0120934A01109249019F
:102330001092480194E090934D01809345018C2FB9
:10234000CF9108950E941B1082E0F7CFC13071F445
:102350000E944B11811102C0C0E0F1CF0E941B10FE
:10236000809145018F5F80934501F6CFC230E9F43B
:102370000E944B11882381F38091530181FD20C07D
:1023800081E080934C0180E991E090934B01809330
:102390004A01109249011092480110925101109285
:1023A000500183E080934D01DBCFC330A9F60E943A
:1023B0004B11882389F280915301C2E081FFC1E073
:1023C00010924501BCCF82E390E051E048E034E058
:1023D00022E055BBEFEDFEE23197F1F700C00000BF
:1023E00045BBEFEDFEE23197F1F700C0000035BBD1
:1023F000EFEDFEE23197F1F700C0000025BBEFEDF5
:10240000FEE23197F1F700C00000019711F7FFCF0E
:1024100081E080934C0188EE93E090934B01809390
:102420004A01109249011092480184E080934D01C5
:1024300089B7846089BF7894FFCFCF93DF9300D0B2
:1024400000D00F92CDB7DEB744E1489F9001499F7D
:10245000300D11242D5A3E4FD90155968D919D91E5
:102460000D90BC91A02D89839A83AB83BC83B1E08E
:10247000BD8320E030E0A90169817A818B819C8154
:102480000E94DF1818160CF01D828D810F900F909E
:102490000F900F900F90DF91CF9108950E9416102A
:1024A00060E971E00E94EB16862F089510925201A8
:1024B0000895CF93C82F80915201811119C082E0F5
:1024C000C1112EC00E9416109C01892BE9F0213900
:1024D0003A414CF481E10E94371184E0809352012B
:1024E0008C2FCF91089582E10E94371181E0F6CFC1
:1024F000813071F40E944B11811102C0C0E0F0CF15
:10250000109247011092460110925201C1E0E8CFAB
:10251000823049F48C2F0E943711809152018F5FD5
:1025200080935201EBCF833029F40E944B1181112B
:10253000EBCFE4CF843051F40E944B118823F1F2A9
:1025400063E080E991E00E94FA0FE7CF8530B1F6B1
:10255000ECCF1F93CF93DF9300D000D000D0CDB746
:10256000DEB760E070E080E090E01E821D8214E142
:102570002D813E81129FF001139FF00D1124ED5A21
:10258000FE4F258936894789508D69837A838B83ED
:102590009C8369817A818B819C810E9414172D8193
:1025A0003E812F5F3F4F3E832D832231310501F75E
:1025B00069837A838B839C8369817A818B819C81F7
:1025C00026960FB6F894DEBF0FBECDBFDF91CF9138
:1025D0001F9108951F93CF93DF93D0E0C0E010E0E8
:1025E000CE010E941D1281111F5F2196C231D105BB
:1025F000B9F7812FDF91CF911F9108958F929F920C
:10260000AF92BF92CF92DF92EF92FF920F931F9300
:10261000CF93DF9300D000D00F92CDB7DEB780E02C
:1026200090E0A0E7B2E48093580190935901A09301
:102630005A01B0935B0110E000E091E0E92E90E0D8
:10264000F92E1D822AE9822E29E9922EA92C2EE349
:10265000B22EC70124E0E20EF11C0E949519462F0C
:10266000572FBC0134E1309FC001319F900D1124E0
:10267000DC01AD5ABE4F6D01FD01458B568B678B5A
:10268000708F55968D919D910D90BC91A02D898351
:102690009A83AB83BC8320E030E040E451E4BC018A
:1026A000CD010E94DF1818165CF480E090E0A0E4F1
:1026B000B1E4F601858B968BA78BB08FF1E0FD839B
:1026C00024E1209FC001219F900D1124DC01AD5A0F
:1026D000BE4F6D0155968D919D910D90BC91A02D91
:1026E00089839A83AB83BC8320E030E0A901BC01DD
:1026F000CD010E94801787FF0CC001116EC080922F
:10270000680190926901A0926A01B0926B01B1E0F8
:10271000BD830F5F1F4F0231110509F09ACF80E092
:1027200090E00E948D198093D0028091D002843075
:102730002CF083E08093D00221E02D838091D002A1
:1027400087FF04C01092D00231E03D83E091D002B7
:102750000E2E000CFF0BE355FF4F80818093D102BA
:102760000E94EA128093D6028D818130F1F51A829F
:10277000198201E010E084E1F82EA981BA81FA9E65
:10278000F001FB9EF00D1124ED5AFE4F458956894C
:102790006789708DC8010C5F1F4F0E94AC19E981D9
:1027A000FA813196FA83E983729739F76091D00202
:1027B00080E090E00F900F900F900F900F90DF91BE
:1027C000CF911F910F91FF90EF90DF90CF90BF902E
:1027D000AF909F908F900C949B19F601158A168AE2
:1027E000178A108EF1E0FD8394CF0F900F900F9019
:1027F0000F900F90DF91CF911F910F91FF90EF906D
:10280000DF90CF90BF90AF909F908F90089590935E
:10281000EC028093EB0208958091EB029091EC0220
:102820000895EBEEF2E011821082128296980895DC
:102830002091EB023091EC022115310511F480E07A
:102840005BC08091ED0281110EC0969A1092EA024F
:102850001092E90291E09093ED029091E502906868
:102860009093E5020895813011F58091390180FF40
:10287000E6CFE091E902F091EA02CF010196E1335F
:10288000F10529F09093EA028093E902D8CF1092E3
:10289000EA021092E90282E08093ED0281818F7B4F
:1028A00081838091E5028F778093E502C8CF8230E3
:1028B00031F68091390180FFC2CF8091E902909179
:1028C000EA02AC014F5F5F4F8A34910529F05093C3
:1028D000EA024093E902B3CF1092EA021092E902B1
:1028E0001092ED02215031093093EC022093EB025B
:1028F00081E0232B09F0A3CF089581E02091EB0222
:102900003091EC02232B09F080E008959BBD8ABD35
:102910000895CF93DF9300D000D0CDB7DEB780917C
:102920009400813089F580913701813059F52091EB
:10293000930029832231B4F5822F082E000C990BC5
:102940009A83898301960E947C0884E1A981BA81D7
:102950008A9FF0018B9FF00D1124ED5AFE4F85895F
:102960009689A789B08D89839A83AB83BC8320E045
:1029700030E0A901BC01CD010E94801781110BC07C
:102980000E94DE06109294000F900F900F900F900F
:10299000DF91CF91089569817A818B819C810E941A
:1029A0000108F0CF0E94D7068091D102082E000CBA
:1029B000990B0E947608E6CFCF93DF9300D000D02A
:1029C00000D0CDB7DEB71BBA18BA15BA12BA9398B1
:1029D0008B9A96988E9AA29AA09AA39AA19A8F9867
:1029E000BF988C9800000000979A00000000C79ADA
:1029F00000000000949A0E94B1090E94270D0E94D5
:102A00001A060E94FE120E94A20C0E94DF0C809106
:102A10004301887F836080934301109237011092B5
:102A2000380181E00E94B4010E94AC0C8093310116
:102A30001DBC1CBC83E690E097BD86BD82E290E0A1
:102A40000E9486148AE18EBD82EC8FBD89B78460B6
:102A500089BF7894E12CF12CD12C1FEF83E1C82E93
:102A60008091440180FF0AC0809144018E7F809351
:102A7000440180913901816080933901D1100DC0EA
:102A80000E948611DD24D394811101C0D12C809144
:102A900039018E7F80933901E3CF8091390180FF26
:102AA0000EC0F39424E1F21203C00E94580CF12CE2
:102AB000E39483E0E81203C00E944306E12C0E94E5
:102AC000C90D0E94AC0C082F80913801811143C1BF
:102AD0009091430192FD1CC0002309F481C090FF36
:102AE00006C09C7F9260909343010E94B401809144
:102AF000370181110BC080913101801739F00093AB
:102B00003101002309F474C00E948D010E94C601A6
:102B100084E00E940D0A082F80914101801769F01E
:102B2000002309F468C080914301846080934301CD
:102B300080E00E949B0800934101809195008130C4
:102B400071F58091390180FF2AC0809196009091A3
:102B50009700A0919800B09199000196A11DB11D18
:102B60008093960090939700A0939800B09399005B
:102B700080319742A105B10590F010929500109216
:102B8000960010929700109298001092990010925F
:102B90009A0010939300109237011093310180E056
:102BA0000E940D0A882309F448C0809193008F5F2A
:102BB0008093930083310CF452C0109393001092D1
:102BC00037011093310110929500109296001092E7
:102BD0009700109298001092990010929A0055C098
:102BE00091FF85CF9C7F91609093430181E07DCFE1
:102BF0000E9482088BCF81E00E949B088091430154
:102C00008A7F8160809343018091370181110FC0D9
:102C10001093310110929500109296001092970037
:102C2000109298001092990010929A0084CF8130EF
:102C300009F081CF809394007ECF81E00E940D0A3D
:102C4000882319F1809193008F3F11F4C092930073
:102C50008091930081508093930087FDB0CF81E0F5
:102C6000809337018093940080919A00811105C070
:102C700081E08093950080939A00109296001092C4
:102C80009700109298001092990080E00E94210A0B
:102C900081E00E94210A82E00E94020A811108C09C
:102CA00082E00E940D0A882319F082E00E94210A26
:102CB00083E00E94020A811108C083E00E940D0A8D
:102CC000882319F083E00E94210A82E00E94020A10
:102CD0008130D1F582E00E940D0A8823A9F183E0BA
:102CE0000E94020A082F813079F583E00E940D0AC4
:102CF000882351F182E00E94210A83E00E94210A88
:102D00000E9411140E94F60F0093380182E0809314
:102D1000370180E00E94C603939886E0E7EAF0E07E
:102D2000DE01119601900D928A95E1F729812160CB
:102D300029833A814B815C816D817E8184E00E9490
:102D40008E0981E00E943A060E9489140E94CA08F6
:102D50000E9418149CCE813001F50E94CC03882378
:102D6000C9F010923801809143018A7F816080937D
:102D70004301109237011093310110929500109287
:102D8000960010929700109298001092990010925D
:102D90009A00939A0E943309DBCF8230C9F6011161
:102DA00017C084E00E940D0A882391F0109253010D
:102DB0001092950010929600109297001092980031
:102DC0001092990010929A00F89488E081BDFFCF8C
:102DD0000E948B0CBDCF97FB072E16F4009407D0F2
:102DE00077FD09D00E94FF1607FC05D03EF49095B0
:102DF00081959F4F0895709561957F4F0895AA1B07
:102E0000BB1B51E107C0AA1FBB1FA617B70710F0D5
:102E1000A61BB70B881F991F5A95A9F78095909507
:102E2000BC01CD0108955058BB27AA270E942B173B
:102E30000C94A5180E94971838F00E949E1820F054
:102E400039F49F3F19F426F40C9494180EF4E0958D
:102E5000E7FB0C948E18E92F0E94B61858F3BA17A6
:102E6000620773078407950720F079F4A6F50C94A0
:102E7000D8180EF4E0950B2EBA2FA02D0B01B90136
:102E800090010C01CA01A0011124FF27591B99F0E0
:102E9000593F50F4503E68F11A16F040A22F232FEC
:102EA000342F4427585FF3CF469537952795A7953C
:102EB000F0405395C9F77EF41F16BA0B620B730BE3
:102EC000840BBAF09150A1F0FF0FBB1F661F771F54
:102ED000881FC2F70EC0BA0F621F731F841F48F409
:102EE000879577956795B795F7959E3F08F0B0CF92
:102EF0009395880F08F09927EE0F97958795089579
:102F00000E946A1808F481E008950E9499170C94B1
:102F1000A5180E949E1858F00E94971840F029F4B6
:102F20005F3F29F00C948E1851110C94D9180C9411
:102F300094180E94B61868F39923B1F3552391F3BE
:102F4000951B550BBB27AA2762177307840738F018
:102F50009F5F5F4F220F331F441FAA1FA9F335D075
:102F60000E2E3AF0E0E832D091505040E695001C29
:102F7000CAF72BD0FE2F29D0660F771F881FBB1FE3
:102F8000261737074807AB07B0E809F0BB0B802DC1
:102F9000BF01FF2793585F4F3AF09E3F510578F0ED
:102FA0000C948E180C94D9185F3FE4F3983ED4F338
:102FB000869577956795B795F7959F5FC9F7880FC1
:102FC000911D9695879597F90895E1E0660F771F13
:102FD000881FBB1F621773078407BA0720F0621BA4
:102FE000730B840BBA0BEE1F88F7E09508950E94CF
:102FF000FE176894B1110C94D91808950E94BE1858
:1030000088F09F5798F0B92F9927B751B0F0E1F0A9
:10301000660F771F881F991F1AF0BA95C9F714C059
:10302000B13091F00E94D818B1E008950C94D818EE
:10303000672F782F8827B85F39F0B93FCCF3869592
:1030400077956795B395D9F73EF4909580957095EF
:1030500061957F4F8F4F9F4F0895E89409C097FB6C
:103060003EF490958095709561957F4F8F4F9F4F5F
:103070009923A9F0F92F96E9BB279395F6958795A3
:1030800077956795B795F111F8CFFAF4BB0F11F466
:1030900060FF1BC06F5F7F4F8F4F9F4F16C088230D
:1030A00011F096E911C0772321F09EE8872F762F43
:1030B00005C0662371F096E8862F70E060E02AF084
:1030C0009A95660F771F881FDAF7880F9695879570
:1030D00097F90895990F0008550FAA0BE0E8FEEF45
:1030E00016161706E807F907C0F012161306E407CC
:1030F000F50798F0621B730B840B950B39F40A26C5
:1031000061F0232B242B252B21F408950A2609F4A2
:10311000A140A6958FEF811D811D089597F99F67A6
:1031200080E870E060E008959FEF80EC089500244F
:103130000A941616170618060906089500240A941C
:1031400012161306140605060895092E0394000CA2
:1031500011F4882352F0BB0F40F4BF2B11F460FF31
:1031600004C06F5F7F4F8F4F9F4F089557FD90585A
:10317000440F551F59F05F3F71F04795880F97FB3B
:10318000991F61F09F3F79F08795089512161306F5
:103190001406551FF2CF4695F1DF08C01616170624
:1031A0001806991FF1CF8695710561050894089559
:1031B000E894BB2766277727CB0197F908950E94EB
:1031C0006A1808F48FEF08950E94F7180C94A51858
:1031D0000E94971838F00E949E1820F0952311F055
:1031E0000C948E180C94941811240C94D9180E94E5
:1031F000B61870F3959FC1F3950F50E0551F629F6D
:10320000F001729FBB27F00DB11D639FAA27F00D3F
:10321000B11DAA1F649F6627B00DA11D661F829F66
:103220002227B00DA11D621F739FB00DA11D621F4B
:10323000839FA00D611D221F749F3327A00D611D68
:10324000231F849F600D211D822F762F6A2F11244A
:103250009F5750409AF0F1F088234AF0EE0FFF1F7D
:10326000BB1F661F771F881F91505040A9F79E3FD4
:10327000510580F00C948E180C94D9185F3FE4F33C
:10328000983ED4F3869577956795B795F795E7952A
:103290009F5FC1F7FE2B880F911D9695879597F933
:1032A0000895DC0101C06D9341505040E0F708954E
:1032B000BB274A3031F4992322F4BDE290958195E1
:1032C0009F4F0C946419BB27FB015527AA27880F31
:1032D000991FAA1FA41710F0A41B83955051B9F78A
:1032E000A05DAA3308F0A95DA193009779F7B11109
:1032F000B1931192CB010C947D19DC01FC01672F75
:1033000071917723E1F7329704C07C916D937083BC
:103310006291AE17BF07C8F30895E199FECF9FBB36
:103320008EBBE09A99278DB30895A6E1B0E044E002
:1033300050E00C94BA19262FE199FECF9FBB8EBBAB
:10334000E09A01970DB2021631F02DBB0FB6F8943A
:10335000E29AE19A0FBE08950396272F0E949C19C6
:103360000E949B19252F0E949C19242F0C949C19B4
:10337000DC01CB01FC01E199FECF06C0FFBBEEBB37
:10338000E09A31960DB20D9241505040B8F7089531
:04339000F894FFCFDF
:10339400000086430000A040060608060A060C0644
:1033A4000E0610061206140616061806FFFFFFDDA9
:1033B4000EE00EE30EE60EE90EEC0EEF0EF20ECD6D
:1033C400CCCC3DFF0000000000000000403F065B45
:1033D4004F666D7C077F6700000000000016202EFA
:0C33E40044220028002F0035003B0000B0
:00000001FF
