:100000000C942A000C9447000C9447000C94470071
:100010000C9447000C9447000C9447000C94470044
:100020000C9447000C947D0D0C9447000C944700F1
:100030000C9447000C9447000C9447000C94470024
:100040000C9447000C9447000C9447000C94470014
:100050000C94470011241FBECFE5D8E0DEBFCDBF12
:1000600010E0A0E6B0E0EEE6F2E302C005900D92EB
:10007000AC3BB107D9F722E0ACEBB0E001C01D9278
:10008000A23FB207E1F70E94FA130C9435190C94C1
:1000900000008F929F92AF92BF92FF920F931F9397
:1000A000CF93DF9300D000D000D0CDB7DEB7209142
:1000B0006000309161004091620050916300609156
:1000C00064007091650080916600909167000E94C5
:1000D000F216462F572FBC014093580150935901F7
:1000E00060935A0170935B0180E090E0A0E7B2E476
:1000F00080935C0190935D01A0935E01B0935F01DA
:1001000080E090E0A0E8BFE38093600190936101FC
:10011000A0936201B093630180915C0190915D01B5
:10012000A0915E01B0915F0189839A83AB83BC8308
:100130002091600130916101409162015091630111
:10014000BC01CD010E94F216462F572FBC014093EF
:1001500068015093690160936A0170936B0180910B
:10016000600190916101A0916201B0916301898366
:100170009A83AB83BC8320E030E040E752E4BC01CB
:10018000CD010E94511820E030E04AE754E4698331
:100190007A838B839C8369817A818B819C810E9485
:1001A000511869837A838B839C8369817A818B81DF
:1001B0009C810E946B17462F572FBC01409364010E
:1001C00050936501609366017093670110E000E051
:1001D00084E1F82EC8010E943311882309F483C0FA
:1001E000F09ED001F19EB00D1124A95ABE4FBE83DE
:1001F000AD8355968D919D910D90BC91A02D8983D5
:100200009A83AB83BC83209158013091590140916E
:100210005A0150915B018090680190906901A09013
:100220006A01B0906B01BC01CD010E94F216A501DC
:10023000940169837A838B839C8369817A818B8122
:100240009C810E94F216462F572FBC01ED81FE8142
:10025000418F528F638F748F818D928DA38DB48D5A
:1002600089839A83AB83BC8320E030E040E85FE37E
:10027000BC01CD010E944C1887FD2AC0AD81BE8112
:1002800059968D919D910D90BC91A02D89839A8353
:10029000AB83BC83BC01CD010E946B1769837A8359
:1002A0008B839C83A981BA81CD01B0E0A0E08983D2
:1002B0009A83AB83BC83BC01CD010E949A17462F61
:1002C000572FBC01ED81FE81458F568F678F70A33C
:1002D000F09EF001F19EF00D1124E95AFE4F11A29B
:1002E00012A213A214A20F5F1F4F0231110509F0D1
:1002F00071CF1092E4021092E30226960FB6F894A2
:10030000DEBF0FBECDBFDF91CF911F910F91FF9048
:10031000BF90AF909F908F900895CF93DF9300D0C0
:1003200000D0CDB7DEB780913701811116C084E1CE
:1003300090E00E947B080E94BF1169837A838B83BF
:100340009C8369817A818B819C810F900F900F90A3
:100350000F90DF91CF910C9400080F900F900F90A9
:100360000F90DF91CF91089581110BC00E949D10D5
:1003700081E08093C0000E9449000E9427130C94E2
:10038000F00E8130D1F71092C000F7CF0F931F937A
:10039000CF93DF93CDB7DEB72A970FB6F894DEBFC1
:1003A0000FBECDBF8091C0001816CCF4813031F55E
:1003B0000E946510882399F01092C1008091460137
:1003C00090914701892BB1F483E08093C000109293
:1003D000BC001092BD001092BE001092BF002A9681
:1003E0000FB6F894DEBF0FBECDBFDF91CF911F9146
:1003F0000F9108958091C0008F5FE7CF823041F464
:100400000E94A010882359F38091C0008F5F33C0F1
:100410009091390190FF14C04091BC005091BD00F3
:100420006091BE007091BF004F5F5F4F6F4F7F4F75
:100430004093BC005093BD006093BE007093BF001A
:10044000833059F58091C10082313CF4082E000CB4
:10045000990B0E943311882389F08091C100823169
:10046000C1F40E946411813179F463E080E991E084
:100470000E94F40E87E08093C000B1CF8091C1004C
:100480008F5F8093C100DECF81E10E94511086E032
:10049000F2CF0E94511084E0EECF843009F003C106
:1004A0000E946510882309F49ACF2091C100298306
:1004B000022F022E000C110BA4E12A02C00111240C
:1004C000895A9E4F9E838D83FC0110A617A2218D11
:1004D000328D438D548D81A192A1A3A1B4A18983B2
:1004E0009A83AB83BC83BC01CD010E948116462F49
:1004F000572FBC01ED81FE8141A352A363A374A3D6
:1005000081A192A1A3A1B4A189839A83AB83BC8367
:10051000258D368D478D50A1BC01CD010E944C1810
:1005200087FDBCC0AD81BE8191968D919D910D904E
:10053000BC91A02D89839A83AB83BC83ED81FE811E
:10054000258D368D478D50A1BC01CD010E948016AE
:10055000462F572FBC0149835A836B837C8320E04D
:1005600030E040E85FE369817A818B819C810E9461
:100570004C1887FD1CC020E030E040E85FE3698153
:100580007A818B819C810E948016462F572FBC0157
:1005900049835A836B837C83AD81BE8197968D910D
:1005A0009C919897019698969C938E93979784E147
:1005B000809FF001819FF00D1124E95AFE4F89813F
:1005C0009A81AB81BC8181A392A3A3A3B4A3A09180
:1005D000E302B091E402BA87A98780916801909103
:1005E0006901A0916A01B0916B018D839E83AF83F5
:1005F000B887BC01CD010E9464176D837E838F8311
:1006000098878D819E810197A985BA858A179B0756
:10061000C1F420E030E0A90169817A818B819C815D
:100620000E944C1818166CF484E1809FF001819FA1
:10063000F00D1124E95AFE4F87A190A5019690A7CD
:1006400087A384E1809FF001819FF00D1124E95A76
:10065000FE4FFE83ED83858D968DA78DB0A1898396
:100660009A83AB83BC8307A110A5BC01CD010E9476
:100670006B17462F572F400F511FED81FE8150A75A
:1006800047A327A130A585A196A1820F931F96A30A
:1006900085A387A190A50E941D13B6CE19821A8248
:1006A0001B821C8294CF853061F40E949B138823A7
:1006B00009F495CE8091C1008F5F8093C10083E0E3
:1006C000DACE863059F40E946510882309F487CE6B
:1006D00063E080E991E00E94F40E96CE873009F045
:1006E0007ECE0E946510882309F479CE4091640182
:1006F0005091650160916601709167018091BC0025
:100700009091BD00A091BE00B091BF0084179507E5
:10071000A607B70708F463CE1092BC001092BD0084
:100720001092BE001092BF001092C10083E080932F
:10073000C0002091E3023091E4022F5F3F4F3E83DF
:100740002D833093E4022093E3028091680190911D
:100750006901A0916A01B0916B0189839A83AB838F
:10076000BC83BC01CD010E94641769837A838B83AB
:100770009C83AD81BE81E981FA81AE17BF0709F084
:100780002ECE1092E4021092E30229CEE3ECF0E0C8
:10079000818381E080830895DF92EF92FF920F932F
:1007A0001F93CF93DF93CDB7DEB72A970FB6F89498
:1007B000DEBF0FBECDBF8091C200811112C00E946A
:1007C000FF09882309F440C18091C4008F5F833101
:1007D0001CF48093C40002C01092C40081E0809396
:1007E000C30080E00E94130A81E00E94130A82E0A5
:1007F0000E94F409811162C082E00E94FF098823EF
:1008000009F45CC08091C200811155C00091C40000
:1008100002310CF046C1E02E002E000CFF0824E14E
:10082000020280011124095A1E4FD80155968D915C
:100830009D910D90BC91A02D8F839887A987BA8731
:1008400020E030E0A901BC01CD010E94ED1681112C
:1008500008C18AE999E9A9E9BEE3F801858B968B7D
:10086000A78BB08F84E18E9D80018F9D100D112488
:10087000095A1E4FD80155968D919D910D90BC91AE
:10088000A02D8F839887A987BA8720E030E040E4C5
:1008900051E4BC01CD010E944C1887FD09C080E0E5
:1008A00090E0A0E4B1E4F801858B968BA78BB08F24
:1008B00081E08093C30082E00E94130A83E00E94DB
:1008C000F409811160C083E00E94FF09882309F4C4
:1008D0005AC08091C200811153C0F090C400F1E170
:1008E000FF150CF40AC12F2D84E128028001112488
:1008F000095A1E4FD80155968D919D910D90BC912E
:10090000A02D8F839887A987BA8720918F00309177
:1009100090004091910050919200BC01CD010E9445
:100920008016462F572FBC01F801458B568B678BDD
:10093000708FF110CAC080916C0190916D01A091EF
:100940006E01B0916F018F839887A987BA872AE9D2
:1009500039E949E95EE3BC01CD010E94ED1687FF4C
:100960000CC08AE999E9A9E9BEE380936C019093F0
:100970006D01A0936E01B0936F0181E08093C3007D
:1009800083E00E94130A84E00E94FF098823A9F0F3
:1009900084E00E94130A8091C400823174F4909123
:1009A000C20021E0911120E02093C2009111BAC051
:1009B0000E940C0980E00E940F0982E00E94F40965
:1009C000813009F4B3C0F12C8091C300813069F506
:1009D00080913701823039F50091C40002310CF06A
:1009E0000BC1002E000C110BC80101960E947B0860
:1009F00084E1809FF001819FF00D1124E95AFE4FA0
:100A000085899689A789B08D8F839887A987BA87AA
:100A100020E030E0A901BC01CD010E94ED1681115A
:100A2000E4C00E94DD061092C3008F2D2A960FB6F7
:100A3000F894DEBF0FBECDBFDF91CF911F910F9114
:100A4000FF90EF90DF90089581E00E94FF098823D6
:100A500009F4C7CE8091C400815087FFBACE82E1ED
:100A6000B8CED80155968D919D910D90BC91A02D39
:100A70008F839887A987BA8720918F003091900043
:100A80004091910050919200BC01CD010E948116CD
:100A9000462F572FBC01F801458B568B678B708F03
:100AA000E1CE8091D4028F5F8093D402843014F021
:100AB0001092D402E091D4020E2E000CFF0BE355ED
:100AC000FF4F80818093D502F3CE85899689A789CF
:100AD000B08D8F839887A987BA872AE939E949E9D0
:100AE0005EE3BC01CD010E94ED1687FF46CFF80101
:100AF000158A168A178A108E40CF8091D4028150B1
:100B00008093D40287FF03C083E08093D402E091F6
:100B1000D4020E2E000CFF0BE355FF4F8081809313
:100B2000D5022BCF81E08093C30045CF82E00E94A5
:100B3000FF09882309F447CF83E00E94F40981303C
:100B400009F041CF83E00E94FF09882309F43BCFDD
:100B500082E00E94130A83E00E94130A10E000E082
:100B600081E0E82E80E0F82E94E1D92ED09EF001AD
:100B7000D19EF00D1124E95AFE4F458956896789A7
:100B8000708DC701F4E0EF0EF11C0E9419190F5F80
:100B90001F4F0231110551F76091D40280E090E0BF
:100BA0000E9408190E9400128093DA021092C2007B
:100BB00081E00E940F0986E0E7EAF0E0DE0111968D
:100BC00001900D928A95E1F72981286029833A8165
:100BD0004B815C816D817E8184E00E94800980E090
:100BE0000E943A06FF24F394EFCE6F8178858985C1
:100BF0009A850E94000817CF0E94D6068091D502E0
:100C0000082E000C990B0E9475080DCFC49808950A
:100C1000C49A0895C3980895C39A0895C2980895F0
:100C2000C29A0895C1980895C19A0895C0980895E8
:100C3000C09A0895CF93DF931092E9021092EA02CE
:100C40001092E6021092E7021092E8028FEF8ABB40
:100C5000C8E6D0E0E881F9810995249680E0CC3798
:100C6000D807C1F7BC9ABB9ABA9AB99AB89ADF91D9
:100C7000CF9108958093C9001092C8001092C700C8
:100C80001092C6000895EF92FF920F931F93CF9397
:100C9000DF93E091C500E150E7FDE4E024E0E202EB
:100CA000F0011124E859FF4F0190F081E02D0995E2
:100CB000E091C500E3300CF058C08091C90081116B
:100CC00008C00E2E000CFF0BEA51FD4F80818BBB3C
:100CD0001BC08091C7009091C80001969093C800F6
:100CE0008093C700C29758F09091C6001092C80038
:100CF0001092C70081E0911180E08093C60080913E
:100D0000C6008823F1F21BBA2091C50081E090E073
:100D10007C0102C0EE0CFF1C2A95E2F708E610E009
:100D2000D0E0C0E0C7010C2E02C0959587950A94CB
:100D3000E2F7D80180FF20C01296ED91FC91099551
:100D400021960C5F1F4FC530D10561F78091C5001A
:100D500091E0980F843099F09093C500DF91CF9186
:100D60001F910F91FF90EF900895E3500E2E000C0D
:100D7000FF0BE751FD4FAACFED91FC91E0CF109210
:100D8000C500ECCF462F67FD40E0042E000C550B4C
:100D900070E060E00C94BE1862E089EE92E00C9482
:100DA000C20663E086EE92E00C94C2068CE5809366
:100DB000EA0286E18093E90208958FE38093E802D6
:100DC00081E78093E7028093E602089581E78093AC
:100DD000E8028093E7028093E602089581E780931A
:100DE000E80288E38093E7028EE38093E6020895A9
:100DF00084E58093EA028CE58093E9028FE3809397
:100E0000E80280E38093E70288E38093E602089596
:100E10003F924F925F926F927F928F929F92AF928A
:100E2000BF92CF92DF92EF92FF920F931F93CF93D7
:100E3000DF93CDB7DEB72E970FB6F894DEBF0FBEA7
:100E4000CDBF5C01862EF22EE32ED42EC52E362E7B
:100E5000412C512C20E8622E3FE3932E3A948FEFE1
:100E600038128AC02F2D3E2D4D2D5C2D4B865C8671
:100E70006D869E866B857C858D859E850E94ED1690
:100E8000181674F020E030E040E85FE36B857C8565
:100E90008D859E850E948016F62EE72ED82EC92EAF
:100EA000682DC5010E94C206912C612C512C80E84E
:100EB000482E9FE3392E891494F1262D352D442D8B
:100EC000532DFB86EC86DD86CE866B857C858D85F5
:100ED0009E850E94ED1687FF6FC098140CF05EC0CF
:100EE00020E030E040E251E46B857C858D859E8575
:100EF0000E9451186B877C878D879E876B857C85C8
:100F00008D859E850E9464178B01911003C08FE32D
:100F1000F5018183F501818180688183792C4AE024
:100F2000BE016F5F7F4FC8010E94C51880E0972DFA
:100F3000981BE1E0F0E0EC0FFD1FE80FF11D87FDCD
:100F4000FA95E081E1114CC02E960FB6F894DEBF01
:100F50000FBECDBFDF91CF911F910F91FF90EF900A
:100F6000DF90CF90BF90AF909F908F907F906F90C9
:100F70005F904F903F90089520E030E040E251E4D0
:100F80004B865C866D869E866B857C858D859E8571
:100F90000E9451182B01682E992E60CFFB86EC869B
:100FA000DD86CE866B857C858D859E850E94641747
:100FB0008B0177247A94790C20E030E040E251E410
:100FC0006B865C864D863E866B857C858D859E8591
:100FD0000E945118662E572E482E392E93946BCFAF
:100FE000D501A90FB11D97FDBA950E2E000CFF0B70
:100FF000E359FF4F9C912081922B9C938F5F97CF59
:101000009B01AC0163E086EE92E00C9408079B0123
:10101000AC0162E089EE92E00C940807CF92DF9277
:10102000EF92FF921F93CF93DF93CDB7DEB72A974E
:101030000FB6F894DEBF0FBECDBF7C01162FCA01DC
:10104000462F21E030E05AE04150C0F58217930767
:1010500014F0C90101974AE09E012F5F3F4F6901DB
:10106000B9010E94C518412F17FD40E0042E000C65
:10107000550B70E060E0C7010E94BE18F6010190B8
:101080000020E9F7EC198EEF8E0F90E0282F291B36
:10109000F601E90FF11D97FDFA95E081E11115C008
:1010A0002A960FB6F894DEBF0FBECDBFDF91CF9169
:1010B0001F91FF90EF90DF90CF900895B901569F58
:1010C0009001579F300D1124BFCFD701A20FB11D42
:1010D00027FDBA950E2E000CFF0BE359FF4F2C9104
:1010E0003081232B2C939F5FD1CFAC0163E086EE40
:1010F00092E00C940E08AC0162E089EE92E00C9450
:101100000E0884E190E00E947B0880E48093E8026E
:101110008093E7028093E602089585E190E00E94C3
:101120007B0889E78093E80280E58093E70280935B
:10113000E602089581111BC00E94CC060E94EE06B3
:101140000E940A0F60E971E00E945816892B49F449
:101150006093CB0082E08093CA000E9427130C9416
:10116000F00E6F5F6231A4F31092CB00F3CF8130A9
:10117000A1F71092CA00F1CF8091CA00181694F41A
:101180000E946510882371F08091CA00813071F44B
:101190008091CB008F5F823134F48093CB0082E06A
:1011A0008093CA0008951092CB00F9CF823051F499
:1011B0008091CB000E946F118823A1F38091CA0017
:1011C0008F5FEECF8330A9F40E946510882351F31E
:1011D0008091CB00082E000C990B0E943311909146
:1011E000CA00882321F09F5F9093CA00089592500F
:1011F000FBCF843049F40E946510882399F281E086
:1012000090E00E941D13DACF853061F60E949B1397
:10121000882341F281E0C4CF8093CE0008958111EC
:101220000FC00E94EE0681E08093CF000E946C11F7
:101230001092CD001092CC000E9427130C94F00E57
:101240008130D1F71092CF00F7CF8091CF001816E0
:101250005CF4813051F40E946510882329F080915C
:10126000CF008F5F8093CF000895823071F480911A
:10127000CE00082E000C990B0E9433118823A1F395
:101280008091CE000E946F11E8CF8330B9F40E94A4
:101290006510882349F381E090E00E941D1380913E
:1012A000CF008F5F8093CF008091CC009091CD00D4
:1012B00001969093CD008093CC0008958430A1F6E0
:1012C0000E949B13882381F28091CF008150CACF66
:1012D00083B382958170089583B385FB882780F955
:1012E000089583B386FB882780F9089583B3881F08
:1012F0008827881F089580B382FB882780F9089586
:10130000CF93DF9300D000D000D0CDB7DEB72983D4
:101310003A834B835C836D837E8390E1899FD00108
:101320001124A252BF4F86E0FE01319601900D922A
:101330008A95E1F726960FB6F894DEBF0FBECDBFB3
:10134000DF91CF9108951F93CF93DF9300D000D00A
:1013500000D0CDB7DEB7A498A598A698A7988A988C
:10136000AC9AAD9AAE9AAF9A929A88E699E0909329
:10137000D6008093D5008CE699E09093E6008093A8
:10138000E50081E799E09093F6008093F50086E709
:1013900099E090930601809305018BE799E0909383
:1013A00016018093150186E0FE013196DF011D9242
:1013B0008A95E9F789818160898310E029813A81E2
:1013C0004B815C816D817E81812F0E9480091F5F2E
:1013D0001530A1F726960FB6F894DEBF0FBECDBF2D
:1013E000DF91CF911F91089590E1899FF001112421
:1013F000EC51FF4F808182FB882780F9089590E1AE
:10140000899FF0011124EC51FF4F808186958170F6
:10141000089590E1899FF0011124EC51FF4F8081E4
:1014200082608083089590E1899FF0011124EC513E
:10143000FF4F80818D7F8083089590E1899FF00127
:101440001124EB52FF4F0280F381E02D0994EF92BB
:10145000FF920F931F93CF93DF9394E0E92EF12C2B
:101460008AE18A95F1F700C0870184E0000F111F1F
:101470008A95E1F7E801CB52DF4F8C81811113C0CF
:10148000E881F9810995811103C08C818F5F8C837C
:1014900081E0E81AF10820F7DF91CF911F910F91B9
:1014A000FF90EF9008958C818130A9F48D818F5F3A
:1014B0008D83813069F71D82E881F9810995882340
:1014C00019F08C818150E3CFF801EC51FF4F8081FE
:1014D00081608083DACF8C81823031F4E881F981B8
:1014E00009958130A9F6D1CF8C81833089F68D8121
:1014F0008F5F8D83813061F61D82E881F9810995C6
:101500008130F9F6F801EC51FF4F80818E7F8083A6
:101510001C82BECFBF92CF92DF92EF92FF920F93C9
:101520001F93CF93DF9350E040E031E075E0B72E9A
:10153000E4E0CE2EF7E0DF2EA6E0FA2EB8E0EB2EA8
:1015400023E0C9E0DAE012E00BE0CA0164E0880FB2
:10155000991F6A95E1F7FC01EB52FF4F668161111B
:101560003CC06685662369F0E685F0E0E053FF4FF6
:101570006081613031F4FC01EC51FF4F608163FF09
:101580002CC0DC01AC51BF4F6C91762F717060FFA5
:1015900024C0FC01E252FF4F608160FF59C16C9191
:1015A00062606C936081FC01EB52FF4F61FF4EC1A2
:1015B000E682DC01AC51BF4F6C9160616C93FC0121
:1015C000EB52FF4F6685662341F0E685F0E0E0537D
:1015D000FF4F30836C9168606C93FC01EB52FF4FBE
:1015E0006681683060F066816B3048F4DC01AC5194
:1015F000BF4F6C9160FD03C0108617822683FC01EB
:10160000EB52FF4F6681683071F4678170856F5FC0
:101610007F4F70876783A285B3856A177B0718F0B1
:1016200010861782C683DC01AB52BF4F16966C91B1
:101630001697693059F4FC01EC51FF4F608161FD50
:1016400005C06081626060831696DC93FC01EB52FA
:10165000FF4F66816A3071F4678170856F5F7F4FDD
:1016600070876783A485B5856A177B0718F0108695
:101670001782C683DC01AB52BF4F16966C9116974A
:10168000663059F4FC01EC51FF4F608160FD05C0EC
:1016900060816260608316962C93FC01EB52FF4FD1
:1016A0006681673039F4DC01AC51BF4F6C916260E8
:1016B0006C931683FC01EB52FF4F66816430A1F5F9
:1016C000678170856F5F7F4F70876783DC01AC51E6
:1016D000BF4F6C9160FD0EC06781708563337105EB
:1016E00048F4108617826C9162606C936C916B7FEA
:1016F0006C932683FC01EB52FF4F67817085633347
:10170000710590F010861782DC01AC51BF4F6C91CF
:1017100062606C936C9164606C93DC01A252BF4F69
:101720006C9161FDB5C03683FC01EB52FF4F6681C1
:10173000653099F5678170856F5F7F4F708767832C
:10174000DC01AC51BF4F6C9160FD0EC067817085AC
:101750006333710548F4108617826C9162606C9354
:101760006C916B7F6C932683DC01AB52BF4F179655
:101770006D917C9118976436710578F018961C92DB
:101780001E921797FC01EC51FF4F608162606083ED
:1017900060816460608316961C93FC01EB52FF4FDE
:1017A0006681613031F4DC01AC51BF4F6C9160FF58
:1017B0002683DC01AB52BF4F16966C9116976230B0
:1017C00059F4FC01EC51FF4F608160FD05C0608160
:1017D0006D7F608316960C93FC01EB52FF4F668180
:1017E000633031F4DC01AC51BF4F6C9161FF068373
:1017F000FC01EB52FF4F66816B30C1F466856623B6
:1018000059F0E685F0E0E053FF4F1082FC01EC5107
:10181000FF4F6081677F6083FC01EB52FF4F1682B0
:10182000FC01EC51FF4F80818F7E80834F5F5F4FC3
:101830004530510509F089CEDF91CF911F910F916D
:10184000FF90EF90DF90CF90BF9008957683B1CE58
:10185000608162FF05C0FC01EB52FF4FF682A9CE0A
:10186000608163FF05C0FC01EB52FF4FD682A1CE21
:10187000608164FF05C0FC01EB52FF4FC68299CE28
:10188000608165FF96CEFC01EB52FF4FB68291CE90
:10189000D6834ACF0E94270A0C948A0A90E080E0FF
:1018A000FC0124E0EE0FFF1F2A95E1F7EC51FF4FFA
:1018B000208120FD06C001968530910589F781E0E1
:1018C000089580E00895E4EEF0E080818D7F8083CC
:1018D000E4EFF0E080818D7F8083E4E0F1E08081BF
:1018E0008D7F8083E4E1F1E080818D7F8083E4E27D
:1018F000F1E080818D7F808308950C94630C90E0EB
:1019000080E0FC0124E0EE0FFF1F2A95E1F7EC5187
:10191000FF4F208124FD06C001968530910589F78F
:1019200081E0089580E0089580B38295817091E010
:101930008927EBE2F1E0818380830895909128016B
:10194000911110C080B391E0829581708927209118
:101950002C01281721F080932C019093280180916D
:101960002B0108959130D9F78091390180FFF7CF8D
:101970008091270121E0280F833119F0209327015E
:10198000EECF1092270180B320912C0182958F70A9
:1019900089278170281302C020932B0110922801FF
:1019A000DECF86B390E0880F892F881F990BE9E27C
:1019B000F1E081838083089580912601811112C016
:1019C00086B390E0880F892F881F990B20912A01F8
:1019D000281729F080932A0181E0809326018091C5
:1019E000290108958130D9F78091390180FFF7CF1F
:1019F0008091250191E0980F833119F09093250192
:101A0000EECF1092250186B390912A01881F882776
:101A1000881F891302C09093290110922601DFCFFD
:101A200080B3881F8827881F089581E0089581E08A
:101A30000895CF93DF9300D000D000D0CDB7DEB7AC
:101A400086E0E7EAF0E0DE01119601900D928A95BA
:101A5000E1F729812360298389E1382F8A831B825A
:101A60008FE0582F8C831D8281E08E8340E060E000
:101A700071E080E00E94800929813A814B815C817C
:101A80006D817E8181E00E94800986E0E7EAF0E0D6
:101A9000DE01119601900D928A95E1F7298120626D
:101AA00029833A814B815C816D817E8182E00E9435
:101AB000800929813A814B815C816D817E8183E03F
:101AC0000E94800986E0E7EAF0E0DE0111960190CD
:101AD0000D928A95E1F7298128603A814B815C81DA
:101AE0006D817E8184E026960FB6F894DEBF0FBE2E
:101AF000CDBFDF91CF910C9480091F920F920FB64A
:101B00000F9211242F933F934F935F936F937F9383
:101B10008F939F93AF93BF93EF93FF938091400177
:101B200091E0980F8E3009F19093400180913F0130
:101B30008F5F80933F01843139F48091440181604B
:101B40008093440110923F01FF91EF91BF91AF91BB
:101B50009F918F917F916F915F914F913F912F91C5
:101B60000F900FBE0F901F901895109240010E9489
:101B7000340FDCCFCF93DF9300D000D000D0CDB7AF
:101B8000DEB70E94DC0C90912D0191110DC08111E6
:101B900016C08091570181608093570181E0809346
:101BA0002D0110922E010BC0913049F48823B9F019
:101BB000809157018E7F8093570110922D01809163
:101BC0002F0181111CC08091570181FB992790F949
:101BD00081FF26C090932F011092300121C0809187
:101BE000420180FFDECF80912E018111E8CF0E945B
:101BF000F80680912E018F5F80932E01E0CF813017
:101C000079F48091420181FFE7CF80913001811109
:101C100007C00E948D08809130018F5F8093300152
:101C200080913E01811163C080917C0091E0980F0A
:101C3000873009F459C090937C00809157019091AE
:101C40007C0021E030E001C0220F9A95EAF7822360
:101C500049F08093420110923D0110923C0181E0D5
:101C600080933E019091570180917D00981709F46F
:101C700093C08091570180937D00882309F461C04F
:101C80000E94F00E0E94271381E00E949A0882E0D1
:101C900080933801939885E0E6EEF2E0A2E3B1E0AC
:101CA00001900D928A95E1F70E947D0C86E0E7EAAB
:101CB000F0E0DE01119601900D928A95E1F72981FD
:101CC00021603A814B815C816D817E8184E00E943C
:101CD000800981E026960FB6F894DEBF0FBECDBF17
:101CE000DF91CF910C943A0610927C00A6CF813000
:101CF00009F0B8CF80915701082E000C990B209164
:101D00007C0002C0959587952A95E2F780FF16C062
:101D10008091390180FFA6CF80913C0190913D01D7
:101D20000196803D27E0920728F490933D0180932F
:101D30003C0198CF10923D0110923C0110923E015F
:101D400091CF10923801809143018A7F8160809306
:101D500043018091EB028E7F8093EB02939A109265
:101D600037018FEF80933101109295001092960009
:101D700010929700109298001092990010929A0079
:101D800010922D0110922E0110922F01109230010D
:101D90000E94190D80E09ECF26960FB6F894DEBF04
:101DA0000FBECDBFDF91CF91089586EF85BB08951B
:101DB00082EF85BB089581EF85BB089580EF85BBD9
:101DC00008958CEF85BB089588EF85BB08958BEF50
:101DD00085BB08958AEF85BB089580914D010895D4
:101DE00081E080934D0108959C01892B81F081E071
:101DF00037FD8FEF80934C0130934B0120934A01C4
:101E0000109249011092480160934D01089510927B
:101E10004D01089580914601909147010895E6E4AF
:101E2000F1E081E0868380EB9DE1958384831382DA
:101E3000128282E08783089590917E00890F883016
:101E400064F010927E00E0917E00EE0FFF0BE158EF
:101E5000FF4F0190F081E02D099487FD03C080932E
:101E60007E00F1CF87E0FBCF80914D01833009F0F8
:101E700086C080914A0190914B01892B09F45FC083
:101E800080914C010E941C0F20914C0180914801CF
:101E900090914901820F911D27FD9A9590934901D8
:101EA0008093480180B3881F8827881F20915201A2
:101EB00030915301232B09F04DC0811153C021E013
:101EC00030E0309353012093520140914E015091E4
:101ED0004F0160915001709151014F5F5F4F6F4F03
:101EE0007F4F40934E0150934F0160935001709388
:101EF00051014134584361057105B4F58130F9F45D
:101F000010924B0110924A0110924E0110924F0113
:101F100010925001109251011092530110925201EF
:101F2000813021F5809157018D7F809357018091F9
:101F3000EB0281608093EB0281E080934D01809100
:101F40004D01813031F410924B0110924A011092F0
:101F50004D010895813009F0B8CF109247011092D9
:101F60004601B3CF80E0B1CF82E0CACF8091570164
:101F70008260809357018091EB028E7FDBCF80914E
:101F80004D01823009F050C080914A0190914B017F
:101F9000892BA9F280914C010E941C0F20914C01C9
:101FA0008091480190914901820F911D27FD9A95DA
:101FB000909349018093480120914C018091460102
:101FC00090914701820F911D27FD9A9590934701AB
:101FD00080934601879B1BC02091480130914901A5
:101FE00080914A0190914B012817390709F0A7CF3A
:101FF00010924B0110924A018091EB028E7F8093E8
:10200000EB028091570182608093570195CF109227
:102010004B0110924A018091EB0281608093EB02A8
:10202000809157018D7FF0CF80914D01843009F070
:1020300086CF80914A0190914B01892B09F47CCF86
:1020400080914C010E941C0F20914C01809148010D
:1020500090914901820F911D27FD9A959093490116
:102060008093480120914C01809146019091470155
:10207000820F911D27FD9A95909347018093460109
:10208000209148013091490180914A0190914B0182
:102090002817390709F053CF10924B0110924A01CB
:1020A0004BCF1F93209146013091470160E971E0C9
:1020B000182F1603A001179F500D112464E0CA01C8
:1020C000821B930B1F910C94F40E90914D0181E0B3
:1020D000911180E00895C1E000E911E0D4E0EE2420
:1020E000E394F12C8091540190915501009789F46B
:1020F000C0934C0110934B0100934A011092490187
:1021000010924801D0934D01F0925501E092540194
:10211000E9CF019739F70E946510882319F32FEF53
:1021200083ED90E3215080409040E1F700C0000033
:102130001092550110925401D5CF10924501089587
:10214000CF93C0914501C1111BC0879915C081E093
:1021500080934C0120E233E030934B0120934A01FD
:10216000109249011092480194E090934D018093A0
:1021700045018C2FCF9108950E940F0F82E0F7CF79
:10218000C13071F40E946510811102C0C0E0F1CF2E
:102190000E940F0F809145018F5F80934501F6CF1C
:1021A000C230C9F40E946510882381F380915701E1
:1021B00081FD1CC081E080934C0180E991E0909307
:1021C0004B0180934A01109249011092480183E02B
:1021D00080934D01DFCFC330C9F60E94651088237C
:1021E000A9F280915701C2E081FFC1E01092450140
:1021F000C0CF82E390E051E048E034E022E055BBFC
:10220000EFEDFEE23197F1F700C0000045BBEFEDC6
:10221000FEE23197F1F700C0000035BBEFEDFEE2C2
:102220003197F1F700C0000025BBEFEDFEE23197DA
:10223000F1F700C00000019711F7FFCF81E0809314
:102240004C0188EE93E090934B0180934A011092E9
:1022500049011092480184E080934D0189B7846060
:1022600089BF7894FFCFCF93DF9300D000D00F9237
:10227000CDB7DEB744E1489F9001499F300D11244E
:10228000295A3E4FD90155968D919D910D90BC9143
:10229000A02D89839A83AB83BC83B1E0BD8320E00A
:1022A00030E0A90169817A818B819C810E944C1860
:1022B00018160CF01D828D810F900F900F900F90CB
:1022C0000F90DF91CF9108950E940A0F60E971E0AD
:1022D0000E945816862F0895109256010895CF93A4
:1022E000C82F80915601811119C082E0C1112EC002
:1022F0000E940A0F9C01892BE9F021393A414CF4E4
:1023000081E10E94511084E0809356018C2FCF917F
:10231000089582E10E94511081E0F6CF813071F47E
:102320000E946510811102C0C0E0F0CF10924701F9
:102330001092460110925601C1E0E8CF823049F474
:102340008C2F0E945110809156018F5F809356010F
:10235000EBCF833029F40E9465108111EBCFE4CFDD
:10236000843051F40E9465108823F1F263E080E923
:1023700091E00E94F40EE7CF8530B1F6ECCF1F93C9
:10238000CF93DF9300D000D000D0CDB7DEB760E0B0
:1023900070E080E090E01E821D8214E12D813E817C
:1023A000129FF001139FF00D1124E95AFE4F258969
:1023B00036894789508D69837A838B839C836981B1
:1023C0007A818B819C810E9481162D813E812F5FB5
:1023D0003F4F3E832D832231310501F769837A8394
:1023E0008B839C8369817A818B819C8126960FB631
:1023F000F894DEBF0FBECDBFDF91CF911F9108953E
:102400001F93CF93DF93D0E0C0E010E0CE010E9495
:10241000331181111F5F2196C231D105B9F7812F88
:10242000DF91CF911F9108958F929F92AF92BF92AB
:10243000CF92DF92EF92FF920F931F93CF93DF9390
:1024400000D000D00F92CDB7DEB780E090E0A0E7DB
:10245000B2E480935C0190935D01A0935E01B09320
:102460005F0110E000E091E0E92E90E0F92E1D827E
:102470002AE9822E29E9922EA92C2EE3B22EC70139
:1024800024E0E20EF11C0E940219462F572FBC01D6
:1024900034E1309FC001319F900D1124DC01A95A15
:1024A000BE4F6D01FD01458B568B678B708F559626
:1024B0008D919D910D90BC91A02D89839A83AB83C2
:1024C000BC8320E030E040E451E4BC01CD010E9437
:1024D0004C1818165CF480E090E0A0E4B1E4F6013A
:1024E000858B968BA78BB08FF1E0FD8324E1209F35
:1024F000C001219F900D1124DC01A95ABE4F6D012E
:1025000055968D919D910D90BC91A02D89839A83B4
:10251000AB83BC8320E030E0A901BC01CD010E9467
:10252000ED1687FF0CC001116EC080926C01909275
:102530006D01A0926E01B0926F01B1E0BD830F5F9B
:102540001F4F0231110509F09ACF80E090E00E9400
:10255000FA188093D4028091D40284302CF083E066
:102560008093D40221E02D838091D40287FF04C0A0
:102570001092D40231E03D83E091D4020E2E000C83
:10258000FF0BE355FF4F80818093D5020E9400121C
:102590008093DA028D818130F1F51A82198201E08F
:1025A00010E084E1F82EA981BA81FA9EF001FB9E29
:1025B000F00D1124E95AFE4F458956896789708DBF
:1025C000C8010C5F1F4F0E941919E981FA813196E9
:1025D000FA83E983729739F76091D40280E090E042
:1025E0000F900F900F900F900F90DF91CF911F9150
:1025F0000F91FF90EF90DF90CF90BF90AF909F90A2
:102600008F900C940819F601158A168A178A108E75
:10261000F1E0FD8394CF0F900F900F900F900F90EB
:10262000DF91CF911F910F91FF90EF90DF90CF90AE
:10263000BF90AF909F908F9008959093F0028093F9
:10264000EF0208958091EF029091F0020895EFEE6D
:10265000F2E0118210821282969808952091EF0282
:102660003091F0022115310511F480E063C08091B2
:10267000F102811113C0969A1092EE021092ED02AF
:1026800091E09093F1029091E90290689093E902B1
:102690009091EA0290689093EA020895813029F5BA
:1026A0008091390180FFE1CF8091ED029091EE029F
:1026B0009C012F5F3F4F439729F03093EE02209308
:1026C000ED02D3CF1092EE021092ED0282E08093E1
:1026D000F10296988091E9028F778093E9028091C8
:1026E000EA028F778093EA02C0CF823009F0BDCF33
:1026F0008091390180FFB9CF8091ED029091EE0277
:10270000AC014F5F5F4FCB9729F05093EE0240939F
:10271000ED02ABCF1092EE021092ED021092F10298
:10272000215031093093F0022093EF0281E0232BF6
:1027300009F09BCF089581E02091EF023091F002E3
:10274000232B09F080E008959BBD8ABD0895CF93A7
:10275000DF9300D000D0CDB7DEB7809194008130F8
:1027600089F580913701813059F5209193002983B3
:102770002231B4F5822F082E000C990B9A8389839D
:1027800001960E947B0884E1A981BA818A9FF001A9
:102790008B9FF00D1124E95AFE4F85899689A789F0
:1027A000B08D89839A83AB83BC8320E030E0A9019C
:1027B000BC01CD010E94ED1681110BC00E94DD0607
:1027C000109294000F900F900F900F90DF91CF9187
:1027D000089569817A818B819C810E940008F0CFE5
:1027E0000E94D6068091D502082E000C990B0E94FB
:1027F0007508E6CFCF93DF93CDB7DEB72A970FB634
:10280000F894DEBF0FBECDBF1BBA18BA12BA86E06D
:1028100085BB8FE084BB939A8B9A96988E9A8F98FB
:10282000BF988C98979AC79A949A0E94A3090E947D
:10283000190D0E941A060E9414120E94940C0E9404
:10284000D10C80914301887F836080934301109273
:1028500037011092380181E00E94B4010E949E0C61
:10286000809331011DBC1CBC83E690E097BD86BD02
:1028700082E290E00E94A4138AE18EBD82EC8FBDBB
:1028800089B7846089BF7894F12CE12CB12CC12CDC
:10289000D12C1FEF23E1A22E8091440180FF0AC0BA
:1028A000809144018E7F8093440180913901816041
:1028B000809339018091390180FF07C0B39423E0F0
:1028C000B21203C00E944306B12CD11020C0109355
:1028D000EA021093E9021093E8021093E7021093C2
:1028E000E6028091390180FF0CC08FEFE81AF80AE8
:1028F00020EDE21627E0F20621F4F12CE12CDD2494
:10290000D394809139018E7F80933901C5CF81E0C6
:10291000D8122DC066E676E686EA90E40E940708A3
:102920001092E8021092E7021092E60280913901BB
:1029300080FFE7CF2FEFE21AF20A80EDE81687E07A
:10294000F806F9F684E190E00E947B080E94BF112E
:102950006F83788789879A876F81788589859A853B
:102960000E940008F12CE12C92E0D92ECACF22E07F
:10297000D21207C00E94A010882319F283E0D82E3B
:10298000C0CF8091390180FF07C0C39484E1C81291
:1029900003C00E944A0CC12C0E94BA0D0E949E0CDA
:1029A000082F80913801811143C19091430192FD1C
:1029B0001CC0002309F481C090FF06C09C7F926078
:1029C000909343010E94B4018091370181110BC0A3
:1029D00080913101801739F000933101002309F40F
:1029E00074C00E948D010E94C60184E00E94FF090C
:1029F000082F80914101801769F0002309F468C015
:102A00008091430184608093430180E00E949A0892
:102A10000093410180919500813071F580913901D9
:102A200080FF2AC08091960090919700A091980015
:102A3000B09199000196A11DB11D809396009093CD
:102A40009700A0939800B093990080319742A10518
:102A5000B10590F010929500109296001092970098
:102A6000109298001092990010929A00109393007F
:102A7000109237011093310180E00E94FF098823F2
:102A800009F448C0809193008F5F80939300833155
:102A90000CF452C01093930010923701109331013F
:102AA0001092950010929600109297001092980044
:102AB0001092990010929A0055C091FF85CF9C7F8B
:102AC00091609093430181E07DCF0E9481088BCF7C
:102AD00081E00E949A08809143018A7F81608093FF
:102AE00043018091370181110FC010933101109281
:102AF00095001092960010929700109298001092F4
:102B0000990010929A0084CF813009F081CF809390
:102B100094007ECF81E00E94FF09882319F1809103
:102B200093008F3F11F4A092930080919300815005
:102B30008093930087FDB0CF81E08093370180932D
:102B4000940080919A00811105C081E080939500E6
:102B500080939A001092960010929700109298001D
:102B60001092990080E00E94130A81E00E94130AEB
:102B700082E00E94F409811108C082E00E94FF09EE
:102B8000882319F082E00E94130A83E00E94F4096E
:102B9000811108C083E00E94FF09882319F083E0B7
:102BA0000E94130A82E00E94F4098130D1F582E08C
:102BB0000E94FF098823A9F183E00E94F409082FED
:102BC000813079F583E00E94FF09882351F182E08A
:102BD0000E94130A83E00E94130A0E9427130E9496
:102BE000F00E0093380182E08093370180E00E946C
:102BF000C603939886E0E7EAF0E0DE0111960190C3
:102C00000D928A95E1F72981216029833A814B81D0
:102C10005C816D817E8184E00E94800981E00E9458
:102C20003A060E94A7130E94BC080E942E1369CE88
:102C3000813001F50E94CC038823C9F0109238013D
:102C4000809143018A7F8160809343011092370114
:102C500010933101109295001092960010929700F7
:102C6000109298001092990010929A00939A0E94E4
:102C70002509DBCF8230C9F6011117C084E00E941C
:102C8000FF09882391F0109257011092950010923D
:102C9000960010929700109298001092990010924E
:102CA0009A00F89488E081BDFFCF0E947D0CBDCFD3
:102CB00097FB072E16F4009407D077FD09D00E94E9
:102CC0006C1607FC05D03EF4909581959F4F0895B2
:102CD000709561957F4F0895AA1BBB1B51E107C0FA
:102CE000AA1FBB1FA617B70710F0A61BB70B881F9C
:102CF000991F5A95A9F780959095BC01CD0108952B
:102D00005058BB27AA270E9498160C9412180E94AC
:102D1000041838F00E940B1820F039F49F3F19F482
:102D200026F40C9401180EF4E095E7FB0C94FB17C5
:102D3000E92F0E94231858F3BA1762077307840714
:102D4000950720F079F4A6F50C9445180EF4E0955B
:102D50000B2EBA2FA02D0B01B90190010C01CA0155
:102D6000A0011124FF27591B99F0593F50F4503E00
:102D700068F11A16F040A22F232F342F4427585FF2
:102D8000F3CF469537952795A795F0405395C9F70A
:102D90007EF41F16BA0B620B730B840BBAF09150C2
:102DA000A1F0FF0FBB1F661F771F881FC2F70EC061
:102DB000BA0F621F731F841F48F487957795679534
:102DC000B795F7959E3F08F0B0CF9395880F08F020
:102DD0009927EE0F9795879508950E94D71708F4C5
:102DE00081E008950E9406170C9412180E940B1897
:102DF00058F00E94041840F029F45F3F29F00C9429
:102E0000FB1751110C9446180C9401180E942318BA
:102E100068F39923B1F3552391F3951B550BBB2709
:102E2000AA2762177307840738F09F5F5F4F220F4E
:102E3000331F441FAA1FA9F335D00E2E3AF0E0E845
:102E400032D091505040E695001CCAF72BD0FE2F8F
:102E500029D0660F771F881FBB1F26173707480723
:102E6000AB07B0E809F0BB0B802DBF01FF279358DB
:102E70005F4F3AF09E3F510578F00C94FB170C948D
:102E800046185F3FE4F3983ED4F3869577956795AF
:102E9000B795F7959F5FC9F7880F911D9695879510
:102EA00097F90895E1E0660F771F881FBB1F62172F
:102EB00073078407BA0720F0621B730B840BBA0BED
:102EC000EE1F88F7E09508950E946B176894B11182
:102ED0000C94461808950E942B1888F09F5798F07C
:102EE000B92F9927B751B0F0E1F0660F771F881F0F
:102EF000991F1AF0BA95C9F714C0B13091F00E9429
:102F00004518B1E008950C944518672F782F88274D
:102F1000B85F39F0B93FCCF3869577956795B3954F
:102F2000D9F73EF490958095709561957F4F8F4FBE
:102F30009F4F0895E89409C097FB3EF490958095C3
:102F4000709561957F4F8F4F9F4F9923A9F0F92F6F
:102F500096E9BB279395F695879577956795B795ED
:102F6000F111F8CFFAF4BB0F11F460FF1BC06F5FD3
:102F70007F4F8F4F9F4F16C0882311F096E911C0E5
:102F8000772321F09EE8872F762F05C0662371F006
:102F900096E8862F70E060E02AF09A95660F771F1A
:102FA000881FDAF7880F9695879597F90895990FF6
:102FB0000008550FAA0BE0E8FEEF16161706E80703
:102FC000F907C0F012161306E407F50798F0621B24
:102FD000730B840B950B39F40A2661F0232B242BF9
:102FE000252B21F408950A2609F4A140A6958FEF18
:102FF000811D811D089597F99F6780E870E060E06A
:1030000008959FEF80EC089500240A941616170681
:1030100018060906089500240A94121613061406C9
:1030200005060895092E0394000C11F4882352F02C
:10303000BB0F40F4BF2B11F460FF04C06F5F7F4FE4
:103040008F4F9F4F089557FD9058440F551F59F0CB
:103050005F3F71F04795880F97FB991F61F09F3F85
:1030600079F087950895121613061406551FF2CFAE
:103070004695F1DF08C0161617061806991FF1CFFE
:1030800086957105610508940895E894BB27662725
:103090007727CB0197F908950E94D71708F48FEF8F
:1030A00008950E9464180C9412180E94041838F0B5
:1030B0000E940B1820F0952311F00C94FB170C9430
:1030C000011811240C9446180E94231870F3959F40
:1030D000C1F3950F50E0551F629FF001729FBB270F
:1030E000F00DB11D639FAA27F00DB11DAA1F649FAB
:1030F0006627B00DA11D661F829F2227B00DA11D5E
:10310000621F739FB00DA11D621F839FA00D611DE3
:10311000221F749F3327A00D611D231F849F600D04
:10312000211D822F762F6A2F11249F5750409AF02D
:10313000F1F088234AF0EE0FFF1FBB1F661F771FB9
:10314000881F91505040A9F79E3F510580F00C9484
:10315000FB170C9446185F3FE4F3983ED4F3869532
:1031600077956795B795F795E7959F5FC1F7FE2B24
:10317000880F911D9695879597F90895DC0101C0F8
:103180006D9341505040E0F70895BB274A3031F429
:10319000992322F4BDE2909581959F4F0C94D1180C
:1031A000BB27FB015527AA27880F991FAA1FA41721
:1031B00010F0A41B83955051B9F7A05DAA3308F015
:1031C000A95DA193009779F7B111B1931192CB0149
:1031D0000C94EA18DC01FC01672F71917723E1F769
:1031E000329704C07C916D9370836291AE17BF07D4
:1031F000C8F30895E199FECF9FBB8EBBE09A992753
:103200008DB30895A6E1B0E044E050E00C94271996
:10321000262FE199FECF9FBB8EBBE09A01970DB29E
:10322000021631F02DBB0FB6F894E29AE19A0FBE68
:1032300008950396272F0E9409190E940819252F27
:103240000E940919242F0C940919DC01CB01FC01FF
:10325000E199FECF06C0FFBBEEBBE09A31960DB2FE
:0E3260000D9241505040B8F70895F894FFCFFA
:10326E00000086430000A040060608060A060C066B
:10327E000E0610061206140616061806FFFFFFEAC3
:10328E000EE70EE40EE10EDE0EDB0ED80ED50ECDE1
:10329E00CCCC3DFF0000000000000000403F065B6C
:1032AE004F666D7C077F6700000000000016202E21
:0C32BE0044220028002F0035003B0000D7
:00000001FF
