:100000000C942A000C9447000C9447000C94470071
:100010000C9447000C9447000C9447000C94470044
:100020000C9447000C947D0D0C9447000C944700F1
:100030000C9447000C9447000C9447000C94470024
:100040000C9447000C9447000C9447000C94470014
:100050000C94470011241FBECFE5D8E0DEBFCDBF12
:1000600010E0A0E6B0E0E0E7F2E302C005900D92F8
:10007000A43BB107D9F722E0A4EBB0E001C01D9288
:10008000A83EB207E1F70E94FB130C9436190C94BA
:1000900000008F929F92AF92BF92FF920F931F9397
:1000A000CF93DF9300D000D000D0CDB7DEB7209142
:1000B0006000309161004091620050916300609156
:1000C00064007091650080916600909167000E94C5
:1000D000F316462F572FBC0140934E0150934F010A
:1000E000609350017093510180E090E0A0E7B2E48A
:1000F0008093520190935301A0935401B093550102
:1001000080E090E0A0E8BFE3809356019093570110
:10011000A0935801B09359018091520190915301DD
:10012000A0915401B091550189839A83AB83BC831C
:100130002091560130915701409158015091590139
:10014000BC01CD010E94F316462F572FBC014093EE
:100150005E0150935F016093600170936101809133
:10016000560190915701A0915801B091590189838E
:100170009A83AB83BC8320E030E040E752E4BC01CB
:10018000CD010E94521820E030E04AE754E4698330
:100190007A838B839C8369817A818B819C810E9485
:1001A000521869837A838B839C8369817A818B81DE
:1001B0009C810E946C17462F572FBC0140935A0117
:1001C00050935B0160935C0170935D0110E000E06F
:1001D00084E1F82EC8010E943311882309F483C0FA
:1001E000F09ED001F19EB00D1124A35BBE4FBE83E3
:1001F000AD8355968D919D910D90BC91A02D8983D5
:100200009A83AB83BC8320914E0130914F01409182
:1002100050015091510180905E0190905F01A0903B
:100220006001B0906101BC01CD010E94F316A501EF
:10023000940169837A838B839C8369817A818B8122
:100240009C810E94F316462F572FBC01ED81FE8141
:10025000418F528F638F748F818D928DA38DB48D5A
:1002600089839A83AB83BC8320E030E040E85FE37E
:10027000BC01CD010E944D1887FD2AC0AD81BE8111
:1002800059968D919D910D90BC91A02D89839A8353
:10029000AB83BC83BC01CD010E946C1769837A8358
:1002A0008B839C83A981BA81CD01B0E0A0E08983D2
:1002B0009A83AB83BC83BC01CD010E949B17462F60
:1002C000572FBC01ED81FE81458F568F678F70A33C
:1002D000F09EF001F19EF00D1124E35BFE4F11A2A0
:1002E00012A213A214A20F5F1F4F0231110509F0D1
:1002F00071CF1092DA021092D90226960FB6F894B6
:10030000DEBF0FBECDBFDF91CF911F910F91FF9048
:10031000BF90AF909F908F900895CF93DF9300D0C0
:1003200000D0CDB7DEB780912F01811116C084E1D6
:1003300090E00E947B080E94BF1169837A838B83BF
:100340009C8369817A818B819C810F900F900F90A3
:100350000F90DF91CF910C9400080F900F900F90A9
:100360000F90DF91CF91089581110BC00E94A310CF
:1003700081E08093B8000E9449000E9427130C94EA
:100380002E0F8130D1F71092B800F7CF0F931F9343
:10039000CF93DF93CDB7DEB72A970FB6F894DEBFC1
:1003A0000FBECDBF8091B8001816DCF4813031F556
:1003B0000E949D108823A9F01092B90080913E01FF
:1003C00090913F01892BC1F08091B8008F5F80939D
:1003D000B8001092B4001092B5001092B6001092BE
:1003E000B7002A960FB6F894DEBF0FBECDBFDF91DF
:1003F000CF911F910F91089583E0E9CF823041F4AE
:100400000E94A610882369F38091B8008F5F33C0E3
:100410009091310190FF14C04091B4005091B5000B
:100420006091B6007091B7004F5F5F4F6F4F7F4F85
:100430004093B4005093B5006093B6007093B7003A
:10044000833059F58091B90082313CF4082E000CBC
:10045000990B0E943311882389F08091B900823171
:10046000C1F40E946411813179F463E088EC90E07A
:100470000E94320F87E08093B800B3CF8091B9001B
:100480008F5F8093B900DECF81E10E948F1086E0FC
:10049000F2CF0E948F1084E0EECF843009F003C1C8
:1004A0000E949D10882309F49CCF2091B9002983D4
:1004B000022F022E000C110BA4E12A02C00111240C
:1004C000835B9E4F9E838D83FC0110A617A2218D16
:1004D000328D438D548D81A192A1A3A1B4A18983B2
:1004E0009A83AB83BC83BC01CD010E948216462F48
:1004F000572FBC01ED81FE8141A352A363A374A3D6
:1005000081A192A1A3A1B4A189839A83AB83BC8367
:10051000258D368D478D50A1BC01CD010E944D180F
:1005200087FDBCC0AD81BE8191968D919D910D904E
:10053000BC91A02D89839A83AB83BC83ED81FE811E
:10054000258D368D478D50A1BC01CD010E948116AD
:10055000462F572FBC0149835A836B837C8320E04D
:1005600030E040E85FE369817A818B819C810E9461
:100570004D1887FD1CC020E030E040E85FE3698152
:100580007A818B819C810E948116462F572FBC0156
:1005900049835A836B837C83AD81BE8197968D910D
:1005A0009C919897019698969C938E93979784E147
:1005B000809FF001819FF00D1124E35BFE4F898144
:1005C0009A81AB81BC8181A392A3A3A3B4A3A09180
:1005D000D902B091DA02BA87A98780915E01909121
:1005E0005F01A0916001B09161018D839E83AF8313
:1005F000B887BC01CD010E9465176D837E838F8310
:1006000098878D819E810197A985BA858A179B0756
:10061000C1F420E030E0A90169817A818B819C815D
:100620000E944D1818166CF484E1809FF001819FA0
:10063000F00D1124E35BFE4F87A190A5019690A7D2
:1006400087A384E1809FF001819FF00D1124E35B7B
:10065000FE4FFE83ED83858D968DA78DB0A1898396
:100660009A83AB83BC8307A110A5BC01CD010E9476
:100670006C17462F572F040F151FED81FE8110A711
:1006800007A327A130A585A196A1820F931F96A34A
:1006900085A387A190A50E941D13B6CE19821A8248
:1006A0001B821C8294CF853061F40E949C138823A6
:1006B00009F497CE8091B9008F5F8093B90083E0F1
:1006C000DACE863059F40E949D10882309F489CE31
:1006D00063E088EC90E00E94320F96CE873009F0FC
:1006E00080CE0E949D10882309F47BCE40915A0150
:1006F00050915B0160915C0170915D018091B4004B
:100700009091B500A091B600B091B70084179507FD
:10071000A607B70708F465CE1092B4001092B50092
:100720001092B6001092B7001092B90083E0809347
:10073000B8002091D9023091DA022F5F3F4F3E83FB
:100740002D833093DA022093D90280915E0190913B
:100750005F01A0916001B091610189839A83AB83AD
:10076000BC83BC01CD010E94651769837A838B83AA
:100770009C83AD81BE81E981FA81AE17BF0709F084
:1007800030CE1092DA021092D9022BCEEBEBF0E0D1
:10079000818381E080830895DF92EF92FF920F932F
:1007A0001F93CF93DF93CDB7DEB72A970FB6F89498
:1007B000DEBF0FBECDBF8091BA00811112C00E9472
:1007C000FF09882309F440C18091BC008F5F833109
:1007D0001CF48093BC0002C01092BC0081E08093A6
:1007E000BB0080E00E94130A81E00E94130A82E0AD
:1007F0000E94F409811162C082E00E94FF098823EF
:1008000009F45CC08091BA00811155C00091BC0010
:1008100002310CF046C1E02E002E000CFF0824E14E
:10082000020280011124035B1E4FD80155968D9161
:100830009D910D90BC91A02D8F839887A987BA8731
:1008400020E030E0A901BC01CD010E94EE1681112B
:1008500008C18AE999E9A9E9BEE3F801858B968B7D
:10086000A78BB08F84E18E9D80018F9D100D112488
:10087000035B1E4FD80155968D919D910D90BC91B3
:10088000A02D8F839887A987BA8720E030E040E4C5
:1008900051E4BC01CD010E944D1887FD09C080E0E4
:1008A00090E0A0E4B1E4F801858B968BA78BB08F24
:1008B00081E08093BB0082E00E94130A83E00E94E3
:1008C000F409811160C083E00E94FF09882309F4C4
:1008D0005AC08091BA00811153C0F090BC00F1E180
:1008E000FF150CF40AC12F2D84E128028001112488
:1008F000035B1E4FD80155968D919D910D90BC9133
:10090000A02D8F839887A987BA872091880030917E
:10091000890040918A0050918B00BC01CD010E945A
:100920008116462F572FBC01F801458B568B678BDC
:10093000708FF110CAC08091620190916301A09103
:100940006401B09165018F839887A987BA872AE9E6
:1009500039E949E95EE3BC01CD010E94EE1687FF4B
:100960000CC08AE999E9A9E9BEE3809362019093FA
:100970006301A0936401B093650181E08093BB00A3
:1009800083E00E94130A84E00E94FF098823A9F0F3
:1009900084E00E94130A8091BC00823174F490912B
:1009A000BA0021E0911120E02093BA009111BAC061
:1009B0000E940C0980E00E940F0982E00E94F40965
:1009C000813009F4B3C0F12C8091BB00813069F50E
:1009D00080912F01823039F50091BC0002310CF07A
:1009E0000BC1002E000C110BC80101960E947B0860
:1009F00084E1809FF001819FF00D1124E35BFE4FA5
:100A000085899689A789B08D8F839887A987BA87AA
:100A100020E030E0A901BC01CD010E94EE16811159
:100A2000E4C00E94DD061092BB008F2D2A960FB6FF
:100A3000F894DEBF0FBECDBFDF91CF911F910F9114
:100A4000FF90EF90DF90089581E00E94FF098823D6
:100A500009F4C7CE8091BC00815087FFBACE82E1F5
:100A6000B8CED80155968D919D910D90BC91A02D39
:100A70008F839887A987BA87209188003091890051
:100A800040918A0050918B00BC01CD010E948216DA
:100A9000462F572FBC01F801458B568B678B708F03
:100AA000E1CE8091CA028F5F8093CA02843014F035
:100AB0001092CA02E091CA020E2E000CFF0BEA55FA
:100AC000FF4F80818093CB02F3CE85899689A789D9
:100AD000B08D8F839887A987BA872AE939E949E9D0
:100AE0005EE3BC01CD010E94EE1687FF46CFF80100
:100AF000158A168A178A108E40CF8091CA028150BB
:100B00008093CA0287FF03C083E08093CA02E0910A
:100B1000CA020E2E000CFF0BEA55FF4F8081809316
:100B2000CB022BCF81E08093BB0045CF82E00E94B7
:100B3000FF09882309F447CF83E00E94F40981303C
:100B400009F041CF83E00E94FF09882309F43BCFDD
:100B500082E00E94130A83E00E94130A10E000E082
:100B600081E0E82E80E0F82E94E1D92ED09EF001AD
:100B7000D19EF00D1124E35BFE4F458956896789AC
:100B8000708DC701F4E0EF0EF11C0E941A190F5F7F
:100B90001F4F0231110551F76091CA0280E090E0C9
:100BA0000E9409190E9400128093D0021092BA008C
:100BB00081E00E940F0986E0E0EAF0E0DE01119694
:100BC00001900D928A95E1F72981286029833A8165
:100BD0004B815C816D817E8184E00E94800980E090
:100BE0000E943A06FF24F394EFCE6F8178858985C1
:100BF0009A850E94000817CF0E94D6068091CB02EA
:100C0000082E000C990B0E9475080DCFC49808950A
:100C1000C49A0895C3980895C39A0895C2980895F0
:100C2000C29A0895C1980895C19A0895C0980895E8
:100C3000C09A0895CF93DF931092DF021092E002E2
:100C40001092DC021092DD021092DE028FEF8ABB5E
:100C5000C8E6D0E0E881F9810995249680E0CC3798
:100C6000D807C1F7BC9ABB9ABA9AB99AB89ADF91D9
:100C7000CF9108958093C1001092C0001092BF00E0
:100C80001092BE000895EF92FF920F931F93CF939F
:100C9000DF93E091BD00E150E7FDE4E024E0E202F3
:100CA000F0011124E859FF4F0190F081E02D0995E2
:100CB000E091BD00E3300CF058C08091C10081117B
:100CC00008C00E2E000CFF0BE452FD4F80818BBB41
:100CD0001BC08091BF009091C00001969093C0000E
:100CE0008093BF00C29758F09091BE001092C00050
:100CF0001092BF0081E0911180E08093BE0080914E
:100D0000BE008823F1F21BBA2091BD0081E090E083
:100D10007C0102C0EE0CFF1C2A95E2F708E610E009
:100D2000D0E0C0E0C7010C2E02C0959587950A94CB
:100D3000E2F7D80180FF20C01296ED91FC91099551
:100D400021960C5F1F4FC530D10561F78091BD0022
:100D500091E0980F843099F09093BD00DF91CF918E
:100D60001F910F91FF90EF900895E3500E2E000C0D
:100D7000FF0BE152FD4FAACFED91FC91E0CF109215
:100D8000BD00ECCF462F67FD40E0042E000C550B54
:100D900070E060E00C94BF1862E08FED92E00C947C
:100DA000C20663E08CED92E00C94C2068CE5809361
:100DB000E00286E18093DF0208958FE38093DE02F4
:100DC00081E78093DD028093DC02089581E78093C0
:100DD000DE028093DD028093DC02089581E7809338
:100DE000DE0288E38093DD028EE38093DC020895C7
:100DF00084E58093E0028CE58093DF028FE38093AB
:100E0000DE0280E38093DD0288E38093DC020895B4
:100E10003F924F925F926F927F928F929F92AF928A
:100E2000BF92CF92DF92EF92FF920F931F93CF93D7
:100E3000DF93CDB7DEB72E970FB6F894DEBF0FBEA7
:100E4000CDBF5C01862EF22EE32ED42EC52E362E7B
:100E5000412C512C20E8622E3FE3932E3A948FEFE1
:100E600038128AC02F2D3E2D4D2D5C2D4B865C8671
:100E70006D869E866B857C858D859E850E94EE168F
:100E8000181674F020E030E040E85FE36B857C8565
:100E90008D859E850E948116F62EE72ED82EC92EAE
:100EA000682DC5010E94C206912C612C512C80E84E
:100EB000482E9FE3392E891494F1262D352D442D8B
:100EC000532DFB86EC86DD86CE866B857C858D85F5
:100ED0009E850E94EE1687FF6FC098140CF05EC0CE
:100EE00020E030E040E251E46B857C858D859E8575
:100EF0000E9452186B877C878D879E876B857C85C7
:100F00008D859E850E9465178B01911003C08FE32C
:100F1000F5018183F501818180688183792C4AE024
:100F2000BE016F5F7F4FC8010E94C61880E0972DF9
:100F3000981BE1E0F0E0EC0FFD1FE80FF11D87FDCD
:100F4000FA95E081E1114CC02E960FB6F894DEBF01
:100F50000FBECDBFDF91CF911F910F91FF90EF900A
:100F6000DF90CF90BF90AF909F908F907F906F90C9
:100F70005F904F903F90089520E030E040E251E4D0
:100F80004B865C866D869E866B857C858D859E8571
:100F90000E9452182B01682E992E60CFFB86EC869A
:100FA000DD86CE866B857C858D859E850E94651746
:100FB0008B0177247A94790C20E030E040E251E410
:100FC0006B865C864D863E866B857C858D859E8591
:100FD0000E945218662E572E482E392E93946BCFAE
:100FE000D501A90FB11D97FDBA950E2E000CFF0B70
:100FF000EA59FF4F9C912081922B9C938F5F97CF52
:101000009B01AC0163E08CED92E00C9408079B011E
:10101000AC0162E08FED92E00C940807CF92DF9272
:10102000EF92FF921F93CF93DF93CDB7DEB72A974E
:101030000FB6F894DEBF0FBECDBF7C01162FCA01DC
:10104000462F21E030E05AE04150C0F58217930767
:1010500014F0C90101974AE09E012F5F3F4F6901DB
:10106000B9010E94C618412F17FD40E0042E000C64
:10107000550B70E060E0C7010E94BF18F6010190B7
:101080000020E9F7EC198EEF8E0F90E0282F291B36
:10109000F601E90FF11D97FDFA95E081E11115C008
:1010A0002A960FB6F894DEBF0FBECDBFDF91CF9169
:1010B0001F91FF90EF90DF90CF900895B901569F58
:1010C0009001579F300D1124BFCFD701A20FB11D42
:1010D00027FDBA950E2E000CFF0BEA59FF4F2C91FD
:1010E0003081232B2C939F5FD1CFAC0163E08CED3B
:1010F00092E00C940E08AC0162E08FED92E00C944B
:101100000E0884E190E00E947B0880E48093DE0278
:101110008093DD028093DC02089585E190E00E94D7
:101120007B0889E78093DE0280E58093DD0280936F
:10113000DC02089581111BC00E94CC060E94EE06BD
:101140000E94480F68EC70E00E945916892B49F400
:101150006093C30082E08093C2000E9427130C9426
:101160002E0F6F5F6231A4F31092C300F3CF813072
:10117000A1F71092C200F1CF8091C200181694F42A
:101180000E949D10882371F08091C200813071F41B
:101190008091C3008F5F823134F48093C30082E07A
:1011A0008093C20008951092C300F9CF823051F4A9
:1011B0008091C3000E946F118823A1F38091C20027
:1011C0008F5FEECF8330A9F40E949D10882351F3E6
:1011D0008091C300082E000C990B0E94331190914E
:1011E000C200882321F09F5F9093C200089592501F
:1011F000FBCF843049F40E949D10882399F281E04E
:1012000090E00E941D13DACF853061F60E949C1396
:10121000882341F281E0C4CF8093C60008958111F4
:101220000FC00E94EE0681E08093C7000E946C11FF
:101230001092C5001092C4000E9427130C942E0F28
:101240008130D1F71092C700F7CF8091C7001816F0
:101250005CF4813051F40E949D10882329F0809124
:10126000C7008F5F8093C7000895823071F480912A
:10127000C600082E000C990B0E9433118823A1F39D
:101280008091C6000E946F11E8CF8330B9F40E94AC
:101290009D10882349F381E090E00E941D13809106
:1012A000C7008F5F8093C7008091C4009091C500F4
:1012B00001969093C5008093C40008958430A1F6F0
:1012C0000E949C13882381F28091C7008150CACF6D
:1012D00083B382958170089583B385FB882780F955
:1012E000089583B386FB882780F9089583B3881F08
:1012F0008827881F089580B382FB882780F9089586
:10130000CF93DF9300D000D000D0CDB7DEB72983D4
:101310003A834B835C836D837E8390E1899FD00108
:101320001124AA52BF4F86E0FE01319601900D9222
:101330008A95E1F726960FB6F894DEBF0FBECDBFB3
:10134000DF91CF9108951F93CF93DF9300D000D00A
:1013500000D0CDB7DEB7A498A598A698A7988A988C
:10136000AC9AAD9AAE9AAF9A929A88E699E0909329
:10137000CE008093CD008CE699E09093DE008093C0
:10138000DD0081E799E09093EE008093ED0086E721
:1013900099E09093FE008093FD008BE799E0909395
:1013A0000E0180930D0186E0FE013196DF011D9252
:1013B0008A95E9F789818160898310E029813A81E2
:1013C0004B815C816D817E81812F0E9480091F5F2E
:1013D0001530A1F726960FB6F894DEBF0FBECDBF2D
:1013E000DF91CF911F91089590E1899FF001112421
:1013F000E452FF4F808182FB882780F9089590E1B5
:10140000899FF0011124E452FF4F808186958170FD
:10141000089590E1899FF0011124E452FF4F8081EB
:1014200082608083089590E1899FF0011124E45245
:10143000FF4F80818D7F8083089590E1899FF00127
:101440001124E353FF4F0280F381E02D0994EF92C2
:10145000FF920F931F93CF93DF9394E0E92EF12C2B
:101460008AE18A95F1F700C0870184E0000F111F1F
:101470008A95E1F7E801C353DF4F8C81811113C0D6
:10148000E881F9810995811103C08C818F5F8C837C
:1014900081E0E81AF10820F7DF91CF911F910F91B9
:1014A000FF90EF9008958C818130A9F48D818F5F3A
:1014B0008D83813069F71D82E881F9810995882340
:1014C00019F08C818150E3CFF801E452FF4F808105
:1014D00081608083DACF8C81823031F4E881F981B8
:1014E00009958130A9F6D1CF8C81833089F68D8121
:1014F0008F5F8D83813061F61D82E881F9810995C6
:101500008130F9F6F801E452FF4F80818E7F8083AD
:101510001C82BECFBF92CF92DF92EF92FF920F93C9
:101520001F93CF93DF9350E040E031E075E0B72E9A
:10153000E4E0CE2EF7E0DF2EA6E0FA2EB8E0EB2EA8
:1015400023E0C9E0DAE012E00BE0CA0164E0880FB2
:10155000991F6A95E1F7FC01E353FF4F6681611122
:101560003CC06685662369F0E685F0E0E853FF4FEE
:101570006081613031F4FC01E452FF4F608163FF10
:101580002CC0DC01A452BF4F6C91762F717060FFAC
:1015900024C0FC01EA52FF4F608160FF59C16C9189
:1015A00062606C936081FC01E353FF4F61FF4EC1A9
:1015B000E682DC01A452BF4F6C9160616C93FC0128
:1015C000E353FF4F6685662341F0E685F0E0E8537C
:1015D000FF4F30836C9168606C93FC01E353FF4FC5
:1015E0006681683060F066816B3048F4DC01A4529B
:1015F000BF4F6C9160FD03C0108617822683FC01EB
:10160000E353FF4F6681683071F4678170856F5FC7
:101610007F4F70876783A285B3856A177B0718F0B1
:1016200010861782C683DC01A353BF4F16966C91B8
:101630001697693059F4FC01E452FF4F608161FD57
:1016400005C06081626060831696DC93FC01E35301
:10165000FF4F66816A3071F4678170856F5F7F4FDD
:1016600070876783A485B5856A177B0718F0108695
:101670001782C683DC01A353BF4F16966C91169751
:10168000663059F4FC01E452FF4F608160FD05C0F3
:1016900060816260608316962C93FC01E353FF4FD8
:1016A0006681673039F4DC01A452BF4F6C916260EF
:1016B0006C931683FC01E353FF4F66816430A1F500
:1016C000678170856F5F7F4F70876783DC01A452ED
:1016D000BF4F6C9160FD0EC06781708563337105EB
:1016E00048F4108617826C9162606C936C916B7FEA
:1016F0006C932683FC01E353FF4F6781708563334E
:10170000710590F010861782DC01A452BF4F6C91D6
:1017100062606C936C9164606C93DC01AA52BF4F61
:101720006C9161FDB5C03683FC01E353FF4F6681C8
:10173000653099F5678170856F5F7F4F708767832C
:10174000DC01A452BF4F6C9160FD0EC067817085B3
:101750006333710548F4108617826C9162606C9354
:101760006C916B7F6C932683DC01A353BF4F17965C
:101770006D917C9118976436710578F018961C92DB
:101780001E921797FC01E452FF4F608162606083F4
:1017900060816460608316961C93FC01E353FF4FE5
:1017A0006681613031F4DC01A452BF4F6C9160FF5F
:1017B0002683DC01A353BF4F16966C9116976230B7
:1017C00059F4FC01E452FF4F608160FD05C0608167
:1017D0006D7F608316960C93FC01E353FF4F668187
:1017E000633031F4DC01A452BF4F6C9161FF06837A
:1017F000FC01E353FF4F66816B30C1F466856623BD
:1018000059F0E685F0E0E853FF4F1082FC01E45206
:10181000FF4F6081677F6083FC01E353FF4F1682B7
:10182000FC01E452FF4F80818F7E80834F5F5F4FCA
:101830004530510509F089CEDF91CF911F910F916D
:10184000FF90EF90DF90CF90BF9008957683B1CE58
:10185000608162FF05C0FC01E353FF4FF682A9CE11
:10186000608163FF05C0FC01E353FF4FD682A1CE28
:10187000608164FF05C0FC01E353FF4FC68299CE2F
:10188000608165FF96CEFC01E353FF4FB68291CE97
:10189000D6834ACF0E94270A0C948A0A90E080E0FF
:1018A000FC0124E0EE0FFF1F2A95E1F7E452FF4F01
:1018B000208120FD06C001968530910589F781E0E1
:1018C000089580E00895ECEDF0E080818D7F8083C5
:1018D000ECEEF0E080818D7F8083ECEFF0E08081A2
:1018E0008D7F8083ECE0F1E080818D7F8083ECE16F
:1018F000F1E080818D7F808308950C94630C90E0EB
:1019000080E0FC0124E0EE0FFF1F2A95E1F7E4528E
:10191000FF4F208124FD06C001968530910589F78F
:1019200081E0089580E0089580B38295817091E010
:101930008927E3E2F1E0818380830895909120017B
:10194000911110C080B391E0829581708927209118
:101950002401281721F08093240190932001809185
:10196000230108959130D9F78091310180FFF7CF9D
:1019700080911F0121E0280F833119F020931F016E
:10198000EECF10921F0180B32091240182958F70B9
:1019900089278170281302C020932301109220010F
:1019A000DECF86B390E0880F892F881F990BE1E284
:1019B000F1E081838083089580911E01811112C01E
:1019C00086B390E0880F892F881F990B2091220100
:1019D000281729F08093220181E080931E018091D5
:1019E000210108958130D9F78091310180FFF7CF2F
:1019F00080911D0191E0980F833119F090931D01A2
:101A0000EECF10921D0186B390912201881F882786
:101A1000881F891302C09093210110921E01DFCF0D
:101A200080B3881F8827881F089581E0089581E08A
:101A30000895CF93DF9300D000D000D0CDB7DEB7AC
:101A400086E0E0EAF0E0DE01119601900D928A95C1
:101A5000E1F729812360298389E1382F8A831B825A
:101A60008FE0582F8C831D8281E08E8340E060E000
:101A700071E080E00E94800929813A814B815C817C
:101A80006D817E8181E00E94800986E0E0EAF0E0DD
:101A9000DE01119601900D928A95E1F7298120626D
:101AA00029833A814B815C816D817E8182E00E9435
:101AB000800929813A814B815C816D817E8183E03F
:101AC0000E94800986E0E0EAF0E0DE0111960190D4
:101AD0000D928A95E1F7298128603A814B815C81DA
:101AE0006D817E8184E026960FB6F894DEBF0FBE2E
:101AF000CDBFDF91CF910C9480091F920F920FB64A
:101B00000F9211242F933F934F935F936F937F9383
:101B10008F939F93AF93BF93EF93FF93809138017F
:101B200081110BC00E94720F0E942B0F82302CF08B
:101B3000809138018F5F8093380180913801813026
:101B4000C9F5E0917E00EE0FFF0BE655FF4F808157
:101B500091810E94A51380917E0091E0980F8430BE
:101B600009F190937E00809137018F5F8093370158
:101B7000843139F480913C01816080933C01109262
:101B80003701FF91EF91BF91AF919F918F917F911D
:101B90006F915F914F913F912F910F900FBE0F90DA
:101BA0001F90189510927E00809138018F5F80936E
:101BB0003801D9CF823051F480917E0091E0980FA6
:101BC0008F3179F683E080937E00F1CF833059F630
:101BD000E0917E00EE0FFF0BE655FF4F8081918173
:101BE0000E94A51380917E00815087FD03C08093E1
:101BF0007E00B9CF81E080937E001092380182E2AE
:101C000090E00E94A513AFCFCF93DF9300D000D018
:101C100000D0CDB7DEB70E94DC0C90912501911168
:101C20000DC0811116C080914D01816080934D01DE
:101C300081E080932501109226010BC0913049F478
:101C40008823B9F080914D018E7F80934D011092D1
:101C500025018091270181111CC080914D0181FBDC
:101C6000992790F981FF26C09093270110922801AF
:101C700021C080913A0180FFDECF80912601811141
:101C8000E8CF0E94F806809126018F5F809326019D
:101C9000E0CF813079F480913A0181FFE7CF8091E4
:101CA0002801811107C00E948D08809128018F5F53
:101CB0008093280180913601811163C080917C005E
:101CC00091E0980F873009F459C090937C0080917F
:101CD0004D0190917C0021E030E001C0220F9A95E7
:101CE000EAF7822349F080933A011092350110926D
:101CF000340181E08093360190914D0180917D0007
:101D0000981709F493C080914D0180937D0088233A
:101D100009F461C00E942E0F0E94271381E00E94E7
:101D20009A0882E080933001939885E0ECEDF2E030
:101D3000AAE2B1E001900D928A95E1F70E947D0C34
:101D400086E0E0EAF0E0DE01119601900D928A95BE
:101D5000E1F7298121603A814B815C816D817E812F
:101D600084E00E94800981E026960FB6F894DEBFD9
:101D70000FBECDBFDF91CF910C943A0610927C003C
:101D8000A6CF813009F0B8CF80914D01082E000C0C
:101D9000990B20917C0002C0959587952A95E2F7D2
:101DA00080FF16C08091310180FFA6CF8091340161
:101DB000909135010196803D27E0920728F4909399
:101DC00035018093340198CF10923501109234017F
:101DD0001092360191CF1092300180913B018A7FA1
:101DE000816080933B018091E1028E7F8093E102CC
:101DF000939A10922F018FEF8093290110928E00F9
:101E000010928F0010929000109291001092920008
:101E10001092930010922501109226011092270132
:101E2000109228010E94190D80E09ECF26960FB6D1
:101E3000F894DEBF0FBECDBFDF91CF91089581EF43
:101E400085BB089588EF85BB089584EF85BB089511
:101E500082EF85BB089580914501089581E08093CC
:101E6000450108959C01892B81F081E037FD8FEFBA
:101E70008093440130934301209342011092410129
:101E80001092400160934501089510924501089514
:101E900080913E0190913F010895EEE3F1E081E0F1
:101EA000868388ED9EE0958384831382128282E08C
:101EB0008783089590917F00890F843064F0109299
:101EC0007F00E0917F00EE0FFF0BE058FF4F019085
:101ED000F081E02D099487FD03C080937F00F1CF4E
:101EE00083E0FBCF80914501833009F086C080916B
:101EF000420190914301892B09F45FC08091440114
:101F00000E945A0F2091440180914001909141011B
:101F1000820F911D27FD9A95909341018093400176
:101F200080B3881F8827881F20914A0130914B0178
:101F3000232B09F04DC0811153C021E030E03093D4
:101F40004B0120934A014091460150914701609115
:101F50004801709149014F5F5F4F6F4F7F4F409332
:101F60004601509347016093480170934901413203
:101F70005C4161057105B4F58130F9F410924301BB
:101F800010924201109246011092470110924801AE
:101F90001092490110924B0110924A01813021F5B3
:101FA00080914D018D7F80934D018091E102816090
:101FB0008093E10281E08093450180914501813069
:101FC00031F410924301109242011092450108959C
:101FD000813009F0B8CF10923F0110923E01B3CF8B
:101FE00080E0B1CF82E0CACF80914D0182608093C2
:101FF0004D018091E1028E7FDBCF809145018230DF
:1020000009F050C08091420190914301892BA9F2BF
:10201000809144010E945A0F209144018091400117
:1020200090914101820F911D27FD9A959093410156
:10203000809340012091440180913E0190913F01A5
:10204000820F911D27FD9A9590933F0180933E0149
:10205000879B1BC02091400130914101809142013A
:10206000909143012817390709F0A7CF1092430137
:10207000109242018091E1028E7F8093E102809173
:102080004D01826080934D0195CF109243011092D3
:1020900042018091E10281608093E10280914D01D3
:1020A0008D7FF0CF80914501843009F086CF8091FB
:1020B000420190914301892B09F47CCF8091440126
:1020C0000E945A0F2091440180914001909141015A
:1020D000820F911D27FD9A959093410180934001B5
:1020E0002091440180913E0190913F01820F911D0A
:1020F00027FD9A9590933F0180933E0120914001E6
:102100003091410180914201909143012817390794
:1021100009F053CF10924301109242014BCF20910E
:102120003E0130913F01482F58EC4503C001112476
:1021300064E0821B930B0C94320F9091450181E077
:10214000911180E0089510923D010895CF93C091C0
:102150003D01C1111DC0879915C081E080934401E4
:1021600020E931E030934301209342011092410174
:102170001092400194E09093450180933D018C2F93
:10218000CF9108950E944D0F82E080933D0106C0DB
:10219000C13031F40E949D108111F4CFC0E0EFCF27
:1021A000C230C9F40E949D108823C1F380914D0173
:1021B00081FD1CC081E08093440188EC90E0909305
:1021C000430180934201109241011092400183E04B
:1021D00080934501DACFC33009F70E949D10882310
:1021E000E9F2C0914D01C695C170CF5F10923D01DB
:1021F000C6CF82E390E051E048E034E022E055BBF6
:10220000EFEDFEE23197F1F700C0000045BBEFEDC6
:10221000FEE23197F1F700C0000035BBEFEDFEE2C2
:102220003197F1F700C0000025BBEFEDFEE23197DA
:10223000F1F700C00000019711F7FFCF81E0809314
:10224000440188EE93E09093430180934201109201
:1022500041011092400184E08093450189B7846078
:1022600089BF7894FFCFCF93DF9300D000D00F9237
:10227000CDB7DEB744E1489F9001499F300D11244E
:10228000235B3E4FD90155968D919D910D90BC9148
:10229000A02D89839A83AB83BC83B1E0BD8320E00A
:1022A00030E0A90169817A818B819C810E944D185F
:1022B00018160CF01D828D810F900F900F900F90CB
:1022C0000F90DF91CF9108950E94480F68EC70E065
:1022D0000E945916862F089510924C010895CF93AD
:1022E000C82F80914C01811119C082E0C1112EC00C
:1022F0000E94480F9C01892BE9F029343D404CF4A1
:1023000081E10E948F1084E080934C018C2FCF914B
:10231000089582E10E948F1081E0F6CF813071F440
:102320000E949D10811102C0C0E0F0CF10923F01C9
:1023300010923E0110924C01C1E0E8CF823049F486
:102340008C2F0E948F1080914C018F5F80934C01E5
:10235000EBCF833029F40E949D108111EBCFE4CFA5
:10236000843051F40E949D108823F1F263E088ECE0
:1023700090E00E94320FE7CF8530B1F6ECCF1F938B
:10238000CF93DF9300D000D000D0CDB7DEB760E0B0
:1023900070E080E090E01E821D8214E12D813E817C
:1023A000129FF001139FF00D1124E35BFE4F25896E
:1023B00036894789508D69837A838B839C836981B1
:1023C0007A818B819C810E9482162D813E812F5FB4
:1023D0003F4F3E832D832231310501F769837A8394
:1023E0008B839C8369817A818B819C8126960FB631
:1023F000F894DEBF0FBECDBFDF91CF911F9108953E
:102400001F93CF93DF93D0E0C0E010E0CE010E9495
:10241000331181111F5F2196C231D105B9F7812F88
:10242000DF91CF911F9108958F929F92AF92BF92AB
:10243000CF92DF92EF92FF920F931F93CF93DF9390
:1024400000D000D00F92CDB7DEB780E090E0A0E7DB
:10245000B2E48093520190935301A0935401B0933E
:10246000550110E000E091E0E92E90E0F92E1D8288
:102470002AE9822E29E9922EA92C2EE3B22EC70139
:1024800024E0E20EF11C0E940319462F572FBC01D5
:1024900034E1309FC001319F900D1124DC01A35B1A
:1024A000BE4F6D01FD01458B568B678B708F559626
:1024B0008D919D910D90BC91A02D89839A83AB83C2
:1024C000BC8320E030E040E451E4BC01CD010E9437
:1024D0004D1818165CF480E090E0A0E4B1E4F60139
:1024E000858B968BA78BB08FF1E0FD8324E1209F35
:1024F000C001219F900D1124DC01A35BBE4F6D0133
:1025000055968D919D910D90BC91A02D89839A83B4
:10251000AB83BC8320E030E0A901BC01CD010E9467
:10252000EE1687FF0CC001116EC08092620190927E
:102530006301A0926401B0926501B1E0BD830F5FB9
:102540001F4F0231110509F09ACF80E090E00E9400
:10255000FB188093CA028091CA0284302CF083E079
:102560008093CA0221E02D838091CA0287FF04C0B4
:102570001092CA0231E03D83E091CA020E2E000C97
:10258000FF0BEA55FF4F80818093CB020E9400121F
:102590008093D0028D818130F1F51A82198201E099
:1025A00010E084E1F82EA981BA81FA9EF001FB9E29
:1025B000F00D1124E35BFE4F458956896789708DC4
:1025C000C8010C5F1F4F0E941A19E981FA813196E8
:1025D000FA83E983729739F76091CA0280E090E04C
:1025E0000F900F900F900F900F90DF91CF911F9150
:1025F0000F91FF90EF90DF90CF90BF90AF909F90A2
:102600008F900C940919F601158A168A178A108E74
:10261000F1E0FD8394CF0F900F900F900F900F90EB
:10262000DF91CF911F910F91FF90EF90DF90CF90AE
:10263000BF90AF909F908F9008959093E602809303
:10264000E50208958091E5029091E6020895E5EE95
:10265000F2E0118210821282969808952091E5028C
:102660003091E6022115310511F480E064C08091BB
:10267000E702811113C0969A1092E4021092E302CD
:1026800091E09093E7029091DF0290689093DF02CF
:102690009091E00290689093E0020895813029F5CE
:1026A0008091310180FFE1CF8091E3029091E402BB
:1026B0009C012F5F3F4F439729F03093E402209312
:1026C000E302D3CF1092E4021092E30282E08093FF
:1026D000E70296988091DF028F778093DF028091E6
:1026E000E0028F778093E002C0CF823009F0BDCF47
:1026F0008091310180FFB9CF8091E3029091E40293
:10270000AC014F5F5F4F8737910529F05093E4028A
:102710004093E302AACF1092E4021092E3021092D7
:10272000E702215031093093E6022093E50281E06F
:10273000232B09F09ACF089581E02091E502309192
:10274000E602232B09F080E008959BBD8ABD089521
:10275000CF93DF9300D000D0CDB7DEB780918D004E
:10276000813089F580912F01813059F520918C00BD
:1027700029832231B4F5822F082E000C990B9A83FD
:10278000898301960E947B0884E1A981BA818A9F8E
:10279000F0018B9FF00D1124E35BFE4F8589968934
:1027A000A789B08D89839A83AB83BC8320E030E016
:1027B000A901BC01CD010E94EE1681110BC00E943F
:1027C000DD0610928D000F900F900F900F90DF910B
:1027D000CF91089569817A818B819C810E94000844
:1027E000F0CF0E94D6068091CB02082E000C990BE8
:1027F0000E947508E6CFCF93DF93CDB7DEB72A9757
:102800000FB6F894DEBF0FBECDBF1BBA18BA12BA0E
:1028100015BA8FE084BB8D9A939A8B9A96988E9A6C
:102820008F98BF988C98979AC79A949A0E94A309F8
:102830000E94190D0E941A060E9414120E94940C04
:102840000E94D10C80913B01887F836080933B0183
:1028500010922F011092300181E00E94B4010E9479
:102860009E0C809329011DBC1CBC83E690E097BDA3
:1028700086BD82E290E00E94A5138AE18EBD82ECC3
:102880008FBD89B7846089BF7894F12CE12CB12C7D
:10289000C12CD12C1FEF23E1A22E80913C0180FF9F
:1028A0000AC080913C018E7F80933C018091310170
:1028B0008160809331018091310180FF07C0B39422
:1028C00023E0B21203C00E944306B12CD11020C0F5
:1028D0001093E0021093DF021093DE021093DD02EA
:1028E0001093DC028091310180FF0CC08FEFE81A59
:1028F000F80A20EDE21627E0F20621F4F12CE12C93
:10290000DD24D394809131018E7F80933101C5CF36
:1029100081E0D8122DC066E676E686EA90E40E9451
:1029200007081092DE021092DD021092DC02809104
:10293000310180FFE7CF2FEFE21AF20A80EDE816AF
:1029400087E0F806F9F684E190E00E947B080E9497
:10295000BF116F83788789879A876F81788589858A
:102960009A850E940008F12CE12C92E0D92ECACF62
:1029700022E0D21207C00E94A610882319F283E039
:10298000D82EC0CF8091310180FF07C0C39484E16D
:10299000C81203C00E944A0CC12C0E94040E0E945F
:1029A0009E0C082F80913001811143C190913B0111
:1029B00092FD1CC0002309F481C090FF06C09C7FDB
:1029C000926090933B010E94B40180912F0181118C
:1029D0000BC080912901801739F000932901002351
:1029E00009F474C00E948D010E94C60184E00E9417
:1029F000FF09082F80913901801769F0002309F43D
:102A000068C080913B01846080933B0180E00E941C
:102A10009A080093390180918E00813071F5809180
:102A2000310180FF2AC080918F0090919000A09189
:102A30009100B09192000196A11DB11D80938F006D
:102A400090939000A0939100B093920080319742B0
:102A5000A105B10590F010928E0010928F00109297
:102A60009000109291001092920010929300109397
:102A70008C0010922F011093290180E00E94FF0921
:102A8000882309F448C080918C008F5F80938C006C
:102A900083310CF452C010938C0010922F011093CC
:102AA000290110928E0010928F00109290001092C7
:102AB0009100109292001092930055C091FF85CF23
:102AC0009C7F916090933B0181E07DCF0E948108C3
:102AD0008BCF81E00E949A0880913B018A7F8160C0
:102AE00080933B0180912F0181110FC01093290128
:102AF00010928E0010928F00109290001092910010
:102B0000109292001092930084CF813009F081CF0F
:102B100080938D007ECF81E00E94FF09882319F108
:102B200080918C008F3F11F4A0928C0080918C00DA
:102B3000815080938C0087FDB0CF81E080932F017E
:102B400080938D0080919300811105C081E0809376
:102B50008E008093930010928F001092900010923C
:102B600091001092920080E00E94130A81E00E947E
:102B7000130A82E00E94F409811108C082E00E94D9
:102B8000FF09882319F082E00E94130A83E00E9463
:102B9000F409811108C083E00E94FF09882319F01D
:102BA00083E00E94130A82E00E94F4098130D1F58B
:102BB00082E00E94FF098823A9F183E00E94F409C2
:102BC000082F813079F583E00E94FF09882351F1B5
:102BD00082E00E94130A83E00E94130A0E942713D6
:102BE0000E942E0F0093300182E080932F0180E03D
:102BF0000E94C603939886E0E0EAF0E0DE011196B9
:102C000001900D928A95E1F72981216029833A810B
:102C10004B815C816D817E8184E00E94800981E02E
:102C20000E943A060E94A8130E94BC080E942E131C
:102C300069CE813001F50E94CC038823C9F010923F
:102C4000300180913B018A7F816080933B0110922B
:102C50002F011093290110928E0010928F00109274
:102C60009000109291001092920010929300939A0B
:102C70000E942509DBCF8230C9F6011117C084E01C
:102C80000E94FF09882391F010924D0110928E004E
:102C900010928F001092900010929100109292006A
:102CA00010929300F89488E081BDFFCF0E947D0CC4
:102CB000BDCF97FB072E16F4009407D077FD09D0FF
:102CC0000E946D1607FC05D03EF4909581959F4FAC
:102CD0000895709561957F4F0895AA1BBB1B51E124
:102CE00007C0AA1FBB1FA617B70710F0A61BB70B7C
:102CF000881F991F5A95A9F780959095BC01CD0121
:102D000008955058BB27AA270E9499160C941318AF
:102D10000E94051838F00E940C1820F039F49F3FEB
:102D200019F426F40C9402180EF4E095E7FB0C94C9
:102D3000FC17E92F0E94241858F3BA17620773078B
:102D40008407950720F079F4A6F50C9446180EF444
:102D5000E0950B2EBA2FA02D0B01B90190010C01AB
:102D6000CA01A0011124FF27591B99F0593F50F4C3
:102D7000503E68F11A16F040A22F232F342F44271B
:102D8000585FF3CF469537952795A795F040539513
:102D9000C9F77EF41F16BA0B620B730B840BBAF0E3
:102DA0009150A1F0FF0FBB1F661F771F881FC2F74E
:102DB0000EC0BA0F621F731F841F48F48795779562
:102DC0006795B795F7959E3F08F0B0CF9395880F1C
:102DD00008F09927EE0F9795879508950E94D817C8
:102DE00008F481E008950E9407170C9413180E94BC
:102DF0000C1858F00E94051840F029F45F3F29F0A4
:102E00000C94FC1751110C9447180C9402180E9452
:102E1000241868F39923B1F3552391F3951B550BAF
:102E2000BB27AA2762177307840738F09F5F5F4F9D
:102E3000220F331F441FAA1FA9F335D00E2E3AF0DC
:102E4000E0E832D091505040E695001CCAF72BD0F4
:102E5000FE2F29D0660F771F881FBB1F2617370745
:102E60004807AB07B0E809F0BB0B802DBF01FF2777
:102E700093585F4F3AF09E3F510578F00C94FC1741
:102E80000C9447185F3FE4F3983ED4F3869577950A
:102E90006795B795F7959F5FC9F7880F911D969530
:102EA000879597F90895E1E0660F771F881FBB1F8C
:102EB000621773078407BA0720F0621B730B840B39
:102EC000BA0BEE1F88F7E09508950E946C1768947E
:102ED000B1110C94471808950E942C1888F09F5740
:102EE00098F0B92F9927B751B0F0E1F0660F771F2E
:102EF000881F991F1AF0BA95C9F714C0B13091F024
:102F00000E944618B1E008950C944618672F782F58
:102F10008827B85F39F0B93FCCF3869577956795E8
:102F2000B395D9F73EF490958095709561957F4F54
:102F30008F4F9F4F0895E89409C097FB3EF49095FA
:102F40008095709561957F4F8F4F9F4F9923A9F082
:102F5000F92F96E9BB279395F69587957795679511
:102F6000B795F111F8CFFAF4BB0F11F460FF1BC055
:102F70006F5F7F4F8F4F9F4F16C0882311F096E9E8
:102F800011C0772321F09EE8872F762F05C0662396
:102F900071F096E8862F70E060E02AF09A95660F4F
:102FA000771F881FDAF7880F9695879597F9089508
:102FB000990F0008550FAA0BE0E8FEEF161617064A
:102FC000E807F907C0F012161306E407F50798F0B2
:102FD000621B730B840B950B39F40A2661F0232BCB
:102FE000242B252B21F408950A2609F4A140A69547
:102FF0008FEF811D811D089597F99F6780E870E02C
:1030000060E008959FEF80EC089500240A9416165E
:10301000170618060906089500240A9412161306C6
:10302000140605060895092E0394000C11F4882354
:1030300052F0BB0F40F4BF2B11F460FF04C06F5F70
:103040007F4F8F4F9F4F089557FD9058440F551F46
:1030500059F05F3F71F04795880F97FB991F61F01A
:103060009F3F79F087950895121613061406551F91
:10307000F2CF4695F1DF08C0161617061806991FFD
:10308000F1CF86957105610508940895E894BB27F2
:1030900066277727CB0197F908950E94D81708F47F
:1030A0008FEF08950E9465180C9413180E9405185C
:1030B00038F00E940C1820F0952311F00C94FC17A6
:1030C0000C94021811240C9447180E94241870F3D1
:1030D000959FC1F3950F50E0551F629FF001729FBD
:1030E000BB27F00DB11D639FAA27F00DB11DAA1FCC
:1030F000649F6627B00DA11D661F829F2227B00D19
:10310000A11D621F739FB00DA11D621F839FA00DA3
:10311000611D221F749F3327A00D611D231F849FF3
:10312000600D211D822F762F6A2F11249F5750404A
:103130009AF0F1F088234AF0EE0FFF1FBB1F661FC5
:10314000771F881F91505040A9F79E3F510580F08E
:103150000C94FC170C9447185F3FE4F3983ED4F3AB
:10316000869577956795B795F795E7959F5FC1F732
:10317000FE2B880F911D9695879597F90895DC0190
:1031800001C06D9341505040E0F70895BB274A308D
:1031900031F4992322F4BDE2909581959F4F0C94D0
:1031A000D218BB27FB015527AA27880F991FAA1FF2
:1031B000A41710F0A41B83955051B9F7A05DAA3352
:1031C00008F0A95DA193009779F7B111B19311921D
:1031D000CB010C94EB18DC01FC01672F7191772374
:1031E000E1F7329704C07C916D9370836291AE17C2
:1031F000BF07C8F30895E199FECF9FBB8EBBE09A4D
:1032000099278DB30895A6E1B0E044E050E00C9416
:103210002819262FE199FECF9FBB8EBBE09A01971C
:103220000DB2021631F02DBB0FB6F894E29AE19A76
:103230000FBE08950396272F0E940A190E940919AC
:10324000252F0E940A19242F0C940A19DC01CB01A6
:10325000FC01E199FECF06C0FFBBEEBBE09A3196C0
:103260000DB20D9241505040B8F70895F894FFCF39
:10327000000086430000A040060608060A060C0669
:103280000E0610061206140616061806FFFF01FFAA
:103290001F0F220F250F280FCDCCCC3DFF000000C3
:1032A0000000000000403F065B4F666D7C077F67B3
:1032B00000000000000016202E44220028002F00ED
:0432C00035003B009A
:00000001FF
