:040000000CEF00F011
:10000800FACF17F0FBCF18F0E1CF19F0BBED12F0E3
:04001800BCEF16F033
:10080000003F065B4F666D7C077F6783014001FDFB
:1008100000BA00770000000000000016202E4400FF
:100820004000926B9251100D060EF324D96E010E0A
:10083000F420DA6EDF5001E0C5D00001925107ECE0
:100840001BF0000901E1BED000019251100D0F0E06
:10085000F324D96E010EF420DA6EDFA0B3D09251EA
:10086000100D090EF324D96E010EF420DA6EDFA00C
:1008700028D09251100D0F0EF324D96E010EF420E2
:10088000DA6EDF829251100D090EF324D96E010E3B
:10089000F420DA6EDFA20AD09251100D060EF32476
:1008A000D96E010EF420DA6E080E5ED0000192516E
:1008B000100D060EF324D96E010EF420DA6E010E2F
:1008C00053D000019251100D090EF324D96E010E80
:1008D000F420DA6EDFA40AD09251100D060EF32434
:1008E000D96E010EF420DA6E060E3ED00001925150
:1008F000100D090EF324D96E010EF420DA6EDFA676
:100900000AD09251100D060EF324D96E010EF42078
:10091000DA6E070E29D000019251100D090EF32452
:10092000D96E010EF420DA6EDFA80AD09251100DB4
:10093000060EF324D96E010EF420DA6E040E14D0E4
:1009400000019251100D090EF324D96E010EF4200E
:10095000DA6EDFAA0AD09251100D060EF324D96E7A
:10096000010EF420DA6E050EDF6E00019251100DBB
:100970000F0EF324D96E010EF420DA6EDF88925147
:10098000100D0E0EF324D96E010EF420DA6EDF5036
:1009900019E09251100D0E0EF324D96E010EF420C1
:1009A000DA6EDF50916F9151CE0FD96EDA6A010E77
:1009B000DF6E9251100D0F0EF324D96E010EF4204C
:1009C000DA6EDF8600019251100D060EF324D96E07
:1009D000010EF420DA6E070EDF642BD09251100D59
:1009E000060EF324D96E010EF420DA6EDF50916FFB
:1009F0000B0E915D1EE29251100D0F0EF324D96E75
:100A0000010EF420DA6EDFB014D09251100D070EF3
:100A1000F324D96E010EF420DA6EDE6ADD6A92519B
:100A2000100D060EF324D96E010EF420DA6E030EBB
:100A3000DF6E00019251100D060EF324D96E010EE7
:100A4000F420DA6E080EDF6230D09251100D0A0EDB
:100A5000F324D96E010EF420DA6E9251100D070EB8
:100A6000F324E16E010EF420E26EE62A000EE52288
:100A7000E652DE52DD50E55C02E1DF50E75C15E353
:100A800000019251100D070EF324D96E010EF420CF
:100A9000DA6EDE6ADD6A9251100D060EF324D96E0D
:100AA000010EF420DA6E090EDF6E00019251100D76
:100AB000060EF324D96E010EF420DA6E090EDF6201
:100AC0001DD09251100D0F0EF324D96E010EF4209B
:100AD000DA6EDFB213D09251100D0F0EF324D96EDF
:100AE000010EF420DA6EDF829251100D060EF3240F
:100AF000D96E010EF420DA6E0A0EDF6E00019251FB
:100B0000100D060EF324D96E010EF420DA6E0A0ED3
:100B1000DF6230D09251100D0C0EF324D96E010E0D
:100B2000F420DA6E9251100D070EF324E16E010EDF
:100B3000F420E26EE62A000EE522E652DE52DD5097
:100B4000E55C02E1DF50E75C15E300019251100D16
:100B5000070EF324D96E010EF420DA6EDE6ADD6A28
:100B60009251100D060EF324D96E010EF420DA6EA8
:100B7000090EDF6E00019251100D060EF324D96E9E
:100B8000010EF420DA6E060EDF621DD09251100DB8
:100B90000F0EF324D96E010EF420DA6EDFB013D0FD
:100BA0009251100D0F0EF324D96E010EF420DA6E5F
:100BB000DF829251100D060EF324D96E010EF4203F
:100BC000DA6E030EDF6E00019251100D060EF32453
:100BD000D96E010EF420DA6E070EDF6213D0925147
:100BE000100D0F0EF324D96E010EF420DA6EDF82A1
:100BF0009251100D060EF324D96E010EF420DA6E18
:100C0000020EDF6E00019251100D060EF324D96E14
:100C1000010EF420DA6E040EDF62B1D09251100D95
:100C2000070EF324D96E010EF420DA6EDE2A000ED0
:100C3000DD229251100D0F0EF324D96E010EF42017
:100C4000DA6EDFB043D0886B480E896F420E8A6F30
:100C50009251100D070EF324D96E010EF420DA6EB6
:100C6000DECF85F0DDCF86F0DCEC1EF085C08BF0AA
:100C700086C08CF087C08DF034EC1BF027E39251D6
:100C8000100D070EF324D96E010EF420DA6EDE6A21
:100C9000DD6A00019251100D0F0EF324D96E010E82
:100CA000F420DA6EDF829251100D0F0EF324D96E0C
:100CB000010EF420DA6EDF949251100D060EF3242B
:100CC000D96E010EF420DA6E030EDF6E0001886B20
:100CD000480E896F420E8A6F9251100D070EF32451
:100CE000D96E010EF420DA6EDECF85F0DDCF86F00E
:100CF000DCEC1EF085C08BF086C08CF087C08DF0D8
:100D000034EC1BF03CE29251100D070EF324D96E27
:100D1000010EF420DA6EDE6ADD6A00019251100DD8
:100D20000F0EF324D96E010EF420DA6EDF82925199
:100D3000100D0F0EF324D96E010EF420DA6EDF844D
:100D40009251100D090EF324D96E010EF420DA6EC3
:100D5000DFB20AD09251100D060EF324D96E010EA7
:100D6000F420DA6E010E0AD000019251100D060E29
:100D7000F324D96E010EF420DA6E0A0EDF6E000144
:100D80009251100D060EF324D96E010EF420DA6E86
:100D9000050EDF629CD09251100D070EF324D96E20
:100DA000010EF420DA6EDE2A000EDD229251100DC3
:100DB0000F0EF324D96E010EF420DA6EDFB043D0AB
:100DC000886B480E896F420E8A6F9251100D070E84
:100DD000F324D96E010EF420DA6EDECF85F0DDCF7C
:100DE00086F0DCEC1EF085C08BF086C08CF087C0EE
:100DF0008DF034EC1BF027E39251100D070EF32415
:100E0000D96E010EF420DA6EDE6ADD6A00019251BD
:100E1000100D0F0EF324D96E010EF420DA6EDF826E
:100E20009251100D0F0EF324D96E010EF420DA6EDC
:100E3000DF949251100D060EF324D96E010EF420AA
:100E4000DA6E030EDF6E00019251100D070EF324CF
:100E5000D96E010EF420DA6EDECF85F0DDCF86F09C
:100E6000DCEC1EF085C088F086C089F087C08AF06F
:100E70008B6BC80E8C6F420E8D6F34EC1BF027E32A
:100E80009251100D070EF324D96E010EF420DA6E84
:100E9000DE6ADD6A00019251100D0F0EF324D96E47
:100EA000010EF420DA6EDF829251100D0F0EF32442
:100EB000D96E010EF420DA6EDF849251100D060E09
:100EC000F324D96E010EF420DA6E020EDF6E0001FB
:100ED0009251100D060EF324D96E010EF420DA6E35
:100EE000010EDF6214D09251100D0F0EF324D96E53
:100EF000010EF420DA6EDFB00AD09251100D060E0A
:100F0000F324D96E010EF420DA6E030EDF6E0001B9
:100F10009251100D060EF324D96E010EF420DA6EF4
:100F2000020EDF621DD09251100D0F0EF324D96E08
:100F3000010EF420DA6EDFB013D09251100D0F0EB7
:100F4000F324D96E010EF420DA6EDF929251100D67
:100F5000060EF324D96E010EF420DA6E0B0EDF6E4E
:100F600000019251100D060EF324D96E010EF420EB
:100F7000DA6E030EDF6214D09251100D0F0EF324BF
:100F8000D96E010EF420DA6EDFB20AD09251100D44
:100F9000060EF324D96E010EF420DA6E0B0EDF6E0E
:100FA00000019251100D060EF324D96E010EF420AB
:100FB000DA6E0B0EDF6235D09251100D0E0EF32457
:100FC000D96E010EF420DA6EDF5018E09251100D48
:100FD0000E0EF324D96E010EF420DA6EDF50916FFD
:100FE0009151CE0FD96EDA6ADF6A9251100D0F0E51
:100FF000F324D96E010EF420DA6EDF9600019251CF
:10100000100D060EF324D96E010EF420DA6EDF6A9D
:101010009251100D0F0EF324D96E010EF420DA6EEA
:10102000DF980001922B040E926512EF04F0040C7D
:1010300000019D6B9E6B9F6BE651800A7F0F01E262
:101040002CD2E60516E117EC20F0000901E125D2CB
:10105000000EE8CFBEF22450231004E1030E00017D
:10106000E66F02D00001E62BD36BD46BD56BD66B49
:1010700014D2E651020A07E157EC17F0000901E12A
:101080000CD2E62B0AD2D7A105D0D32B000ED42345
:10109000D523D623E651030A11E034D022EEBEF068
:1010A000DF50916F926B91BF9207D7EC1CF0000953
:1010B0000BE1BEC2E8FF010FE8CFBEF222EEBEF0A8
:1010C000DF50800A6E0FEAE3120E22EEBEF0DF62FE
:1010D00012D097EC1FF0110A09E1656BC80E646F1E
:1010E000030E666FA5EC1EF0070E81D1110E2AECDF
:1010F0001CF0060E7CD122EEBEF0DF502AEC1CF074
:10110000040E75D1E651040A01E063D117EC20F01A
:10111000000901E1C2D122EEBEF0DF50100D950EA4
:10112000F324D96E010EF420DA6EDE6ADD6A22EE57
:10113000BEF0DF50100D900EF3240001746F010E0D
:10114000F420756F22EEBEF0DF50100D8A0EF324EE
:10115000D96E010EF420DA6EDECF76F0DECF77F0B6
:10116000DDCF78F074C0D9FF75C0DAFFDECF68F04C
:10117000DECF69F0DDCF6AF076C06BF077C06CF03F
:1011800078C06DF00DEC12F074C0D9FF75C0DAFFB5
:1011900068C0DEFF69C0DEFF6AC0DDFF22EEBEF080
:1011A000DF50100D900EF324D96E010EF420DA6E8C
:1011B000DECF88F0DECF89F0DDCF8AF022EEBEF000
:1011C000DF50100D8D0EF324D96E010EF420DA6E6F
:1011D000DECF8BF0DECF8CF0DDCF8DF034EC1BF06A
:1011E00066E322EEBEF0DF50100D900EF324D96EB0
:1011F000010EF420DA6EDECF74F0DECF75F0DDCFB5
:1012000076F022EEBEF0DF50100D8D0EF324D96E75
:10121000010EF420DA6EDECF77F0DECF78F0DDCF8E
:1012200079F0EFEC1DF074C09DF075C09EF076C0B3
:101230009FF09DC088F09EC089F09FC08AF08B6BA4
:10124000800E8C6F3F0E8D6F34EC1BF020E39DC041
:1012500068F09EC069F09FC06AF06B6B800E6C6F87
:10126000BF0E6D6F0DEC12F068C09DF069C09EF06E
:101270006AC09FF022EEBEF0DF50100D950EF324F1
:10128000D96E010EF420DA6EDE2A000EDD2222EE87
:10129000BEF0DF50100D900EF324D96E010EF42035
:1012A000DA6E9DC0DEFF9EC0DEFF9FC0DDFF22EE36
:1012B000B5F0DECF95F0DDCF96F0FF0E9769986917
:1012C00084C176F085C177F086C178F001EC15F025
:1012D00076C099F077C09AF078C09BF079C09CF006
:1012E0009751992798519A2396519A1902E195514D
:1012F00099191AE1000E886B896B8A6B9DC08BF07F
:101300009EC08CF09FC08DF034EC1BF00DE222EEFD
:10131000BEF0DF50100D950EF324D96E010EF420AF
:10132000DA6EDE2A000EDD2222EEBEF0DF50100D56
:101330008D0EF324D96E010EF420DA6EDECF76F036
:10134000DECF77F0DDCF78F001EC15F076C095F0C8
:1013500077C096F078C097F079C098F022EEBEF092
:10136000DF50100D950EF324D96E010EF420DA6EC5
:101370009551DE269651DD2222EEBEF0DF50100D93
:10138000950EF324D96E010EF420DA6EDECF95F0BF
:10139000DDCF96F022EEBEF0DF50100D930EF32459
:1013A000D96E010EF420DA6E9551DE269651DD22BB
:1013B00022EEBEF0DF50100D950EF324D96E010E13
:1013C000F420DA6EDECF60F0DDCF61F02CEC20F09F
:1013D00058D6E651050A0DE111EC20F000095DE058
:1013E000BEC2E8FF010FE8CFBEF2030E0001E66FB8
:1013F00054D0E651060A0DE117EC20F000094DE04B
:101400000001656BC80E646F030E666FA5EC1EF0DD
:1014100038D6E651070A41E117EC20F000093DE01B
:1014200080C195F081C196F082C197F083C198F098
:1014300000019551D35D9651D4599751D559985182
:10144000D6592BE3D36BD46BD56BD66B000EE8CF9C
:10145000BEF2030EE66F84C176F085C177F086C1D7
:1014600078F001EC15F076C095F077C096F078C072
:1014700097F079C098F022EEB5F0DE2A000EDD225A
:10148000DE529651DD1895C0E8FFD8B4DF1805E1AB
:10149000000EE8CFB5F2E8CFB6F21200A06BED6710
:1014A0001BD0000E42EC1FF000090AE00001DD2B0A
:1014B000DD51800A6D0FD8B0DD6B010EDC6F0CD0F2
:1014C000010E42EC1FF0000907E00001DD07DDAF6F
:1014D000F4D7120EDD6FF1D7000E8AEC1FF0010E6B
:1014E0008AEC1FF0020E51EC1FF0000901E097D0CA
:1014F000020E42EC1FF0000901E191D00001ED67FE
:101500008BD0DD51800A976F120E800A975D6AE2D8
:10151000DD51100D870EF324D96E010EF420DA6E22
:10152000DE50DE10DD100FE1DD51100D870EF324CB
:10153000D96E010EF420DA6E9A0EDE6E990EDE6E12
:101540003E0EDD6E2AD0DD51100D870EF324746F30
:10155000010EF420756FCD0E766FCC0E776F3D0EB9
:10156000786F74C0D9FF75C0DAFFDECF68F0DECFC8
:1015700069F0DDCF6AF076C06BF077C06CF078C0B0
:101580006DF00DEC12F074C0D9FF75C0DAFF68C0C1
:10159000DEFF69C0DEFF6AC0DDFFDD51100D870E82
:1015A000F324D96E010EF420DA6EDECF88F0DECFA0
:1015B00089F0DDCF8AF08B6B400E8C6F410E8D6F02
:1015C00034EC1BF027E3DD51100D870EF324D96EA8
:1015D000010EF420DA6EDE6A400EDE6E410EDD6E24
:1015E000DD5218D022EEA7F0DF2ADF50800A7C0FF0
:1015F00003E3000EE8CFA7F2A7C297F097511B0FA5
:10160000986F98C0F6FF080EF76E0800F5CF99F0B6
:1016100099C0A8F2010EDC6F020E8AEC1FF0030ED7
:1016200051EC1FF0000901E0A5D0030E42EC1FF0C1
:10163000000901E19FD00001ED6799D0DD51800ADA
:10164000976F120E800A975D76E2DD51100D870EBE
:10165000F3247A6F010EF4207B6FCD0E7C6FCC0EDD
:101660007D6F3D0E7E6F7AC0D9FF7BC0DAFFDECF83
:1016700074F0DECF75F0DDCF76F07CC077F07DC002
:1016800078F07EC079F0EFEC1DF07AC0D9FF7BC016
:10169000DAFF74C0DEFF75C0DEFF76C0DDFFDD67F8
:1016A00025D0DD51100D870EF324D96E010EF420E4
:1016B000DA6EDECF88F0DECF89F0DDCF8AF09A0EC9
:1016C0008B6F990E8C6F3E0E8D6F34EC1BF04DE2DC
:1016D000DD51100D870EF324D96E010EF420DA6E61
:1016E0009A0EDE6E990EDE6E3E0E22D0DD51100D8A
:1016F000870EF324D96E010EF420DA6EDECF88F067
:10170000DECF89F0DDCF8AF09A0E8B6F990E8C6F49
:101710003E0E8D6F34EC1BF028E2DD51100D870E6C
:10172000F324D96E010EF420DA6E000EDE6ADE6A52
:10173000DD6EDD521AD0A7C2E8FFFF0FE8CFA7F297
:10174000A7C297F097AF03D0030EE8CFA7F2A7C2C6
:1017500097F097511B0F986F98C0F6FF080EF76E21
:101760000800F5CF99F099C0A8F2010EDC6F030EC6
:101770008AEC1FF0040E42EC1FF000091DE0040E7D
:101780008AEC1FF00001DD51800A976F120E800A6B
:10179000975D12E2ED51010ED8A4000EED6FED51F0
:1017A00007E0DD5142EC20F0000ECAEC1EF004D040
:1017B000010EDC6FCAEC1EF0020E51EC1FF00001AE
:1017C000976F97055FE1020E42EC1FF000095AE0A7
:1017D000030E51EC1FF00001976F970553E1030EC4
:1017E00042EC1FF000094EE0020E8AEC1FF0030EDF
:1017F0008AEC1FF00001A16BA151030D000EF32430
:10180000636F000EF420646FA151100D870EF32456
:10181000D96E010EF420DA6EDECF65F0DECF66F011
:10182000DDCF67F06CEC1EF0A12B110EA165E4D7A3
:10183000A7C260F0360EB5EC1CF059EC1EF0976FA5
:1018400097C0ACF2ED6B010ECAEC1EF0150EF66EF1
:10185000080EF76E20EE9AF0060E0900F5CFDEFFB7
:10186000E82EFBD700019A8720EE9AF010EE60F088
:10187000060EDECFE6FFE82EFCD7040EC0EC1DF00E
:10188000010EA06F0001A05112000101716B726B7B
:10189000736B896A8B6A8C6A8D6A8A6A0F0EC16E55
:1018A000CF0EB46E6D6A080E6F6E898A929A8D8023
:1018B00096909594959095969592950ECB6E010E77
:1018C0000001616F830E606F75EC1DF09492050E40
:1018D000CA6E0C0EBA6E96829480968403EC1AF04F
:1018E0002BEC14F0B6EC1BF023EC11F07DEC1FF0A8
:1018F00005EC20F0EB95EB81EB83E76BE96B010ED8
:1019000022EC1FF0A6EC1AF00101756F75C1ECF026
:101910009D82F28CF28E0001EAA102D0EA91D78179
:101920000101716708D057EC17F0000901E150D1AF
:101930000101712B4DD10001D7A110D00101722BF3
:101940007251140A03E1726B36EC20F00101732B23
:101950007351030A03E1736B86EC19F00CEC17F07A
:10196000A6EC1AF00101756F0001E96702D1EBB531
:1019700026D00101755109E00001EBA10ED0EB91D9
:10198000EB83000E22EC1FF008D00001EBA305D082
:10199000EB93EB81010E22EC1FF00001E7670DD005
:1019A000EC510101751909E075C1ECF0755103E0C6
:1019B0007FEC1EF002D071EC1CF018EC08F0040E65
:1019C00042EC1FF0746F0001EE51010174191EE02A
:1019D000745106E00001EB85000E06EC1EF014D0F9
:1019E000010E06EC1EF00001EB95EB81E76708D0D5
:1019F000E76BEC69F96BFA6BFB6BFC6BFD6BFE6BD9
:101A0000E70502E1010EF86F74C1EEF00001F9057F
:101A1000D8B4D7A117D0FA2B000EFB23FC23FD234B
:101A2000100EFA5D270EFB59000EFC59000EFD59F1
:101A300009E3F96BFA6BFB6BFC6BFD6BFE6BF769F3
:101A4000E76BEC69000E42EC1FF0000914E00001A6
:101A5000F72BF751800A6D0F02E3F7691AD0010ED8
:101A6000E76FF86FFE6702D0F96FFE6FFA6BFB6BE2
:101A7000FC6BFD6B16D0010E42EC1FF0000911E06B
:101A80000001F72902E1130EF76FF7070001F7AF26
:101A9000E6D7E76BEC69F96BFA6BFB6BFC6BFD6BE4
:101AA000FE6B000E8AEC1FF0010E8AEC1FF0020E96
:101AB00051EC1FF0000908E1020E42EC1FF0000992
:101AC00003E0020E8AEC1FF0030E51EC1FF0000938
:101AD00008E1030E42EC1FF0000903E0030E8AEC5C
:101AE0001FF0020E51EC1FF06A6F6A053DE1020E15
:101AF00042EC1FF0000938E0030E51EC1FF06A6F52
:101B00006A0532E1030E42EC1FF000092DE0020EDF
:101B10008AEC1FF0030E8AEC1FF027EC20F04FEC4C
:101B200020F0010E0001E96F020EE76F000E0BECD2
:101B300020F0898A150EF66E080EF76E21EE6BF016
:101B4000060E0900F5CFDEFFE82EFBD701016B8101
:101B500021EE6BF010EE60F0060EDECFE6FFE82E11
:101B6000FCD7040EC0EC1DF0BCEC1FF016EC16F018
:101B70002DD0E90514E1B8EC1EF000090DE00001DC
:101B8000E96BEB95EB81E76BEC69F96BFA6BFB6B3F
:101B9000FC6BFD6BFE6B899A3DEC1AF017D0E95196
:101BA000020A14E1010175670FD0040E42EC1FF028
:101BB00000090AE0000EE8CF76F10001F96BFA6B3C
:101BC000FB6BFC6BFD6BFE6B5EEC20F0D7EC1AF050
:101BD0000001D791A0D6D60EE8CF77F1980EE8CFC6
:101BE00078F13C0EE8CF79F1000EE8CF7AF1700E73
:101BF000E8CF7BF1420EE8CF7CF1000EE8CF7DF11B
:101C0000800EE8CF7EF13F0EE8CF7FF17AC168F019
:101C10007BC169F07CC16AF07DC16BF07EC16CF064
:101C20007FC16DF061EC15F068C084F169C085F189
:101C30006AC086F1600E6B6F6A0E6C6F470E6D6F37
:101C40007DC168F07EC169F07FC16AF097EC14F045
:101C500068C076F069C077F06AC078F001EC15F0E2
:101C600076C095F077C096F078C097F079C098F07C
:101C700095C080F196C081F197C082F198C083F140
:101C8000A06BA16BA0C091F0A1C092F0D7EC1CF0AA
:101C9000000901E1C7D0A0C095F0A1C096F0953B26
:101CA000963BF00E961795510F0B9613F00E951765
:101CB000870E9525D96E010E9621DA6EDECF68F07B
:101CC000DECF69F0DDCF6AF077C16BF078C16CF0E0
:101CD00079C16DF061EC15F068C09DF069C09EF0AF
:101CE0006AC09FF09DC068F09EC069F09FC06AF016
:101CF00084C16BF085C16CF086C16DF061EC15F0AC
:101D0000A0C095F0A1C096F0953B963BF00E9617BB
:101D100095510F0B9613F00E95178A0E9525D96ED7
:101D2000010E9621DA6E68C0DEFF69C0DEFF6AC070
:101D3000DDFFA0C095F0A1C096F0953B963BF00E5C
:101D4000961795510F0B9613F00E95178A0E952541
:101D5000D96E010E9621DA6EDECF88F0DECF89F0E3
:101D6000DDCF8AF08B6B800E8C6F3F0E8D6F34EC65
:101D70001BF042E3A0C095F0A1C096F0953B963BC6
:101D8000F00E961795510F0B9613F00E95178A0EBD
:101D90009525D96E010E9621DA6EDECF76F0DECF74
:101DA00077F0DDCF78F001EC15F076C097F077C0D2
:101DB00098F078C099F079C09AF097C085F098C0F3
:101DC00086F0DCEC1EF0A0C09BF0A1C09CF09B3B19
:101DD0009C3BF00E9C179B510F0B9C13F00E9B1716
:101DE0008D0E9B25D96E010E9C21DA6E85C0DEFF1B
:101DF00086C0DEFF87C0DDFFA0C095F0A1C096F0D1
:101E0000953B963BF00E961795510F0B9613F00EDF
:101E10009517900E9525D96E010E9621DA6EDE6A21
:101E2000DE6ADD6AA04BA12BA151800A800F120E41
:101E3000D8B4A05D01E226D7000EE8CFB5F2E8CF16
:101E4000B6F2000CA96B800EAA6F3F0EAB6F93C069
:101E5000ACF013D0A9C068F0AAC069F0ABC06AF0BA
:101E60006B6B200E6C6F410E6D6F97EC14F068C0B9
:101E7000A9F069C0AAF06AC0ABF0AC070001AC29B8
:101E8000E9E194C088F095C089F096C08AF0A9C0B5
:101E90008BF0AAC08CF0ABC08DF034EC1BF013E3D8
:101EA000A9C068F0AAC069F0ABC06AF06B6B800E85
:101EB0006C6FBF0E6D6F0DEC12F068C094F069C0CE
:101EC00095F06AC096F092C061F091C060F093C046
:101ED00062F057EC1DF0A96B800EAA6F3F0EAB6F3E
:101EE000AC6B7BD094C088F095C089F096C08AF026
:101EF000A9C08BF0AAC08CF0ABC08DF034EC1BF005
:101F000058E2AC51800A976F9351800A975D3BE28B
:101F10006B6B200E6C6F410E6D6F94C068F095C0B6
:101F200069F096C06AF097EC14F068C076F069C06A
:101F300077F06AC078F001EC15F076C097F077C0C2
:101F400098F078C099F079C09AF097C0A6F098C040
:101F5000A7F0AC670DD0010EF66E080EF76E20EEFE
:101F600001F09151D9269251DA220800F5CFDFFF16
:101F700020EE01F09151D9269251DA22000EDB8E2B
:101F8000ACC0A8F032D094C076F095C077F096C07F
:101F900078F001EC15F076C097F077C098F078C033
:101FA00099F079C09AF097C0A6F098C0A7F0AC0558
:101FB000A86FA9C068F0AAC069F0ABC06AF06B6BEB
:101FC000200E6C6F410E6D6F97EC14F068C0A9F095
:101FD00069C0AAF06AC0ABF0AC2B9351800A976F2E
:101FE000AC51800A975D01E37DD7A6C06FF0A7C012
:101FF00070F0726B0A0E716F9C0E19EC1DF0AC6BD9
:1020000021D0AC519C0FD96EDA6ADF50976FD00E99
:1020100097279751010F986F98C0F6FF080EF76E3B
:102020000800F5CF99F0A8C09AF09B6B9ABF9B0768
:102030009A519125D96E9B519221DA6E9951DF12F6
:10204000A807AC2BAC519C0FD96EDA6ADF50D8B41C
:102050001200D7D7040E0001616F140EE82EFED7D0
:1020600000016151100D040EF324D96E010EF4200D
:10207000DA6EDF5019E16151100D0101000EF324F9
:10208000D96E010EF420DA6E01D80AD00500FA6E7E
:10209000DE50FD6EDE50FE6EF850FF6EFA501200FC
:1020A000000901E0CBD04DD000016151100D040EAC
:1020B000F324D96E010EF420DA6E010EDF624CD0EB
:1020C0006151100D050EF324D96E010EF420DA6E65
:1020D000DF2A010EDF62B2D06151100D050EF3242C
:1020E000D96E010EF420DA6EDF6A6151100D010124
:1020F000000EF324D96E010EF420DA6E01D80AD056
:102100000500FA6EDE50FD6EDE50FE6EF850FF6E7A
:10211000FA50120000090BE000016151100D040E8D
:10212000F324D96E010EF420DA6EDF0687D00001A9
:102130006151100D0F0EF324D96E010EF420DA6EEA
:10214000DF8000016151100D040EF324D96E010EE1
:10215000F420DA6EDF2A72D000016151100D040EF6
:10216000F324D96E010EF420DA6E020EDF6219D06C
:102170006151100D0101000EF324D96E010EF420FF
:10218000DA6E01D80AD00500FA6EDE50FD6EDE5020
:10219000FE6EF850FF6EFA5012000001606F60058D
:1021A00080D700016151100D040EF324D96E010E89
:1021B000F420DA6E030EDF6241D06151100D050E7E
:1021C000F324D96E010EF420DA6EDF2A010EDF62ED
:1021D00035D06151100D050EF324D96E010EF42097
:1021E000DA6EDF6A6151100D0101000EF324D96E21
:1021F000010EF420DA6E01D80AD00500FA6EDE5026
:10220000FD6EDE50FE6EF850FF6EFA5012000001B7
:10221000606F600581E16151100D0F0EF324D96EDE
:10222000010EF420DA6EDF906151100D040EF324DC
:10223000D96E010EF420DA6E000EDF6A000161072C
:1022400061BF12000AD79D6B000EE8CF7AF1700EC5
:10225000E8CF7BF1420EE8CF7CF19F6B030E976FC6
:10226000986B9FC099F09A6B99BF9A079751990301
:10227000F3CF9BF0F4CF9CF09A03F3509C27985136
:102280009903F3509C27000E9B25616F000E9C2143
:10229000626FD8EC1DF09F51100D870EF324D96E9C
:1022A000010EF420DA6E61C0DEFF62C0DEFF63C0A3
:1022B000DDFF886B400E896F410E8A6F9F51100DB4
:1022C000870EF324D96E010EF420DA6EDECF8BF088
:1022D000DECF8CF0DDCF8DF034EC1BF00FE29F51A0
:1022E000100D870EF324D96E010EF420DA6EDE6A2B
:1022F000400EDE6E410EDD6E010E9D6F9F51100D82
:10230000870EF324D96E010EF420DA6EDECF97F03B
:10231000DECF98F0DECF99F09951800A800F05E169
:10232000000E985D02E1000E975D1EE29F670ED0E1
:102330009F51100D870EF324D96E010EF420DA6E32
:102340009A0EDE6E990EDE6E3E0E0BD09F51100D72
:10235000870EF324D96E010EF420DA6E000EDE6AC9
:10236000DE6ADD6E010E9D6F9F2B9F51800A6E0FFE
:1023700001E274D7360E33EC1FF00001976F97C05F
:10238000A7F222EEA7F0DF50800A7C0F05E3030ED0
:10239000E8CFA7F2010E9D6FA7C297F097AF05D0C7
:1023A000000EE8CFA7F2010E9D6FA7C297F09751DC
:1023B0001B0F986F98C0F6FF080EF76E0800F5CF58
:1023C00099F099C0A8F259EC1EF0976F97C0ACF243
:1023D0009D0522E19E6B9E51030D000EF324636F59
:1023E000000EF420646F9E51100D870EF324D96EF9
:1023F000010EF420DA6EDECF65F0DECF66F0DDCFC1
:1024000067F06CEC1EF09E2B110E9E65E4D7A7C200
:1024100060F0360EB5EC1CF012006AC06EF06F6B07
:10242000706B69356E3701E36F816E51736F6DC0EC
:102430006EF06F6B706B6C356E3701E36F816E51B0
:10244000726F735109E07251735D0DE27351725DE9
:102450006E6F190E6E5D07E36BC068F06CC069F0BB
:102460006DC06AF087D0725109E07351725D0DE260
:102470007251735D6E6F190E6E5D07E368C068F090
:1024800069C069F06AC06AF075D0060E716F6ABFE4
:10249000718F6DBF718D698F6A6B6C8F6D6B7251AF
:1024A000735D18E2D8906B376C376D3772077251D5
:1024B00073190CE0710771C06EF0070E6E1706E01D
:1024C000F1D7D8906A3369336833732B72517363D1
:1024D000F8D71AD07351725D17E2D8906837693710
:1024E0006A377307725173190CE0710771C06EF08F
:1024F000070E6E1706E0F1D7D8906D336C336B334F
:10250000722B72517363F8D771AF07D0681F691FC0
:102510006A1F682B000E69236A2371AD07D06B1FF9
:102520006C1F6D1F6B2B000E6C236D23716B68513C
:102530006B2769516C236A516D236DAF09D06B1FF6
:102540006C1F6D1F6B2B000E6C236D23010E716FC2
:102550006BC060F06CC061F06DC062F073C063F07E
:1025600071C064F002EC19F060C068F061C069F0FD
:1025700062C06AF012000600E2CF1AF0D9CF1BF059
:10258000DACF1CF0F3CF1DF0F4CF1EF0F6CF1FF022
:10259000F7CF20F0F8CF21F0F5CF22F09EA256D051
:1025A000396608D0BDEC15F078EC20F0800A7E0F7B
:1025B000D8B0392A390418E14250020DF3500B0FFC
:1025C000166E16C0F6FF080EF76E0900F5CF01F083
:1025D0000A00F5CF02F0A7EC1DF0422A4250050A8E
:1025E0002DE1426A392A2AD03950020A07E1422AEB
:1025F0004250200A23E1030E426EF4D73950030AF9
:102600001DE14250020DF3500B0F166E16C0F6FF7F
:10261000080EF76E0900F5CF01F00A00F5CF02F0C1
:10262000A7EC1DF0420642AE09D0010E426E396A97
:10263000020E026E540E016EA7EC1DF0382A3850BF
:10264000140A03E10001EA81386A9E9222C0F5FF74
:1026500021C0F8FF20C0F7FF1FC0F6FF1EC0F4FF27
:102660001DC0F3FF1CC0DAFF1BC0D9FF1AC0E2FF78
:1026700019C0E1FF18C0FBFF17C0FAFF11008B6BF8
:10268000010E8A6F77C08CF00DD08AC060F08BC0CD
:1026900061F0636B0A0E626F92EC1EF060C08AF00C
:1026A00061C08BF08C0700018C29EFE17951800A21
:1026B0007A6F8A51785D8B51800A7A5906E3FF0E52
:1026C0008A25786FFF0E8B21796F78C06FF079C003
:1026D00070F0726B0A0E716F7F0E19EC1DF08C6B2F
:1026E00013D01F0EF66E080EF76E8CC07AF07B6B5F
:1026F0007ABF7B077A517525D96E7B517621DA6EC8
:102700000800F5CFDFFF8C2B8C51800A7A6F775150
:10271000800A7A5DE6E38C6B7F0E11EC1FF060059A
:10272000896F21D08C517F0FD96EDA6ADF507A6FB2
:10273000D00E7A277A51010F7B6F7BC0F6FF080E0F
:10274000F76E0800F5CF7CF089C07DF07E6B7DBF11
:102750007E077D517525D96E7E517621DA6E7C51CA
:10276000DF1289078C2B8C517F0FD96EDA6ADF500C
:10277000D8B41200D7D7746F776B3B6638D07467C4
:1027800033D031EC20F060C075F061C076F0765146
:10279000751126E07651800AF36E8D0EF35C490EBA
:1027A000D8B4755D05E2110E2AEC1CF0040E1DD0A4
:1027B000B80E706FF20E716F75C072F076C073F064
:1027C00070517227715173237351800A800F010E6B
:1027D000D8B4725D3AE3120E2AEC1CF0010E05D05B
:1027E000010E0001776F31D0020E3B6E2ED03B04FC
:1027F00007E117EC20F0000928E0236A246AF0D7EB
:102800003B50020A05E174512AEC1CF03B2A1DD012
:102810003B50030A03E117EC20F015D03B50040AAB
:102820000DE117EC20F0000910E00001656BC80E07
:10283000646F030E666FA5EC1EF0E8D73B50050AE7
:1028400004E117EC20F00009CBE100017705D8B4D2
:102850003B6A77511200150EF66E080EF76E20EEE9
:1028600069F0060E0900F5CFDEFFE82EFBD769817F
:102870006983010E6E6F6B6B190E6A6F6D6B0F0EB5
:102880006C6F20EE69F010EE60F0060EDECFE6FF12
:10289000E82EFCD7000EC0EC1DF020EE69F010EE23
:1028A00060F0060EDECFE6FFE82EFCD7010EC0EC8E
:1028B0001DF0150EF66E080EF76E20EE69F0060E8E
:1028C0000900F5CFDEFFE82EFBD7698B20EE69F01B
:1028D00010EE60F0060EDECFE6FFE82EFCD7020E0B
:1028E000C0EC1DF020EE69F010EE60F0060EDECFB9
:1028F000E6FFE82EFCD7030EC0EC1DF0150EF66EB9
:10290000080EF76E20EE69F0060E0900F5CFDEFF27
:10291000E82EFBD7698720EE69F010EE60F0060E16
:10292000DECFE6FFE82EFCD7040EC0EF1DF06AC034
:102930006EF06F6B706B69356E3701E36F816E51AE
:10294000716F0001716701D00DD06DC06EF06F6BBB
:10295000706B6C356E3701E36F816E51726F0001E1
:10296000726704D0686B696B6A6B4AD072517B0FD7
:1029700071276AC072F06D51721B800E7217698FD9
:102980006C8F6D6B6A6B68516B03F4CFF3FFF46A65
:10299000F3CF73F0F4CF74F0756B68516C03F350A0
:1029A0007327F4507423000E752369516B03F350A1
:1029B0007327F4507423000E752369516C03F35090
:1029C0007427F450752375AF05D0D89075337433E0
:1029D0007333712BD89075337433733373C060F0D5
:1029E00074C061F075C062F071C063F072C064F0D1
:1029F00002EC19F060C068F061C069F062C06AF072
:102A0000120078C07AF07B6B7C6B77357A3701E304
:102A10007B817A51846F0001846705D0766B776B78
:102A2000786B796B4DD0170E7A6F76C07BF077C0DC
:102A30007CF078C07DF07A297E6F04D0D8907D3309
:102A40007C337B337E2FFAD77B517F6F778F786B08
:102A50007651806F7751816F7851826F836B8E0EC4
:102A6000845F84AF0FD08451800A7A6FF10E800AA0
:102A70007A5DD4E3D8908333823381338033843FCB
:102A8000F9D70CD0170E846507D0C8D7D8908037F7
:102A900081378237833784078467F8D77F5108E00E
:102AA000831F821F811F806D000E81238223832359
:102AB00080C076F081C077F082C078F083C079F072
:102AC00012006AC06EF06F6B706B69356E3701E390
:102AD0006F816E51756F0001756701D00DD06DC0AB
:102AE0006EF06F6B706B6C356E3701E36F816E51FA
:102AF000766F0001766704D0686B696B6A6B3CD0B7
:102B0000726B736B746B7651890F755F6AC076F068
:102B10006D51761B800E7617698F6A6B6C8F6D6BAB
:102B2000180E716FD8907237733774376B51685DB8
:102B30006C5169596D516A5907E36B51685F6C516B
:102B4000695B6D516A5B7281D890683769376A3703
:102B5000712FE8D772C060F073C061F074C062F08A
:102B600075C063F076C064F002EC19F060C068F0E4
:102B700061C069F062C06AF012002A50030A2AE1BB
:102B80008CEC1BF000094CE0E0C009F0E1C00AF059
:102B9000EEEC1EF009C00CF00AC00DF00BC00EF0F8
:102BA0000F6AA00E106E410E116E60EC1BF008E370
:102BB00021EE76F0FD0EDF1622EEBDF0DF8007D0AD
:102BC00021EE76F0020EDF1222EEBDF0DF90010E54
:102BD0002A6E26D02A50020A1CE174EC1AF0156EF7
:102BE0001550800A7F0F1CE3150408E122EEBDF0AA
:102BF000DF8021EE76F0FD0EDF16E9D71550020AD0
:102C0000E6E122EEBDF0DF9021EE76F0020EDF125B
:102C1000DED72A50040A04E1DFEC1BF00009D7E1FB
:102C20002A0403E1276A286A2A6A12003150800ABE
:102C30007F0F4EE3310414E117EC20F0000948E067
:102C4000BEC2E8FF010FE8CFBEF222EEBEF0DF50B9
:102C5000800A6E0F03E3000EE8CFBEF2312A38D0AF
:102C60003150020A08E122EEBEF0DF50BBEC13F057
:102C70000009F4E12DD03150030A13E117EC20F0E4
:102C8000000926E022EEBEF0DF500001916F926B4A
:102C900091BF9207D7EC1CF00009E0E1FE0E31264F
:102CA00017D03150040A0BE117EC20F0000910E0B6
:102CB0000001616B060E606F2CEC20F0CFD7315015
:102CC000050A06E111EC20F0000902E0010E316E68
:102CD0001200666F676B66C060F0010E616F626B19
:102CE000602B03D0D89061376237602FFBD767C065
:102CF00063F0010E646F656B632B03D0D89064376B
:102D00006537632FFBD761516417625165176551B1
:102D1000641115E06751040D0101520EF324D96EC0
:102D2000010EF420DA6E01D81FD00500FA6EDE50D5
:102D3000FD6EDE50FE6EF850FF6EFA5012006751C5
:102D4000040D0101500EF324D96E010EF420DA6E49
:102D500001D80AD00500FA6EDE50FD6EDE50FE6E20
:102D6000F850FF6EFA5012000001672B6751800A7D
:102D70007B0FD8B01200AFD701EE76F011EE49F01C
:102D8000EE6AE550E150FCE1E250FAE101EE00F0BC
:102D9000500EEE6AE806FDE100EEB0F03F0EEE6A7E
:102DA000E806FDE100EE23F01F0EEE6AE806FDE105
:102DB0008E0EF66E3F0EF76E000EF86E01EE50F0BE
:102DC00010EE14F00900F5CFEEFFE550E150FAE106
:102DD000DA0EF66E3F0EF76E000EF86E00EEEFF0B4
:102DE00010EE11F00900F5CFEEFFE550E150FAE1E9
:102DF000F40EF66E400EF76E000EF86E0900F5CF79
:102E000042F00900F5CF43F00900F5CF44F0000E81
:102E1000F86E000145EF0CF08EEC1DF046EC1EF054
:102E200035EC18F076C1E8FFFF1940E076C1FFF0FD
:102E3000FF5127E04FEC20F027EC20F0010E06ECCC
:102E40001EF0020E0001E96F898A5EEC20F0150E7B
:102E5000F66E080EF76E20EE90F0060E0900F5CF24
:102E6000DEFFE82EFBD7908120EE90F010EE60F0B0
:102E7000060EDECFE6FFE82EFCD7040EC0EC1DF0F8
:102E800015D0E96BEB95EB8122EEBDF0DF90899ACE
:102E9000E76BEC69F96BFA6BFB6BFC6BFD6BFE6B24
:102EA00049EC20F04CEC20F02BEC14F01200000167
:102EB000686B3A6615D084CF67F0D890673367B1F6
:102EC0000AD0010E656F900E646F040E666FA5EC5C
:102ED0001EF03A2A34D0E4EC1FF0020E3A6E2FD0E6
:102EE0003A0407E117EC20F0000929E0E4EC1FF0B8
:102EF000F0D73A50020A16E117EC20F000091FE063
:102F000076C167F067B309D00001656BC80E646FC6
:102F1000030E666FA5EC1EF0DCD7020E0001686F91
:102F20003A6A0DD03A50030A0AE117EC20F0000982
:102F300006E076C167F067B3F0D7010EEFD7000166
:102F400068511200676B6551800AF36E800EF35C66
:102F5000000ED8B4645D06E2646D651FD8B0652BC1
:102F6000010E676F6351800AF36E800EF35C000EF2
:102F7000D8B4625D06E2626D631FD8B0632B010EA8
:102F8000671B686B696B655164111BE0010E666F0E
:102F900004D0D89064376537662B65AFFAD7D890E0
:102FA000683769376451625D6551635905E364515F
:102FB000625F6551635B6881D89065336433662FC7
:102FC000EED7675104E0686D691FD8B0692B68C0FF
:102FD00062F069C063F012006E6F67C06BF068C08A
:102FE0006CF06BC060F06CC061F069C062F06AC0E8
:102FF00063F005EC1CF060C06BF061C06CF06E2BF0
:103000006C516B11EEE16E51D96EDA6A000EDF6A17
:103010006E0767C060F068C061F069C062F06AC0A6
:1030200063F038EC1DF060516D6F67C060F068C0F0
:1030300061F069C062F06AC063F005EC1CF060C02A
:1030400067F061C068F0090E6D6502D0070E6D274C
:10305000300E6D276E51D96EDA6A6DC0DFFF6E07D4
:1030600068516711D6E16E2B12003D661DD0432AD0
:103070004350080AD8B4436A76C160F043C061F097
:10308000010E0001626F612B02D0D8906237612F70
:10309000FCD762516015656F65512DE065C0E8F0A1
:1030A000E26BE36B3D2A27D03D0425E143C060F08D
:1030B000010E616F626B602B03D0D890613762376D
:1030C000602FFBD776C163F0646B63BF6407615107
:1030D000631762516417645163110CE0D7A10BD0E0
:1030E000E24BE32BD00E0001E25D070EE35903E350
:1030F000E26BE36B3D6A12000101686F6851800A60
:10310000646F120E800A645D2DE2682900018D6FE4
:10311000E86AD8B0E82A010168BFE80600018E6FAE
:10312000B0EC1FF001016851100D870EF324D96E29
:10313000010EF420DA6EDECF65F1DECF66F1DDCF71
:1031400067F17F0E67156611651103E1DBEC1FF077
:1031500015D065C1ADF066C1AEF067C1AFF060ECEF
:103160001FF00CD0FEEC1FF022EEA8F0DF500001A3
:103170008D6F8E6B8DBF8E07A4EC1FF012000101C6
:10318000686F6851800A646F120E800A645D2DE2D8
:10319000682900018D6FE86AD8B0E82A010168BF8C
:1031A000E80600018E6FB0EC1FF001016851100DB0
:1031B000870EF324D96E010EF420DA6EDECF65F1AE
:1031C000DECF66F1DDCF67F17F0E67156611651101
:1031D00003E1DBEC1FF015D065C1ADF066C1AEF0C8
:1031E00067C1AFF060EC1FF00CD0FEEC1FF022EED8
:1031F000A8F0DF5000018D6F8E6B8DBF8E07A4ECA1
:103200001FF01200635104E060516111621109E185
:10321000606B616B626B37D0632BD8906233613324
:103220006033656B666BFE0E6215676F65516611E4
:1032300067110AE0F1D7632B602B000E6123622334
:10324000D890623361336033656B666B6251676F30
:1032500065516611671106E0EED76307D8906037B5
:103260006137623761AFF9D763A1619FD89063334B
:10327000635162136451D8A4628F60C060F061C072
:1032800061F062C062F01200045004E001500210CC
:10329000031009E1016A026A036A37D0042AD89050
:1032A000033202320132066A076AFE0E0314086E08
:1032B0000650071008100AE0F1D7042A012A000E70
:1032C00002220322D890033202320132066A076AD0
:1032D0000350086E06500710081006E0EED70406EB
:1032E000D89001360236033602AEF9D704A0029E0A
:1032F000D8900432045003120550D8A4038E01C0A4
:1033000001F002C002F003C003F012003C0400010F
:103310006A6F6AAF02D0040E6A6F6A51040D010130
:10332000500EF324D96E010EF420DA6E01D80AD0C3
:103330000500FA6EDE50FD6EDE50FE6EF850FF6E38
:10334000FA5012003C50800A0001686F030E800A98
:10335000685D07E2B80E3C24D96EDA6A020EDA2202
:103360000BD03CC068F0696B68BF6907B80E682570
:10337000D96E020E6921DA6EDF508A6E3C5069EC1C
:1033800016F03C2A3C50050AD8B43C6A1200796B0E
:103390007A6B7B6B7C6B7D6B79C068F07AC069F06F
:1033A0007BC06AF07CC077F07DC078F0773B783BDB
:1033B000F00E781777510F0B7813F00E7717870EF2
:1033C0007725D96E010E7821DA6EDECF6BF0DECF75
:1033D0006CF0DDCF6DF00DEC12F068C079F069C0D3
:1033E0007AF06AC07BF07C4B7D2B7D51800A800F88
:1033F000120ED8B47C5DD0E379C074F07AC075F059
:103400007BC076F012009488948A948C948E958870
:10341000400E0101016F740E006F400E116F440EDB
:10342000106F400E216F3A0E206F400E316F8C0EE0
:10343000306F400E416F7C0E406F150EF66E080E19
:10344000F76E20EE69F0060E0900F5CFDEFFE82EDC
:10345000FBD7000169816F6B20EE69F010EE60F020
:10346000060EDECFE6FFE82EFCD76F51C0EC1DF054
:103470006F2B040E6F65F0D7040C3350800A7F0F5A
:1034800032E3330406E117EC20F000092CE0332A84
:103490002AD03350020A0EE132500001916F926B34
:1034A00091BF9207D7EC1CF000091DE03250BBEC35
:1034B00013F0EBD73350030A0EE117EC20F00009AC
:1034C00012E00001616B010E606F2CEC20F0332ADA
:1034D000DE4BDF2B08D03350040A05E111EC20F05D
:1034E0000009D8A433061200036A285027102CE0E4
:1034F0002950F9EC1CF029502526000E29BEFF0E9C
:10350000262229502326000E29BEFF0E242284CF16
:1035100002F0D890023202B002D0010E0ED020EE9E
:1035200027F010EE25F0E652DE52DD50E518DFCF31
:10353000E8FFD8B4E71802E1020E036E0350800AD8
:103540007F0F02E3276A286A03501200416611D0F8
:1035500084CF60F00001D8906033D8906033010EC2
:1035600060B1000E616F371820E061C037F0412A6A
:103570001CD041041AE10001D7A117D0402A4050C5
:10358000140A13E1406A84CF60F0D8906033D89079
:103590006033010E60B1000E616F615120EE37F0B3
:1035A000DF6202D037C036F0416A365012002C502C
:1035B0002B102CE02D6606D08D900001E46BE56B9E
:1035C0002D2A24D02D040EE10001D7A11FD0E44BF9
:1035D000E52BE451320AE51119E1E46BE56B2D2A84
:1035E0008D8014D02D50020A11E10001D7A10ED018
:1035F000E44BE52BE4514B0AE51108E1E46BE56B84
:103600002D6A2B06D8A02C062C502B101200616FAF
:103610006151100D01010E0EF324D96E010EF4203C
:10362000DA6EDF501FE000016151100D0E0EF32421
:10363000D96E010EF420DA6EDF50606F6051CE0F4C
:10364000D96EDA6A010EDF620DD06151100D0101F1
:103650000F0EF324D96E010EF420DA6EDFB602D01D
:10366000000E01D0010E12008AAF0DD08E6B8F6B51
:10367000800E906F88518E5D886F89518F59896F48
:103680008A5190598A6F8DAF0DD08E6B8F6B800EE3
:10369000906F8B518E5D8B6F8C518F598C6F8D51CC
:1036A00090598D6F800E8A1B8D1B8B51885D8C51BC
:1036B00089598D518A5902E2D89001D0D8801200E0
:1036C0000EAE0DD0126A136A800E146E0C50125C8E
:1036D0000C6E0D5013580D6E0E5014580E6E11AE28
:1036E0000DD0126A136A800E146E0F50125C0F6EAA
:1036F00010501358106E11501458116E800E0E1A7F
:10370000111A0F500C5C10500D5811500E5802E257
:10371000D89001D0D8801200036A2850271022E0E8
:103720002950F9EC1CF029502526000E29BEFF0E69
:10373000262284CF02F0D890023202B002D0E04BB1
:10374000E12B20EE27F010EE25F0E652DE52DD50A0
:10375000E518DFCFE8FFD8B4E71806E1236A246A4A
:10376000276A286A010E036E03501200616B1F0E58
:10377000F66E080EF76EBB0E6125D96EDA6A020E80
:10378000DA220800F5CFDFFF612B6151800A7E0F3E
:10379000EEE3616B1F0EF66E080EF76EB80E612534
:1037A000D96EDA6A020EDA220800F5CFDFFF612B4C
:1037B0006151800A7D0FEEE3936A93EF1CF0026A79
:1037C000285027101EE02950F9EC1CF0295025261E
:1037D000000E29BEFF0E262229502326000E29BEE8
:1037E000FF0E242220EE27F010EE25F0E652DE52E6
:1037F000DD50E518DFCFE8FFD8B4E71804E1276A09
:10380000286A010E026E02501200656B666B6351EE
:1038100062111BE0010E646F04D0D89062376337E9
:10382000642B63AFFAD7D890653766376251605D15
:103830006351615905E36251605F6351615B65816A
:10384000D89063336233642FEED765C060F066C0F2
:1038500061F012006D6FC80E676F686B6DC069F024
:103860006A6B69BF6A0767516903F3CF6BF0F4CFE6
:103870006CF06A03F3506C2768516903F3506C27AE
:1038800023506B5D6E6F24506C596F6F6EC064F087
:103890006FC065F0040E666FA5EF1EF03F660AD09C
:1038A0008250010B0001606F351819E060C035F0DF
:1038B0003F2A15D03F0413E10001D7A110D03E2AC2
:1038C0003E50140A0CE13E6A8250010B606F605159
:1038D00020EE35F0DF6202D035C034F03F6A34505C
:1038E000120000018E6B140E8D6FB0EC1FF0200ED5
:1038F000F66E080EF76E0800F5CF8FF08FC0BAF2A3
:10390000200EF66E080EF76E0800F5CF8FF08FC010
:10391000B9F2200EF66E080EF76E0800F5CF8FF0A4
:103920008FC0B8F21200606B6051040D0101500E9F
:10393000F324D96E010EF420DA6E01D80AD0050006
:10394000FA6EDE50FD6EDE50FE6EF850FF6EFA50DD
:1039500012000001602B6051800A7B0FE5E3929812
:1039600092969294929292901200616FA6B2FED7B4
:1039700061C0A9FF60C0A8FFA69EA69CA684000EF9
:10398000F2BE010E626FF29E550EA76EAA0EA76ED2
:10399000A682A6B2FED700F000F000F0000162A1FE
:1039A00001D0F28E62B101D0F29EA6941200886B13
:1039B000896B8A6B91C093F092C094F0933B943BD7
:1039C000F00E941793510F0B9413F00E9317870E6C
:1039D0009325D96E010E9421DA6EDECF8BF0DECF07
:1039E0008CF0DDCF8DF034EC1BF0010ED8B0000E62
:1039F0001200016E015044264450800A7C0FD8B05A
:103A0000446A44AE02D0030E446E4450020DF3509B
:103A10000001EF0FD96EDA6A01D80AD00500FA6EFC
:103A2000DE50FD6EDE50FE6EF850FF6EFA50120052
:103A30001200746F7051800AF36E800EF35C000EFA
:103A4000D8B46F5D0AE27451D96EDA6A2D0EDF6E5A
:103A5000742B6F6D701FD8B0702B6FC067F070C083
:103A600068F071C069F072C06AF07451ECEF17F041
:103A70006351621117E0010E646F04D0D890623771
:103A80006337642B63AFFAD76251605D635161594C
:103A900004E36251605F6351615BD89063336233CA
:103AA000642FF2D760C060F061C061F01200656BF6
:103AB00013D01F0EF66E080EF76E65C063F0646BD0
:103AC00063BF640763516025D96E64516121DA6E6A
:103AD0000800F5CFDFFF652B6551800A636F6251E7
:103AE000800A635DD8B01200E4D7BACF62F0CF0E7F
:103AF000621760C063F0030E63176339F00B621145
:103B0000BA6E60C062F061C063F0D8906333623314
:103B1000D890633362336251BB6E12004EEC1CF0DE
:103B20000001616F2E6609D0616710D021EE76F03A
:103B3000010EDF122E2A2F6A09D02E0407E1E8A118
:103B4000FAD72F6603D01CEC1EF02F2A1200BACF32
:103B500003F0CF0E031601C004F0030E0416043860
:103B6000F00B0310BA6E01C003F002C004F0D8904D
:103B700004320332D890043203320350BB6E120079
:103B80000001686F20EE60F06851100D090E666F3D
:103B9000010E676FF3506627F450672366C0E1FF9C
:103BA00067C0E2FF060EDECFE6FFE82EFCD712006C
:103BB000676B6751640FD96EDA6A615133EC1FF09D
:103BC000DF6E0001614B622B672B020E6765F1D738
:103BD00064C061F065C062F066C063F0020C800EE4
:103BE000791B74C068F075C069F076C06AF077C060
:103BF0006BF078C06CF079C06DF00DEC12F068C01D
:103C000074F069C075F06AC076F0120000016B6F45
:103C10006B670BD0F6EC1FF0D1EC1FF097EC1FF0A8
:103C20006A6F6AC0BEF2010E316E6B05D8B4316A9C
:103C300027EC20F04FEF20F0540EE8CFBCF25C0EE2
:103C4000E8CFBBF2010EF66E080EF76E0800F5CF56
:103C500060F060C0BAF2300EE8CFB9F2380EE8CFAB
:103C6000B8F2380C6151601110E061BF04D0636B91
:103C7000010E626F02D06269636962C029F060C0A0
:103C800027F061C028F0256A266A1200DA6707D09B
:103C900076C18FF08FA30CD0DA2BDB6B09D0DA055D
:103CA00007E1E8A3FAD7DB6703D06FEC1FF0DB2B4B
:103CB0001200956B966B9651916F926B91BF920724
:103CC000D7EC1CF00009D8A4952B962B9651800AAE
:103CD0006E0FF1E395511200650E686F696B6851C4
:103CE000D96EDA6ADF50606F6351B5EC1CF0682B57
:103CF000634B642B692B020E6965F1D7020C00013E
:103D0000E7670FD08E6B140E8D6FB0EC1FF0C7EC11
:103D100019F074C0ADF075C0AEF076C0AFF060ECD5
:103D20001FF0120060516203F3CF64F0F4CF65F02E
:103D300060516303F350652761516203F3506527B7
:103D400064C060F065C061F01200655164110EE05E
:103D500064C060F065C061F032EC1EF06651030A89
:103D600002E1E06BE16B66C02AF001D02A6A120022
:103D70004EEC0AF00101696F0001DC0508E1E75132
:103D8000020A03E1DD51BFEC18F00001DC6B010118
:103D900069511200606F606708D0D1EC1FF0010E0E
:103DA000336E74EC20F0DE6BDF6B6005D8B4336AE1
:103DB00027EC20F04FEF20F085C060F086C061F066
:103DC000626B8E0E636F000E646B02EC19F060C0C4
:103DD00085F061C086F062C087F0120009C001F072
:103DE0000AC002F0036A8E0E046E000E056A44ECEF
:103DF00019F001C009F002C00AF003C00BF0120074
:103E00000001606B6051100D0F0EF324D96E010E8E
:103E1000F420DA6EDF920001602B040E6065F2D7A9
:103E2000040C626F62C063F001D0632B6351D96EE2
:103E3000DA6ADF50FAE16251635D606F616B60BF07
:103E400061071200A26FA26707D076EC20F0010E86
:103E5000E66FEBEC0DF003D0A205D8B4E66B27ECCF
:103E600020F04FEF20F0606FA6B2FED760C0A9FF30
:103E7000A69EA69CA680A6B0FED700F000F000F09B
:103E8000A85012000001606F6051100D01010F0E6B
:103E9000F324D96E010EF420DA6E010EDFA2000EBB
:103EA00012000001606F6051100D01010F0EF3242C
:103EB000D96E010EF420DA6E010EDFA4000E12009E
:103EC000020E0001926FB80E916F030E936FADC09A
:103ED00094F0AEC095F0AFC096F022EF0FF08E6B6D
:103EE000150E8D6FB0EC1FF0790EE8CFBAF2500EC0
:103EF000E8CFB9F2E8CFB8F2500C84CF60F0D89098
:103F00006033D8906033010E60B1000E376E37C059
:103F100036F012000001606F6051100D01010F0EAC
:103F2000F324D96E010EF420DA6EDF92120031EC28
:103F300020F060C062F061C063F0656BC80E646F12
:103F4000A2EC17F062511200020E766FB80E756F78
:103F5000030E776F8DC078F08EC079F03FEF13F0CD
:103F6000020E766FBB0E756F020E776F8DC078F004
:103F70008EC079F03FEF13F00001F80507E1E70587
:103F800003E1F7517CEC18F00001F86B1200E040FF
:103F9000DC40D840D440D040CC40C840C440C040B1
:103FA000E440710EE8CFBAF2380EE8CFB9F23E0E17
:103FB000E8CFB8F23E0C3F0EE8CFBAF2710EE8CF70
:103FC000B9F2E8CFB8F2710C0E0E0001656FD80E91
:103FD000646F020E666FA5EF1EF0B040AA40A440C9
:103FE000B640FF00000000000000FF00020E616FFD
:103FF000BB0E606F020E626F57EF1DF05C0EE8CFD4
:10400000BCF2160EE8CFBBF2160C8250010B356ED7
:1040100035C034F01200606F60C0DDF0010EDC6F5F
:10402000010C2C502B10010ED8A4000E12002A6691
:1040300002D0010E01D0000E12008244E846030BAC
:10404000010B12008238E842070B010B12002B6AA9
:104050002C6A2D6A8D80120060C02BF061C02CF09C
:10406000120023C060F024C061F012002AEC10F0AE
:1040700011EF04F082380F0B010B120083380F0B85
:10408000010B1200606F60C032F012008244010B1D
:1040900012002E6A2F6A1200DA6BDB6B1200010E1F
:1040A0002A6E010C040E8C6E040C080E8C6E080C2B
:1040B000010E8C6E010C020E8C6E020C00EF1FF0D4
:1040C000898012008992120089821200899412005C
:1040D000898412008996120089861200899812003C
:1040E00089881200899012003B6A12003A6A120015
:0840F0002A50120001FFFF003D
:020000040020DA
:08000000FFFFFFFFFFFFFFFF00
:020000040030CA
:0E000000240E381EFF8181FF00C00FE00F406C
:00000001FF
