:100000000C942A000C9447000C9447000C94470071
:100010000C9447000C9447000C9447000C94470044
:100020000C9447000C947F0D0C9447000C944700EF
:100030000C9447000C9447000C9447000C94470024
:100040000C9447000C9447000C9447000C94470014
:100050000C94470011241FBECFE5D8E0DEBFCDBF12
:1000600010E0A0E6B0E0E8E6F1E302C005900D92F2
:10007000A43BB107D9F722E0A4EBB0E001C01D9288
:10008000A43EB207E1F70E94D2130C94B2180C946C
:1000900000008F929F92AF92BF92FF920F931F9397
:1000A000CF93DF9300D000D000D0CDB7DEB7209142
:1000B0006000309161004091620050916300609156
:1000C00064007091650080916600909167000E94C5
:1000D0007616462F572FBC0140934F015093500185
:1000E000609351017093520180E090E0A0E7B2E488
:1000F0008093530190935401A0935501B0935601FE
:1001000080E090E0A0E8BFE380935701909358010E
:10011000A0935901B0935A018091530190915401D9
:10012000A0915501B091560189839A83AB83BC831A
:1001300020915701309158014091590150915A0135
:10014000BC01CD010E947616462F572FBC0140936B
:100150005F0150936001609361017093620180912F
:10016000570190915801A0915901B0915A0189838A
:100170009A83AB83BC8320E030E040E752E4BC01CB
:10018000CD010E94D51720E030E04AE754E46983AE
:100190007A838B839C8369817A818B819C810E9485
:1001A000D51769837A838B839C8369817A818B815C
:1001B0009C810E94EF16462F572FBC0140935B0194
:1001C00050935C0160935D0170935E0110E000E06C
:1001D00084E1F82EC8010E941D11882309F483C010
:1001E000F09ED001F19EB00D1124A25BBE4FBE83E4
:1001F000AD8355968D919D910D90BC91A02D8983D5
:100200009A83AB83BC8320914F0130915001409180
:1002100051015091520180905F0190906001A09037
:100220006101B0906201BC01CD010E947616A5016A
:10023000940169837A838B839C8369817A818B8122
:100240009C810E947616462F572FBC01ED81FE81BE
:10025000418F528F638F748F818D928DA38DB48D5A
:1002600089839A83AB83BC8320E030E040E85FE37E
:10027000BC01CD010E94D01787FD2AC0AD81BE818F
:1002800059968D919D910D90BC91A02D89839A8353
:10029000AB83BC83BC01CD010E94EF1669837A83D6
:1002A0008B839C83A981BA81CD01B0E0A0E08983D2
:1002B0009A83AB83BC83BC01CD010E941E17462FDD
:1002C000572FBC01ED81FE81458F568F678F70A33C
:1002D000F09EF001F19EF00D1124E25BFE4F11A2A1
:1002E00012A213A214A20F5F1F4F0231110509F0D1
:1002F00071CF1092DB021092DA0226960FB6F894B4
:10030000DEBF0FBECDBFDF91CF911F910F91FF9048
:10031000BF90AF909F908F900895CF93DF9300D0C0
:1003200000D0CDB7DEB780913701811116C084E1CE
:1003300090E00E9470080E94A91169837A838B83E0
:100340009C8369817A818B819C810F900F900F90A3
:100350000F90DF91CF910C94F8070F900F900F90B2
:100360000F90DF91CF91089581110BC00E948310EF
:1003700081E08093B8000E9449000E9411130C9400
:10038000310F8130D1F71092B800F7CF0F931F9340
:10039000CF93DF93CDB7DEB72A970FB6F894DEBFC1
:1003A0000FBECDBF8091B8001816CCF4813031F566
:1003B0000E947D10882399F01092B9008091460127
:1003C00090914701892BB1F483E08093B80010929B
:1003D000B4001092B5001092B6001092B7002A96A1
:1003E0000FB6F894DEBF0FBECDBFDF91CF911F9146
:1003F0000F9108958091B8008F5FE7CF823041F46C
:100400000E948610882359F38091B8008F5F33C013
:100410009091380190FF14C04091B4005091B50004
:100420006091B6007091B7004F5F5F4F6F4F7F4F85
:100430004093B4005093B5006093B6007093B7003A
:10044000833059F58091B90082313CF4082E000CBC
:10045000990B0E941D11882389F08091B900823187
:10046000C1F40E944E11813179F463E088EC90E090
:100470000E94350F87E08093B800B1CF8091B9001A
:100480008F5F8093B900DECF81E10E946F1086E01C
:10049000F2CF0E946F1084E0EECF843009F003C1E8
:1004A0000E947D10882309F49ACF2091B9002983F6
:1004B000022F022E000C110BA4E12A02C00111240C
:1004C000825B9E4F9E838D83FC0110A617A2218D17
:1004D000328D438D548D81A192A1A3A1B4A18983B2
:1004E0009A83AB83BC83BC01CD010E940516462FC5
:1004F000572FBC01ED81FE8141A352A363A374A3D6
:1005000081A192A1A3A1B4A189839A83AB83BC8367
:10051000258D368D478D50A1BC01CD010E94D0178D
:1005200087FDBCC0AD81BE8191968D919D910D904E
:10053000BC91A02D89839A83AB83BC83ED81FE811E
:10054000258D368D478D50A1BC01CD010E9404162A
:10055000462F572FBC0149835A836B837C8320E04D
:1005600030E040E85FE369817A818B819C810E9461
:10057000D01787FD1CC020E030E040E85FE36981D0
:100580007A818B819C810E940416462F572FBC01D3
:1005900049835A836B837C83AD81BE8197968D910D
:1005A0009C919897019698969C938E93979784E147
:1005B000809FF001819FF00D1124E25BFE4F898145
:1005C0009A81AB81BC8181A392A3A3A3B4A3A09180
:1005D000DA02B091DB02BA87A98780915F0190911E
:1005E0006001A0916101B09162018D839E83AF8310
:1005F000B887BC01CD010E94E8166D837E838F838E
:1006000098878D819E810197A985BA858A179B0756
:10061000C1F420E030E0A90169817A818B819C815D
:100620000E94D01718166CF484E1809FF001819F1E
:10063000F00D1124E25BFE4F87A190A5019690A7D3
:1006400087A384E1809FF001819FF00D1124E25B7C
:10065000FE4FFE83ED83858D968DA78DB0A1898396
:100660009A83AB83BC8307A110A5BC01CD010E9476
:10067000EF16462F572F400F511FED81FE8150A7D7
:1006800047A327A130A585A196A1820F931F96A30A
:1006900085A387A190A50E940713B6CE19821A825E
:1006A0001B821C8294CF853061F40E9473138823CF
:1006B00009F495CE8091B9008F5F8093B90083E0F3
:1006C000DACE863059F40E947D10882309F487CE53
:1006D00063E088EC90E00E94350F96CE873009F0F9
:1006E0007ECE0E947D10882309F479CE40915B0173
:1006F00050915C0160915D0170915E018091B40048
:100700009091B500A091B600B091B70084179507FD
:10071000A607B70708F463CE1092B4001092B50094
:100720001092B6001092B7001092B90083E0809347
:10073000B8002091DA023091DB022F5F3F4F3E83F9
:100740002D833093DB022093DA0280915F01909138
:100750006001A0916101B091620189839A83AB83AA
:10076000BC83BC01CD010E94E81669837A838B8328
:100770009C83AD81BE81E981FA81AE17BF0709F084
:100780002ECE1092DB021092DA0229CEEBEBF0E0D3
:10079000818381E080830895DF92EF92FF920F932F
:1007A0001F93CF93DF93CDB7DEB72A970FB6F89498
:1007B000DEBF0FBECDBF8091BA00811112C00E9472
:1007C000010A882309F440C18091BC008F5F833106
:1007D0001CF48093BC0002C01092BC0081E08093A6
:1007E000BB0080E00E94150A81E00E94150A82E0A9
:1007F0000E94F609811162C082E00E94010A8823EA
:1008000009F45CC08091BA00811155C00091BC0010
:1008100002310CF046C1E02E002E000CFF0824E14E
:10082000020280011124025B1E4FD80155968D9162
:100830009D910D90BC91A02D8F839887A987BA8731
:1008400020E030E0A901BC01CD010E9471168111A8
:1008500008C18AE999E9A9E9BEE3F801858B968B7D
:10086000A78BB08F84E18E9D80018F9D100D112488
:10087000025B1E4FD80155968D919D910D90BC91B4
:10088000A02D8F839887A987BA8720E030E040E4C5
:1008900051E4BC01CD010E94D01787FD09C080E062
:1008A00090E0A0E4B1E4F801858B968BA78BB08F24
:1008B00081E08093BB0082E00E94150A83E00E94E1
:1008C000F609811160C083E00E94010A882309F4BF
:1008D0005AC08091BA00811153C0F090BC00F1E180
:1008E000FF150CF40AC12F2D84E128028001112488
:1008F000025B1E4FD80155968D919D910D90BC9134
:10090000A02D8F839887A987BA872091880030917E
:10091000890040918A0050918B00BC01CD010E945A
:100920000416462F572FBC01F801458B568B678B59
:10093000708FF110CAC08091630190916401A09101
:100940006501B09166018F839887A987BA872AE9E4
:1009500039E949E95EE3BC01CD010E94711687FFC8
:100960000CC08AE999E9A9E9BEE3809363019093F9
:100970006401A0936501B093660181E08093BB00A0
:1009800083E00E94150A84E00E94010A8823A9F0EE
:1009900084E00E94150A8091BC00823174F4909129
:1009A000BA0021E0911120E02093BA009111BAC061
:1009B0000E940E0980E00E94110982E00E94F6095F
:1009C000813009F4B3C0F12C8091BB00813069F50E
:1009D00080913701823039F50091BC0002310CF072
:1009E0000BC1002E000C110BC80101960E9470086B
:1009F00084E1809FF001819FF00D1124E25BFE4FA6
:100A000085899689A789B08D8F839887A987BA87AA
:100A100020E030E0A901BC01CD010E9471168111D6
:100A2000E4C00E94D5061092BB008F2D2A960FB607
:100A3000F894DEBF0FBECDBFDF91CF911F910F9114
:100A4000FF90EF90DF90089581E00E94010A8823D3
:100A500009F4C7CE8091BC00815087FFBACE82E1F5
:100A6000B8CED80155968D919D910D90BC91A02D39
:100A70008F839887A987BA87209188003091890051
:100A800040918A0050918B00BC01CD010E94051657
:100A9000462F572FBC01F801458B568B678B708F03
:100AA000E1CE8091CB028F5F8093CB02843014F033
:100AB0001092CB02E091CB020E2E000CFF0BEA55F8
:100AC000FF4F80818093CC02F3CE85899689A789D8
:100AD000B08D8F839887A987BA872AE939E949E9D0
:100AE0005EE3BC01CD010E94711687FF46CFF8017D
:100AF000158A168A178A108E40CF8091CB028150BA
:100B00008093CB0287FF03C083E08093CB02E09108
:100B1000CB020E2E000CFF0BEA55FF4F8081809315
:100B2000CC022BCF81E08093BB0045CF82E00E94B6
:100B3000010A882309F447CF83E00E94F609813037
:100B400009F041CF83E00E94010A882309F43BCFDA
:100B500082E00E94150A83E00E94150A10E000E07E
:100B600081E0E82E80E0F82E94E1D92ED09EF001AD
:100B7000D19EF00D1124E25BFE4F458956896789AD
:100B8000708DC701F4E0EF0EF11C0E9496180F5F04
:100B90001F4F0231110551F76091CB0280E090E0C8
:100BA0000E9485180E94EA118093D1021092BA0027
:100BB00081E00E94110986E0E0EAF0E0DE01119692
:100BC00001900D928A95E1F72981286029833A8165
:100BD0004B815C816D817E8184E00E94820980E08E
:100BE0000E943A06FF24F394EFCE6F8178858985C1
:100BF0009A850E94F80717CF0E94CE068091CC02FA
:100C0000082E000C990B0E946A080DCFC498089515
:100C1000C49A0895C3980895C39A0895C2980895F0
:100C2000C29A0895C1980895C19A0895C0980895E8
:100C3000C09A0895CF93DF931092E0021092E102E0
:100C40001092DD021092DE021092DF028FEF8ABB5B
:100C5000C8E6D0E0E881F9810995249680E0CC3798
:100C6000D807C1F7BC9ABB9ABA9AB99AB89ADF91D9
:100C7000CF9108958093C1001092C0001092BF00E0
:100C80001092BE000895EF92FF920F931F93CF939F
:100C9000DF93E091BD00E150E7FDE4E024E0E202F3
:100CA000F0011124E859FF4F0190F081E02D0995E2
:100CB000E091BD00E33024F48091C100811108C0AF
:100CC0000E2E000CFF0BE352FD4F80818BBB1CC02E
:100CD0008091BF009091C00001969093C0008093D6
:100CE000BF008436910558F09091BE001092C0006C
:100CF0001092BF0081E0911180E08093BE0080914E
:100D0000BE008823E9F21BBA2091BD0081E090E08B
:100D10007C0102C0EE0CFF1C2A95E2F708E610E009
:100D2000D0E0C0E0C7010C2E02C0959587950A94CB
:100D3000E2F7D80180FF19C01296ED91FC91099558
:100D400021960C5F1F4FC530D10561F78091BD0022
:100D500091E0980F843061F09093BD00DF91CF91C6
:100D60001F910F91FF90EF900895ED91FC91E7CFC7
:100D70001092BD00F3CF282FFC018E2F821B861707
:100D80000CF008951192F9CF62E080EE92E00C949D
:100D9000BB0663E08DED92E00C94BB068CE580937E
:100DA000E10286E18093E00208958FE38093DF0201
:100DB00081E78093DE028093DD02089581E78093CE
:100DC000DF028093DE028093DD02089581E7809345
:100DD000DF0288E38093DE028EE38093DD020895D4
:100DE00084E58093E1028CE58093E0028FE38093B9
:100DF000DF0280E38093DE0288E38093DD020895C2
:100E00003F924F925F926F927F928F929F92AF929A
:100E1000BF92CF92DF92EF92FF920F931F93CF93E7
:100E2000DF93CDB7DEB72E970FB6F894DEBF0FBEB7
:100E3000CDBF5C01862EF22EE32ED42EC52E362E8B
:100E4000412C512C20E8622E3FE3932E3A948FEFF1
:100E500038128AC02F2D3E2D4D2D5C2D4B865C8681
:100E60006D869E866B857C858D859E850E9471161C
:100E7000181674F020E030E040E85FE36B857C8575
:100E80008D859E850E940416F62EE72ED82EC92E3B
:100E9000682DC5010E94BB06912C612C512C80E865
:100EA000482E9FE3392E891494F1262D352D442D9B
:100EB000532DFB86EC86DD86CE866B857C858D8505
:100EC0009E850E94711687FF6FC098140CF05EC05B
:100ED00020E030E040E251E46B857C858D859E8585
:100EE0000E94D5176B877C878D879E876B857C8555
:100EF0008D859E850E94E8168B01911003C08FE3BB
:100F0000F5018183F501818180688183792C4AE034
:100F1000BE016F5F7F4FC8010E94421880E0972D8D
:100F2000981BE1E0F0E0EC0FFD1FE80FF11D87FDDD
:100F3000FA95E081E1114CC02E960FB6F894DEBF11
:100F40000FBECDBFDF91CF911F910F91FF90EF901A
:100F5000DF90CF90BF90AF909F908F907F906F90D9
:100F60005F904F903F90089520E030E040E251E4E0
:100F70004B865C866D869E866B857C858D859E8581
:100F80000E94D5172B01682E992E60CFFB86EC8628
:100F9000DD86CE866B857C858D859E850E94E816D4
:100FA0008B0177247A94790C20E030E040E251E420
:100FB0006B865C864D863E866B857C858D859E85A1
:100FC0000E94D517662E572E482E392E93946BCF3C
:100FD000D501A90FB11D97FDBA950E2E000CFF0B80
:100FE000EA59FF4F9C912081922B9C938F5F97CF62
:100FF0009B01AC0163E08DED92E00C9400079B0136
:10100000AC0162E080EE92E00C940007DF92EF9278
:10101000FF920F931F93CF93DF93CDB7DEB72A973D
:101020000FB6F894DEBF0FBECDBF8C01D62ECA011D
:10103000462F21E030E05AE0415098F5821793079F
:1010400014F0C90101974AE09E012F5F3F4F7901DB
:10105000B9010E944218902FF8018E2F891B8D151F
:101060003CF1F70101900020E9F7EE198EEF8E0FA9
:1010700090E0282F291BF701E90FF11D97FDFA9544
:10108000E081E11117C02A960FB6F894DEBF0FBEBB
:10109000CDBFDF91CF911F910F91FF90EF90DF9027
:1010A0000895B901569F9001579F300D1124C4CF68
:1010B0001192D3CFD801A20FB11D27FDBA950E2EE4
:1010C000000CFF0BEA59FF4F2C913081232B2C93FE
:1010D0009F5FCFCFAC0163E08DED92E00C940608EA
:1010E000AC0162E080EE92E00C94060884E190E0AE
:1010F0000E94700880E48093DF028093DE02809378
:10110000DD02089585E190E00E94700889E78093F0
:10111000DF0280E58093DE028093DD0208950F9365
:101120001F93CF93811125C00E94C4060E94E6063A
:101130000E94510F08EC10E0B8010E94DC15C62F88
:101140000E94510FB8010E94DC15892B61F4C093F5
:10115000C30082E08093C2000E941113CF911F91BF
:101160000F910C94310FCF5FC2318CF31092C300FA
:10117000F0CF813089F71092C200EECF8091C2008B
:10118000181694F40E947D10882371F08091C2009B
:10119000813071F48091C3008F5F823134F4809389
:1011A000C30082E08093C20008951092C300F9CF7B
:1011B000823051F48091C3000E9459118823A1F319
:1011C0008091C2008F5FEECF8330A9F40E947D1022
:1011D000882351F38091C300082E000C990B0E94C4
:1011E0001D119091C200882321F09F5F9093C2004F
:1011F00008959250FBCF843049F40E947D108823DB
:1012000099F286E090E00E940713DACF853061F60C
:101210000E947313882341F281E0C4CF8093C600FB
:10122000089581110FC00E94E60681E08093C700F7
:101230000E9456111092C5001092C4000E94111312
:101240000C94310F8130D1F71092C700F7CF809105
:10125000C70018165CF4813051F40E947D10882379
:1012600029F08091C7008F5F8093C7000895823076
:1012700071F48091C600082E000C990B0E941D117C
:101280008823A1F38091C6000E945911E8CF8330D2
:10129000B9F40E947D10882349F381E090E00E9418
:1012A00007138091C7008F5F8093C7008091C400AF
:1012B0009091C50001969093C5008093C400089555
:1012C0008430A1F60E947313882381F28091C700B5
:1012D0008150CACF83B382958170089583B385FB13
:1012E000882780F9089583B386FB882780F90895BD
:1012F00083B3881F8827881F089580B382FB8827BF
:1013000080F90895CF93DF9300D000D000D0CDB7FF
:10131000DEB729833A834B835C836D837E8390E1C0
:10132000899FD0011124AF52BF4F86E0FE01319654
:1013300001900D928A95E1F726960FB6F894DEBFDC
:101340000FBECDBFDF91CF9108951F93CF93DF9351
:1013500000D000D000D0CDB7DEB7A498A598A6984D
:10136000A7988A98AC9AAD9AAE9AAF9A929A8AE662
:1013700099E09093C9008093C8008EE699E090931D
:10138000D9008093D80083E799E09093E900809397
:10139000E80088E799E09093F9008093F8008DE7E2
:1013A00099E0909309018093080186E0FE0131964F
:1013B000DF011D928A95E9F789818160898310E0B8
:1013C00029813A814B815C816D817E81812F0E94D0
:1013D00082091F5F1530A1F726960FB6F894DEBF7D
:1013E0000FBECDBFDF91CF911F91089590E1899FEE
:1013F000F0011124E952FF4F808182FB882780F998
:10140000089590E1899FF0011124E952FF4F8081F6
:1014100086958170089590E1899FF0011124E95229
:10142000FF4F808182608083089590E1899FF00161
:101430001124E952FF4F80818D7F8083089590E1D0
:10144000899FF0011124E853FF4F0280F381E02DC2
:101450000994EF92FF920F931F93CF93DF9394E041
:10146000E92EF12C8AE18A95F1F700C0870184E02A
:10147000000F111F8A95E1F7E801C853DF4F8C81F7
:10148000811113C0E881F9810995811103C08C8114
:101490008F5F8C8381E0E81AF10820F7DF91CF910C
:1014A0001F910F91FF90EF9008958C818130A9F4E6
:1014B0008D818F5F8D83813069F71D82E881F9818D
:1014C0000995882319F08C818150E3CFF801E95206
:1014D000FF4F808181608083DACF8C81823031F44C
:1014E000E881F98109958130A9F6D1CF8C818330CB
:1014F00089F68D818F5F8D83813061F61D82E88151
:10150000F98109958130F9F6F801E952FF4F8081A0
:101510008E7F80831C82BECFBF92CF92DF92EF92EC
:10152000FF920F931F93CF93DF9350E040E031E0A1
:1015300075E0B72EE4E0CE2EF7E0DF2EA6E0FA2E1F
:10154000B8E0EB2E23E0C9E0DAE012E00BE0CA01DC
:1015500064E0880F991F6A95E1F7FC01E853FF4F9B
:10156000668161113CC06685662369F0E685F0E01E
:10157000EE5CFE4F6081613031F4FC01E952FF4FB7
:10158000608163FF2CC0DC01A952BF4F6C91762FA4
:10159000717060FF24C0FC01EF52FF4F608160FF5B
:1015A00059C16C9162606C936081FC01E853FF4FFC
:1015B00061FF4EC1E682DC01A952BF4F6C916061B0
:1015C0006C93FC01E853FF4F6685662341F0E68586
:1015D000F0E0EE5CFE4F30836C9168606C93FC0130
:1015E000E853FF4F6681683060F066816B3048F4E5
:1015F000DC01A952BF4F6C9160FD03C010861782B9
:101600002683FC01E853FF4F6681683071F46781DF
:1016100070856F5F7F4F70876783A285B3856A1778
:101620007B0718F010861782C683DC01A853BF4FD2
:1016300016966C911697693059F4FC01E952FF4FE8
:10164000608161FD05C06081626060831696DC93F5
:10165000FC01E853FF4F66816A3071F46781708541
:101660006F5F7F4F70876783A485B5856A177B0797
:1016700018F010861782C683DC01A853BF4F169658
:101680006C911697663059F4FC01E952FF4F608166
:1016900060FD05C060816260608316962C93FC013A
:1016A000E853FF4F6681673039F4DC01A952BF4F20
:1016B0006C9162606C931683FC01E853FF4F668166
:1016C0006430A1F5678170856F5F7F4F7087678396
:1016D000DC01A952BF4F6C9160FD0EC0678170851F
:1016E0006333710548F4108617826C9162606C93C5
:1016F0006C916B7F6C932683FC01E853FF4F6781ED
:1017000070856333710590F010861782DC01A95251
:10171000BF4F6C9162606C936C9164606C93DC0160
:10172000AF52BF4F6C9161FDB5C03683FC01E853E9
:10173000FF4F6681653099F5678170856F5F7F4FD8
:1017400070876783DC01A952BF4F6C9160FD0EC0AA
:10175000678170856333710548F4108617826C9138
:1017600062606C936C916B7F6C932683DC01A85351
:10177000BF4F17966D917C9118976436710578F07C
:1017800018961C921E921797FC01E952FF4F608138
:101790006260608360816460608316961C93FC01C4
:1017A000E853FF4F6681613031F4DC01A952BF4F2D
:1017B0006C9160FF2683DC01A853BF4F16966C9195
:1017C0001697623059F4FC01E952FF4F608160FDC9
:1017D00005C060816D7F608316960C93FC01E85311
:1017E000FF4F6681633031F4DC01A952BF4F6C9129
:1017F00061FF0683FC01E853FF4F66816B30C1F443
:101800006685662359F0E685F0E0EE5CFE4F1082B7
:10181000FC01E952FF4F6081677F6083FC01E85360
:10182000FF4F1682FC01E952FF4F80818F7E80833B
:101830004F5F5F4F4530510509F089CEDF91CF9161
:101840001F910F91FF90EF90DF90CF90BF90089580
:101850007683B1CE608162FF05C0FC01E853FF4F83
:10186000F682A9CE608163FF05C0FC01E853FF4FFB
:10187000D682A1CE608164FF05C0FC01E853FF4F12
:10188000C68299CE608165FF96CEFC01E853FF4F7A
:10189000B68291CED6834ACF0E94290A0C948C0A34
:1018A00090E080E0FC0124E0EE0FFF1F2A95E1F7B5
:1018B000E952FF4F208120FD06C001968530910539
:1018C00089F781E0089580E00895E7EDF0E08081F8
:1018D0008D7F8083E7EEF0E080818D7F8083E7EF6E
:1018E000F0E080818D7F8083E7E0F1E080818D7F73
:1018F0008083E7E1F1E080818D7F808308950C94FF
:10190000650C90E080E0FC0124E0EE0FFF1F2A95BB
:10191000E1F7E952FF4F208124FD06C00196853092
:10192000910589F781E0089580E0089580B382955C
:10193000817091E08927EEE1F1E081838083089551
:1019400090911B01911110C080B391E0829581703C
:10195000892720911F01281721F080931F01909360
:101960001B0180911E0108959130D9F780913801B3
:1019700080FFF7CF80911A0121E0280F833119F001
:1019800020931A01EECF10921A0180B320911F010B
:1019900082958F7089278170281302C020931E01C1
:1019A00010921B01DECF86B390E0880F892F881F2D
:1019B000990BECE1F1E08183808308958091190116
:1019C000811112C086B390E0880F892F881F990B70
:1019D00020911D01281729F080931D0181E080933B
:1019E000190180911C0108958130D9F78091380147
:1019F00080FFF7CF8091180191E0980F833119F0A3
:101A000090931801EECF1092180186B390911D01AA
:101A1000881F8827881F891302C090931C01109289
:101A20001901DFCF80B3881F8827881F089581E0C0
:101A3000089581E00895CF93DF9300D000D000D0C7
:101A4000CDB7DEB786E0E0EAF0E0DE011196019066
:101A50000D928A95E1F729812360298389E1382F46
:101A60008A831B828FE0582F8C831D8281E08E83B6
:101A700040E060E071E080E00E94820929813A81C3
:101A80004B815C816D817E8181E00E94820986E0CC
:101A9000E0EAF0E0DE01119601900D928A95E1F7FF
:101AA0002981206229833A814B815C816D817E810D
:101AB00082E00E94820929813A814B815C816D819B
:101AC0007E8183E00E94820986E0E0EAF0E0DE01A8
:101AD000119601900D928A95E1F7298128603A814B
:101AE0004B815C816D817E8184E026960FB6F894EF
:101AF000DEBF0FBECDBFDF91CF910C9482091F9244
:101B00000F920FB60F9211242F933F934F935F9331
:101B10006F937F938F939F93AF93BF93EF93FF93B5
:101B20008091250181110BC00E947B0F0E942E0F16
:101B300082302CF0809125018F5F80932501809168
:101B400025018130C9F5E0917E00EE0FFF0BE655CF
:101B5000FF4F808191810E947C1380917E0091E0F3
:101B6000980F843009F190937E00809124018F5F5B
:101B700080932401843139F480912901816080931C
:101B8000290110922401FF91EF91BF91AF919F9194
:101B90008F917F916F915F914F913F912F910F9016
:101BA0000FBE0F901F90189510927E008091250116
:101BB0008F5F80932501D9CF823051F480917E00D0
:101BC00091E0980F8F3179F683E080937E00F1CF1A
:101BD000833059F6E0917E00EE0FFF0BE655FF4F84
:101BE000808191810E947C1380917E00815087FDCD
:101BF00003C080937E00B9CF81E080937E00109275
:101C0000250182E290E00E947C13AFCFCF93DF9357
:101C100000D000D000D0CDB7DEB70E94DE0C90918E
:101C2000430191110DC081111CC080914E01816052
:101C300080934E0181E0809343011092440111C0D2
:101C4000913079F48091270180FFF7CF8091440192
:101C5000811107C00E94F006809144018F5F80933C
:101C600044018091400181110CC080914E0181FBA3
:101C7000992790F981FF16C090934001109241017D
:101C800011C0813079F48091270181FFF7CF8091D5
:101C90004101811107C00E948208809141018F5F3C
:101CA0008093410180912301811160C080917C006B
:101CB00091E0980F873009F456C090937C00809192
:101CC0004E0190917C0021E030E001C0220F9A95F6
:101CD000EAF7822349F080932701109222011092A3
:101CE000210181E08093230190914E0180917D003C
:101CF000981709F496C080914E0180937D00882347
:101D000009F45EC00E94310F0E94111381E00E940D
:101D10008F0882E080934201939885E0EDEDF2E038
:101D2000ABE3B1E001900D928A95E1F70E947F0C40
:101D300086E0E0EAF0E0DE01119601900D928A95CE
:101D4000E1F7298121603A814B815C816D817E813F
:101D500084E026960FB6F894DEBF0FBECDBFDF91AC
:101D6000CF910C94820910927C00A9CF813009F0A8
:101D7000BBCF80914E01082E000C990B20917C0066
:101D800002C0959587952A95E2F780FF16C080914D
:101D9000380180FFA9CF8091210190912201019605
:101DA000803D27E0920728F490932201809321013F
:101DB0009BCF10922201109221011092230194CF07
:101DC00010924201809128018A7F816080932801CE
:101DD0008091E2028E7F8093E202939A1092370103
:101DE0008FEF8093200110928E0010928F0010923E
:101DF0009000109291001092920010929300109215
:101E00004301109244011092400110924101269624
:101E10000FB6F894DEBF0FBECDBFDF91CF910C940B
:101E20001B0D26960FB6F894DEBF0FBECDBFDF9117
:101E3000CF91089585B3807F816085BB089585B378
:101E4000807F886085BB089585B3807F846085BB73
:101E5000089585B3807F826085BB089580914D0190
:101E6000089581E080934D0108959C01892BB1F084
:101E700081E037FD8FEF80934C0130934B0120932D
:101E80004A011092490110924801633021F41092E6
:101E90002B0110922A0160934D01089510924D017B
:101EA000089580914601909147010895E6E4F1E09C
:101EB00081E0868388ED9EE095838483138212827D
:101EC00082E08783089590917F00890F843064F0C9
:101ED00010927F00E0917F00EE0FFF0BE058FF4F64
:101EE0000190F081E02D099487FD03C080937F006D
:101EF000F1CF83E0FBCF80914D01833009F05DC0CD
:101F000080914A0190914B01892B81F180914C0184
:101F10000E94630F20914C018091480190914901EA
:101F2000820F911D27FD9A95909349018093480156
:101F3000879909C080912A0190912B010196909375
:101F40002B0180932A012091480130914901809111
:101F50004A0190914B0128173907D9F41092470193
:101F60001092460110924B0110924A0180912A0171
:101F700090912B014497C0F080914E018D7F80930A
:101F80004E018091E20281608093E20281E08093C1
:101F90004D0180914D01813031F410924B0110922E
:101FA0004A0110924D01089580914E018260809304
:101FB0004E018091E2028E7FE7CF80914D01823009
:101FC00009F050C080914A0190914B01892B09F38F
:101FD00080914C010E94630F20914C018091480137
:101FE00090914901820F911D27FD9A959093490187
:101FF0008093480120914C018091460190914701C6
:10200000820F911D27FD9A95909347018093460179
:10201000879B1BC0209148013091490180914A0162
:1020200090914B012817390709F0B3CF10924B015B
:1020300010924A018091E2028E7F8093E2028091A9
:102040004E01826080934E01A1CF10924B011092FD
:102050004A018091E20281608093E20280914E0108
:102060008D7FF0CF80914D01843009F092CF809127
:102070004A0190914B01892B09F488CF80914C0142
:102080000E94630F20914C01809148019091490179
:10209000820F911D27FD9A959093490180934801E5
:1020A00020914C018091460190914701820F911D32
:1020B00027FD9A959093470180934601209148010E
:1020C0003091490180914A0190914B0128173907BD
:1020D00009F05FCF10924B0110924A0157CF209127
:1020E000460130914701482F58EC4503C0011124A7
:1020F00064E0821B930B0C94350F90914D0181E0AD
:10210000911180E00895109245010895CF93C091F8
:102110004501C1111BC0879915C081E080934C0116
:1021200020E931E030934B0120934A01109249019C
:102130001092480194E090934D01809345018C2FBB
:10214000CF9108950E94560F82E0F7CFC13071F40D
:102150000E947D10811102C0C0E0F1CF0E94560F95
:10216000809145018F5F80934501F6CFC230E9F43D
:102170000E947D10882381F380914E0181FD20C053
:1021800081E080934C0188EC90E090934B01809328
:102190004A01109249011092480110922B011092AD
:1021A0002A0183E080934D01DBCFC330A9F60E9462
:1021B0007D10882389F280914E01C2E081FFC1E049
:1021C00010924501BCCF82E390E051E048E034E05A
:1021D00022E055BBEFEDFEE23197F1F700C00000C1
:1021E00045BBEFEDFEE23197F1F700C0000035BBD3
:1021F000EFEDFEE23197F1F700C0000025BBEFEDF7
:10220000FEE23197F1F700C00000019711F7FFCF10
:1022100081E080934C0188EE93E090934B01809392
:102220004A01109249011092480184E080934D01C7
:1022300089B7846089BF7894FFCFCF93DF9300D0B4
:1022400000D00F92CDB7DEB744E1489F9001499F7F
:10225000300D1124225B3E4FD90155968D919D91F1
:102260000D90BC91A02D89839A83AB83BC83B1E090
:10227000BD8320E030E0A90169817A818B819C8156
:102280000E94D01718160CF01D828D810F900F90B0
:102290000F900F900F90DF91CF9108950E94510FF2
:1022A00068EC70E00E94DC15862F089510922C01D6
:1022B0000895CF93C82F80912C01811119C082E01D
:1022C000C1112EC00E94510F9C01892BE9F02934C5
:1022D0003D404CF481E10E946F1084E080932C011A
:1022E0008C2FCF91089582E10E946F1081E0F6CF8C
:1022F000813071F40E947D10811102C0C0E0F0CFE6
:10230000109247011092460110922C01C1E0E8CFD3
:10231000823049F48C2F0E946F1080912C018F5FC6
:1023200080932C01EBCF833029F40E947D10811122
:10233000EBCFE4CF843051F40E947D108823F1F27A
:1023400063E088EC90E00E94350FE7CF8530B1F66E
:10235000ECCF1F93CF93DF9300D000D000D0CDB748
:10236000DEB760E070E080E090E01E821D8214E144
:102370002D813E81129FF001139FF00D1124E25B2D
:10238000FE4F258936894789508D69837A838B83EF
:102390009C8369817A818B819C810E9405162D81A5
:1023A0003E812F5F3F4F3E832D832231310501F760
:1023B00069837A838B839C8369817A818B819C81F9
:1023C00026960FB6F894DEBF0FBECDBFDF91CF913A
:1023D0001F9108951F93CF93DF93D0E0C0E010E0EA
:1023E000CE010E941D1181111F5F2196C231D105BE
:1023F000B9F7812FDF91CF911F9108958F929F920E
:10240000AF92BF92CF92DF92EF92FF920F931F9302
:10241000CF93DF9300D000D00F92CDB7DEB780E02E
:1024200090E0A0E7B2E48093530190935401A0930D
:102430005501B093560110E000E091E0E92E90E0E4
:10244000F92E1D822AE9822E29E9922EA92C2EE34B
:10245000B22EC70124E0E20EF11C0E947F18462F25
:10246000572FBC0134E1309FC001319F900D1124E2
:10247000DC01A25BBE4F6D01FD01458B568B678B66
:10248000708F55968D919D910D90BC91A02D898353
:102490009A83AB83BC8320E030E040E451E4BC018C
:1024A000CD010E94D01718165CF480E090E0A0E403
:1024B000B1E4F601858B968BA78BB08FF1E0FD839D
:1024C00024E1209FC001219F900D1124DC01A25B1B
:1024D000BE4F6D0155968D919D910D90BC91A02D93
:1024E00089839A83AB83BC8320E030E0A901BC01DF
:1024F000CD010E94711687FF0CC001116EC0809241
:10250000630190926401A0926501B0926601B1E00E
:10251000BD830F5F1F4F0231110509F09ACF80E094
:1025200090E00E9477188093CB028091CB02843098
:102530002CF083E08093CB0221E02D838091CB02AD
:1025400087FF04C01092CB0231E03D83E091CB02C3
:102550000E2E000CFF0BEA55FF4F80818093CC02BA
:102560000E94EA118093D1028D818130F1F51A82A7
:10257000198201E010E084E1F82EA981BA81FA9E67
:10258000F001FB9EF00D1124E25BFE4F4589568958
:102590006789708DC8010C5F1F4F0E949618E981F2
:1025A000FA813196FA83E983729739F76091CB0209
:1025B00080E090E00F900F900F900F900F90DF91C0
:1025C000CF911F910F91FF90EF90DF90CF90BF9030
:1025D000AF909F908F900C948518F601158A168AFB
:1025E000178A108EF1E0FD8394CF0F900F900F901B
:1025F0000F900F90DF91CF911F910F91FF90EF906F
:10260000DF90CF90BF90AF909F908F900895909360
:10261000300180932F01089580912F019091300116
:102620000895EFE2F1E011821082128296980895E7
:1026300020912F01309130012115310511F480E0F6
:1026400051C080913101811109C0969A10922E01DA
:1026500010922D0191E09093310108958130E9F4B9
:102660008091380180FFEBCFE0912D01F0912E0198
:10267000CF010196E133F10529F090932E0180936B
:102680002D01DDCF10922E0110922D0182E080935A
:10269000310181818F7B8183D2CF823081F680911D
:1026A000380180FFCCCF80912D0190912E01AC019B
:1026B0004F5F5F4F8A34910529F050932E0140936C
:1026C0002D01BDCF10922E0110922D0110923101DB
:1026D000215031093093300120932F0181E0232BC9
:1026E00009F0ADCF089581E020912F0130913001A4
:1026F000232B09F080E008959BBD8ABD0895CF93F8
:10270000DF9300D000D0CDB7DEB780918D0081304F
:1027100089F580913701813059F520918C0029830A
:102720002231B4F5822F082E000C990B9A838983ED
:1027300001960E94700884E1A981BA818A9FF00104
:102740008B9FF00D1124E25BFE4F85899689A78946
:10275000B08D89839A83AB83BC8320E030E0A901EC
:10276000BC01CD010E94711681110BC00E94D506DB
:1027700010928D000F900F900F900F90DF91CF91DE
:10278000089569817A818B819C810E94F807F0CF3E
:102790000E94CE068091CC02082E000C990B0E945C
:1027A0006A08E6CFCF93DF9300D000D000D0CDB73A
:1027B000DEB71BBA18BA15BA12BA93988B9A9698C4
:1027C0008E9AA29AA09AA39AA19A8D9A8F98BF984E
:1027D0008C98979AC79A949A0E94A5090E941B0DFB
:1027E0000E941A060E94FE110E94960C0E94D30CB1
:1027F00080912801887F836080932801109237019F
:102800001092420181E00E94B4010E94A00C8093CA
:1028100020011DBC1CBC83E690E097BD86BD82E212
:1028200090E00E947C138AE18EBD82EC8FBD89B757
:10283000846089BF7894E12CF12CD12C1FEF83E1C7
:10284000C82E8091290180FF0AC0809129018E7FC6
:102850008093290180913801816080933801D110E3
:102860000DC00E948610DD24D394811101C0D12CAB
:10287000809138018E7F80933801E3CF80913801B9
:1028800080FF0EC0F39424E1F21203C00E944C0CAE
:10289000F12CE39483E0E81203C00E944306E12C8C
:1028A0000E94060E0E94A00C082F80914201811107
:1028B00043C19091280192FD1CC0002309F481C0FE
:1028C00090FF06C09C7F9260909328010E94B40103
:1028D0008091370181110BC080912001801739F060
:1028E00000932001002309F474C00E948D010E940E
:1028F000C60184E00E94010A082F809126018017FA
:1029000069F0002309F468C08091280184608093F5
:10291000280180E00E948F080093260180918E009C
:10292000813071F58091380180FF2AC080918F003D
:1029300090919000A0919100B09192000196A11DFC
:10294000B11D80938F0090939000A0939100B0935D
:10295000920080319742A105B10590F010928E004F
:1029600010928F001092900010929100109292009D
:102970001092930010938C00109237011093200155
:1029800080E00E94010A882309F448C080918C00ED
:102990008F5F80938C0083310CF452C010938C00B5
:1029A000109237011093200110928E0010928F0028
:1029B0001092900010929100109292001092930049
:1029C00055C091FF85CF9C7F91609093280181E055
:1029D0007DCF0E9476088BCF81E00E948F08809186
:1029E00028018A7F816080932801809137018111BD
:1029F0000FC01093200110928E0010928F00109241
:102A0000900010929100109292001092930084CF47
:102A1000813009F081CF80938D007ECF81E00E94CC
:102A2000010A882319F180918C008F3F11F4C09224
:102A30008C0080918C00815080938C0087FDB0CFFA
:102A400081E08093370180938D0080919300811104
:102A500005C081E080938E008093930010928F00D8
:102A600010929000109291001092920080E00E94CB
:102A7000150A81E00E94150A82E00E94F609811180
:102A800008C082E00E94010A882319F082E00E94B7
:102A9000150A83E00E94F609811108C083E00E94B4
:102AA000010A882319F083E00E94150A82E00E943F
:102AB000F6098130D1F582E00E94010A8823A9F14C
:102AC00083E00E94F609082F813079F583E00E94A7
:102AD000010A882351F182E00E94150A83E00E94D6
:102AE000150A0E9411130E94310F0093420182E0E7
:102AF0008093370180E00E94C603939886E0E0EA65
:102B0000F0E0DE01119601900D928A95E1F729819E
:102B1000216029833A814B815C816D817E8184E0D3
:102B20000E94820981E00E943A060E947F130E945F
:102B3000BE080E9418139CCE813001F50E94CC0380
:102B40008823C9F010924201809128018A7F816018
:102B500080932801109237011093200110928E006B
:102B600010928F001092900010929100109292009B
:102B700010929300939A0E942709DBCF8230C9F606
:102B8000011117C084E00E94010A882391F010927D
:102B90004E0110928E0010928F00109290001092B1
:102BA00091001092920010929300F89488E081BDF9
:102BB000FFCF0E947F0CBDCF97FB072E16F4009429
:102BC00007D077FD09D00E94F01507FC05D03EF430
:102BD000909581959F4F0895709561957F4F0895C9
:102BE000AA1BBB1B51E107C0AA1FBB1FA617B70733
:102BF00010F0A61BB70B881F991F5A95A9F780954F
:102C00009095BC01CD0108955058BB27AA270E947A
:102C10001C160C9496170E94881738F00E948F1784
:102C200020F039F49F3F19F426F40C9485170EF424
:102C3000E095E7FB0C947F17E92F0E94A71758F344
:102C4000BA17620773078407950720F079F4A6F591
:102C50000C94C9170EF4E0950B2EBA2FA02D0B0182
:102C6000B90190010C01CA01A0011124FF27591BD1
:102C700099F0593F50F4503E68F11A16F040A22FD7
:102C8000232F342F4427585FF3CF46953795279548
:102C9000A795F0405395C9F77EF41F16BA0B620B47
:102CA000730B840BBAF09150A1F0FF0FBB1F661F8E
:102CB000771F881FC2F70EC0BA0F621F731F841FD1
:102CC00048F4879577956795B795F7959E3F08F0F7
:102CD000B0CF9395880F08F09927EE0F97958795B9
:102CE00008950E945B1708F481E008950E948A16F7
:102CF0000C9496170E948F1758F00E94881740F086
:102D000029F45F3F29F00C947F1751110C94CA17D6
:102D10000C9485170E94A71768F39923B1F35523E4
:102D200091F3951B550BBB27AA27621773078407DE
:102D300038F09F5F5F4F220F331F441FAA1FA9F374
:102D400035D00E2E3AF0E0E832D091505040E69562
:102D5000001CCAF72BD0FE2F29D0660F771F881FC3
:102D6000BB1F261737074807AB07B0E809F0BB0BB6
:102D7000802DBF01FF2793585F4F3AF09E3F5105CA
:102D800078F00C947F170C94CA175F3FE4F3983ED9
:102D9000D4F3869577956795B795F7959F5FC9F7B3
:102DA000880F911D9695879597F90895E1E0660F34
:102DB000771F881FBB1F621773078407BA0720F0AD
:102DC000621B730B840BBA0BEE1F88F7E095089516
:102DD0000E94EF166894B1110C94CA1708950E94CE
:102DE000AF1788F09F5798F0B92F9927B751B0F0D7
:102DF000E1F0660F771F881F991F1AF0BA95C9F77F
:102E000014C0B13091F00E94C917B1E008950C943C
:102E1000C917672F782F8827B85F39F0B93FCCF3EF
:102E2000869577956795B395D9F73EF490958095FB
:102E3000709561957F4F8F4F9F4F0895E89409C01B
:102E400097FB3EF490958095709561957F4F8F4FDD
:102E50009F4F9923A9F0F92F96E9BB279395F695F3
:102E6000879577956795B795F111F8CFFAF4BB0F71
:102E700011F460FF1BC06F5F7F4F8F4F9F4F16C0D5
:102E8000882311F096E911C0772321F09EE8872F5F
:102E9000762F05C0662371F096E8862F70E060E01B
:102EA0002AF09A95660F771F881FDAF7880F969594
:102EB000879597F90895990F0008550FAA0BE0E838
:102EC000FEEF16161706E807F907C0F012161306EC
:102ED000E407F50798F0621B730B840B950B39F42C
:102EE0000A2661F0232B242B252B21F408950A2692
:102EF00009F4A140A6958FEF811D811D089597F9D2
:102F00009F6780E870E060E008959FEF80EC08958F
:102F100000240A94161617061806090608950024B8
:102F20000A9412161306140605060895092E039432
:102F3000000C11F4882352F0BB0F40F4BF2B11F4A6
:102F400060FF04C06F5F7F4F8F4F9F4F089557FD05
:102F50009058440F551F59F05F3F71F04795880F07
:102F600097FB991F61F09F3F79F08795089512169E
:102F700013061406551FF2CF4695F1DF08C016164A
:102F800017061806991FF1CF8695710561050894FB
:102F90000895E894BB2766277727CB0197F9089512
:102FA0000E945B1708F48FEF08950E94E8170C94B5
:102FB00096170E94881738F00E948F1720F09523EB
:102FC00011F00C947F170C94851711240C94CA17D8
:102FD0000E94A71770F3959FC1F3950F50E0551FFE
:102FE000629FF001729FBB27F00DB11D639FAA275E
:102FF000F00DB11DAA1F649F6627B00DA11D661FAD
:10300000829F2227B00DA11D621F739FB00DA11DCD
:10301000621F839FA00D611D221F749F3327A00D87
:10302000611D231F849F600D211D822F762F6A2F23
:1030300011249F5750409AF0F1F088234AF0EE0F88
:10304000FF1FBB1F661F771F881F91505040A9F7B5
:103050009E3F510580F00C947F170C94CA175F3F78
:10306000E4F3983ED4F3869577956795B795F795F1
:10307000E7959F5FC1F7FE2B880F911D9695879569
:1030800097F90895BB274A3031F4992322F4BDE221
:10309000909581959F4F0C944E18BB27FB015527A7
:1030A000AA27880F991FAA1FA41710F0A41B8395A5
:1030B0005051B9F7A05DAA3308F0A95DA19300971C
:1030C00079F7B111B1931192CB010C946718DC011F
:1030D000FC01672F71917723E1F7329704C07C914F
:1030E0006D9370836291AE17BF07C8F30895E1999D
:1030F000FECF9FBB8EBBE09A99278DB30895A6E1C2
:10310000B0E044E050E00C94A418262FE199FECFE3
:103110009FBB8EBBE09A01970DB2021631F02DBB1A
:103120000FB6F894E29AE19A0FBE08950396272FFE
:103130000E9486180E948518252F0E948618242F29
:103140000C948618DC01CB01FC01E199FECF06C08E
:10315000FFBBEEBBE09A31960DB20D92415050404C
:08316000B8F70895F894FFCFC1
:10316800000086430000A040060608060A060C0672
:103178000E0610061206140616061806FFFF01FFB3
:103188001A0F1F0F240F290FCDCCCC3DFF000000D4
:103198000000000000403F065B4F666D7C077F67BC
:1031A80000000000000016202E44220028002F00F6
:0431B80035003B00A3
:00000001FF
