:040000000CEF00F011
:10000800FACF02F0FBCF03F0E9CF04F086ED00F061
:10001800F0EF00F0000E146E000E136E1450800AFC
:10002800800FC80ED8B4135CD8B053D00E0E8C6EA7
:10003800100E106E940EE82EFED7102EFCD700D0AE
:10004800020E8C6E100E106E940EE82EFED7102E37
:10005800FCD700D0030E8C6E100E106E940EE82E96
:10006800FED7102EFCD700D0000E8C6E100E106E2E
:10007800940EE82EFED7102EFCD700D0080E8C6EFA
:10008800100E106E940EE82EFED7102EFCD700D05E
:10009800040E8C6E100E106E940EE82EFED7102EE5
:1000A800FCD700D0050E8C6E100E106E940EE82E44
:1000B800FED7102EFCD700D0060E8C6E100E106ED8
:1000C800940EE82EFED7102EFCD700D0134A142A1F
:1000D800A5D70F0E8C6E000E126E000E116E125008
:1000E800800A800FC80ED8B4115CD8B093D79C0E84
:1000F800106ED70EE82EFED7102EFCD700F0114A4E
:10010800122AEDD70600EACF05F0E1CF06F0E2CFDC
:1001180007F0D9CF08F0DACF09F0F3CF0AF0F4CF1F
:100128000BF0F6CF0CF0F7CF0DF0F8CF0EF0F5CFBF
:100138000FF0F2A410D01E2A1E50800A7E0FD8A0FD
:1001480005D0010ECCEC00F0000E1E6EF294FE0EEF
:10015800D76E890ED66E0FC0F5FF0EC0F8FF0DC022
:10016800F7FF0CC0F6FF0BC0F4FF0AC0F3FF09C08D
:10017800DAFF08C0D9FF07C0E2FF06C0E1FF05C0EB
:10018800EAFF04C0E9FF03C0FBFF02C0FAFF110049
:10019800016E1D5001241D6E1D50800A7C0FD8A0D1
:1001A80002D0000E1D6E1DAE02D0030E1D6E1D5036
:1001B800020D150EF324D96E000EF420DA6E01D864
:1001C8000AD00500FA6EDE50FD6EDE50FE6EF85065
:1001D800FF6EFA50120012001E6A2C0EF66E020E06
:1001E800F76E000EF86E00EE15F010EE09F009003B
:1001F800F5CFEEFFE550E150FAE1000EF86E000190
:1002080006EF01F094928B82000E956E0EEC00F0D2
:10021800840ED56EFE0ED76E890ED66EF28AF28CDB
:10022800F28EFFD742023C0236024802FF00000E5F
:100238008C6E1200020E8C6E1200060E8C6E12006E
:06024800040E8C6E120092
:020000040020DA
:08000000FFFFFFFFFFFFFFFF00
:020000040030CA
:0E000000240E381EFF8181FF00C00FE00F406C
:00000001FF
